{
  "abi": [
    {
      "inputs": [
        {
          "internalType": "address",
          "name": "account",
          "type": "address"
        }
      ],
      "name": "bytecode",
      "outputs": [
        {
          "internalType": "bytes",
          "name": "",
          "type": "bytes"
        }
      ],
      "stateMutability": "view",
      "type": "function"
    },
    {
      "inputs": [
        {
          "internalType": "address",
          "name": "account",
          "type": "address"
        }
      ],
      "name": "bytecodeHash",
      "outputs": [
        {
          "internalType": "bytes32",
          "name": "",
          "type": "bytes32"
        }
      ],
      "stateMutability": "view",
      "type": "function"
    },
    {
      "inputs": [
        {
          "internalType": "address",
          "name": "account",
          "type": "address"
        }
      ],
      "name": "isERC1167Proxy",
      "outputs": [
        {
          "internalType": "bool",
          "name": "result",
          "type": "bool"
        },
        {
          "internalType": "address",
          "name": "implementationAddress",
          "type": "address"
        }
      ],
      "stateMutability": "view",
      "type": "function"
    },
    {
      "inputs": [
        {
          "internalType": "address",
          "name": "account",
          "type": "address"
        }
      ],
      "name": "scanEVMOpcodesPresentInAccount",
      "outputs": [
        {
          "internalType": "uint256",
          "name": "",
          "type": "uint256"
        }
      ],
      "stateMutability": "view",
      "type": "function"
    },
    {
      "inputs": [
        {
          "internalType": "address",
          "name": "account",
          "type": "address"
        }
      ],
      "name": "scanEVMOpcodesReachableInAccount",
      "outputs": [
        {
          "internalType": "uint256",
          "name": "",
          "type": "uint256"
        }
      ],
      "stateMutability": "view",
      "type": "function"
    },
    {
      "inputs": [
        {
          "internalType": "address",
          "name": "interpreter",
          "type": "address"
        }
      ],
      "name": "scanOnlyAllowedInterpreterEVMOpcodes",
      "outputs": [
        {
          "internalType": "bool",
          "name": "",
          "type": "bool"
        }
      ],
      "stateMutability": "view",
      "type": "function"
    }
  ],
  "bytecode": {
    "object": "0x608060405234801561001057600080fd5b50610562806100206000396000f3fe608060405234801561001057600080fd5b50600436106100725760003560e01c8063b8270b1e11610050578063b8270b1e14610104578063c7338a0214610127578063f5ac63351461014757600080fd5b806339676bce1461007757806374c6eb25146100b25780637d82a692146100f1575b600080fd5b61009f6100853660046104b9565b73ffffffffffffffffffffffffffffffffffffffff163f90565b6040519081526020015b60405180910390f35b6100c56100c03660046104b9565b61015a565b60408051921515835273ffffffffffffffffffffffffffffffffffffffff9091166020830152016100a9565b61009f6100ff3660046104b9565b6101a1565b6101176101123660046104b9565b6101e4565b60405190151581526020016100a9565b61013a6101353660046104b9565b610218565b6040516100a991906104f6565b61009f6101553660046104b9565b610253565b6000806101988373ffffffffffffffffffffffffffffffffffffffff16803b806020016040519081016040528181526000908060200190933c610290565b91509150915091565b60006101de8273ffffffffffffffffffffffffffffffffffffffff16803b806020016040519081016040528181526000908060200190933c61039d565b92915050565b60007f80370000000000000000001f0000000000000000003000000000000000000000610210836101a1565b161592915050565b60608173ffffffffffffffffffffffffffffffffffffffff16803b806020016040519081016040528181526000908060200190933c92915050565b60006101de8273ffffffffffffffffffffffffffffffffffffffff16803b806020016040519081016040528181526000908060200190933c610452565b80516000908190602d146102a957506000928392509050565b604080518082018252600a8082527f363d3d373d3d3d363d73000000000000000000000000000000000000000000006020928301528582018190208351808501909452600f8085527f5af43d82803e903d91602b57fd5bf3000000000000000000000000000000000094840194909452603e8701939093207f63d391efc3119310b9796819854d0555ea77fb380e9ef5190c2359a8094c1f3c9384147f11a195f66c9175f46895bae2006d40848a680c7068b9fc4af248ff9a54a47e459091141660011694509091841561039557601e86015173ffffffffffffffffffffffffffffffffffffffff1693505b505050915091565b80516000908290808201605b7fe008000000000000000000000000000000000000000000000000000000000001855b838610156104475760018601955060ff86511681600081146103f5576001811461042c57600080fd5b6001821b9889179884161561040f576001925050506103cc565b60608203602081101561042457978801600101975b5050506103cc565b84820361044057600092506001821b891798505b50506103cc565b505050505050919050565b805160009082908082015b808310156104b1576001928301805160ff1693841b9490941793927fffffffffffffffffffffffffffffffffffffffffffffffffffffffffffffffa00160208110156104ab57928301600101925b5061045d565b505050919050565b6000602082840312156104cb57600080fd5b813573ffffffffffffffffffffffffffffffffffffffff811681146104ef57600080fd5b9392505050565b600060208083528351808285015260005b8181101561052357858101830151858201604001528201610507565b5060006040828601015260407fffffffffffffffffffffffffffffffffffffffffffffffffffffffffffffffe0601f830116850101925050509291505056",
    "linkReferences": {}
  },
  "methodIdentifiers": {
    "bytecode(address)": "c7338a02",
    "bytecodeHash(address)": "39676bce",
    "isERC1167Proxy(address)": "74c6eb25",
    "scanEVMOpcodesPresentInAccount(address)": "f5ac6335",
    "scanEVMOpcodesReachableInAccount(address)": "7d82a692",
    "scanOnlyAllowedInterpreterEVMOpcodes(address)": "b8270b1e"
  },
  "id": 21
}