{
  "abi": [
    {
      "inputs": [
        {
          "components": [
            {
              "internalType": "address",
              "name": "deployer",
              "type": "address"
            },
            {
              "internalType": "bytes",
              "name": "meta",
              "type": "bytes"
            }
          ],
          "internalType": "struct DeployerDiscoverableMetaV2ConstructionConfig",
          "name": "config",
          "type": "tuple"
        }
      ],
      "stateMutability": "nonpayable",
      "type": "constructor"
    },
    {
      "inputs": [
        {
          "internalType": "uint256",
          "name": "flowMinOutputs",
          "type": "uint256"
        }
      ],
      "name": "BadMinStackLength",
      "type": "error"
    },
    {
      "inputs": [],
      "name": "InitializeSignatureFn",
      "type": "error"
    },
    {
      "inputs": [
        {
          "internalType": "uint256",
          "name": "i",
          "type": "uint256"
        }
      ],
      "name": "InvalidSignature",
      "type": "error"
    },
    {
      "inputs": [
        {
          "internalType": "Sentinel",
          "name": "sentinel",
          "type": "uint256"
        }
      ],
      "name": "MissingSentinel",
      "type": "error"
    },
    {
      "inputs": [
        {
          "internalType": "bytes",
          "name": "unmeta",
          "type": "bytes"
        }
      ],
      "name": "NotRainMetaV1",
      "type": "error"
    },
    {
      "inputs": [
        {
          "internalType": "bytes",
          "name": "bytecode",
          "type": "bytes"
        },
        {
          "internalType": "uint256",
          "name": "sourceIndex",
          "type": "uint256"
        }
      ],
      "name": "SourceOffsetOutOfBounds",
      "type": "error"
    },
    {
      "inputs": [
        {
          "internalType": "bytes32",
          "name": "expectedHash",
          "type": "bytes32"
        },
        {
          "internalType": "bytes32",
          "name": "actualHash",
          "type": "bytes32"
        }
      ],
      "name": "UnexpectedMetaHash",
      "type": "error"
    },
    {
      "inputs": [
        {
          "internalType": "bytes32",
          "name": "unregisteredHash",
          "type": "bytes32"
        }
      ],
      "name": "UnregisteredFlow",
      "type": "error"
    },
    {
      "inputs": [],
      "name": "UnsupportedERC1155Flow",
      "type": "error"
    },
    {
      "inputs": [],
      "name": "UnsupportedERC20Flow",
      "type": "error"
    },
    {
      "inputs": [],
      "name": "UnsupportedERC721Flow",
      "type": "error"
    },
    {
      "anonymous": false,
      "inputs": [
        {
          "indexed": true,
          "internalType": "address",
          "name": "owner",
          "type": "address"
        },
        {
          "indexed": true,
          "internalType": "address",
          "name": "spender",
          "type": "address"
        },
        {
          "indexed": false,
          "internalType": "uint256",
          "name": "value",
          "type": "uint256"
        }
      ],
      "name": "Approval",
      "type": "event"
    },
    {
      "anonymous": false,
      "inputs": [
        {
          "indexed": false,
          "internalType": "address",
          "name": "sender",
          "type": "address"
        },
        {
          "indexed": false,
          "internalType": "uint256[][]",
          "name": "context",
          "type": "uint256[][]"
        }
      ],
      "name": "Context",
      "type": "event"
    },
    {
      "anonymous": false,
      "inputs": [
        {
          "indexed": false,
          "internalType": "address",
          "name": "sender",
          "type": "address"
        },
        {
          "components": [
            {
              "internalType": "contract IInterpreterV1",
              "name": "interpreter",
              "type": "address"
            },
            {
              "internalType": "contract IInterpreterStoreV1",
              "name": "store",
              "type": "address"
            },
            {
              "internalType": "address",
              "name": "expression",
              "type": "address"
            }
          ],
          "indexed": false,
          "internalType": "struct Evaluable",
          "name": "evaluable",
          "type": "tuple"
        }
      ],
      "name": "FlowInitialized",
      "type": "event"
    },
    {
      "anonymous": false,
      "inputs": [
        {
          "indexed": false,
          "internalType": "address",
          "name": "sender",
          "type": "address"
        },
        {
          "components": [
            {
              "internalType": "string",
              "name": "name",
              "type": "string"
            },
            {
              "internalType": "string",
              "name": "symbol",
              "type": "string"
            },
            {
              "components": [
                {
                  "internalType": "contract IExpressionDeployerV2",
                  "name": "deployer",
                  "type": "address"
                },
                {
                  "internalType": "bytes",
                  "name": "bytecode",
                  "type": "bytes"
                },
                {
                  "internalType": "uint256[]",
                  "name": "constants",
                  "type": "uint256[]"
                }
              ],
              "internalType": "struct EvaluableConfigV2",
              "name": "evaluableConfig",
              "type": "tuple"
            },
            {
              "components": [
                {
                  "internalType": "contract IExpressionDeployerV2",
                  "name": "deployer",
                  "type": "address"
                },
                {
                  "internalType": "bytes",
                  "name": "bytecode",
                  "type": "bytes"
                },
                {
                  "internalType": "uint256[]",
                  "name": "constants",
                  "type": "uint256[]"
                }
              ],
              "internalType": "struct EvaluableConfigV2[]",
              "name": "flowConfig",
              "type": "tuple[]"
            }
          ],
          "indexed": false,
          "internalType": "struct FlowERC20ConfigV2",
          "name": "config",
          "type": "tuple"
        }
      ],
      "name": "Initialize",
      "type": "event"
    },
    {
      "anonymous": false,
      "inputs": [
        {
          "indexed": false,
          "internalType": "uint8",
          "name": "version",
          "type": "uint8"
        }
      ],
      "name": "Initialized",
      "type": "event"
    },
    {
      "anonymous": false,
      "inputs": [
        {
          "indexed": false,
          "internalType": "address",
          "name": "sender",
          "type": "address"
        },
        {
          "indexed": false,
          "internalType": "uint256",
          "name": "subject",
          "type": "uint256"
        },
        {
          "indexed": false,
          "internalType": "bytes",
          "name": "meta",
          "type": "bytes"
        }
      ],
      "name": "MetaV1",
      "type": "event"
    },
    {
      "anonymous": false,
      "inputs": [
        {
          "indexed": true,
          "internalType": "address",
          "name": "from",
          "type": "address"
        },
        {
          "indexed": true,
          "internalType": "address",
          "name": "to",
          "type": "address"
        },
        {
          "indexed": false,
          "internalType": "uint256",
          "name": "value",
          "type": "uint256"
        }
      ],
      "name": "Transfer",
      "type": "event"
    },
    {
      "inputs": [
        {
          "internalType": "address",
          "name": "owner",
          "type": "address"
        },
        {
          "internalType": "address",
          "name": "spender",
          "type": "address"
        }
      ],
      "name": "allowance",
      "outputs": [
        {
          "internalType": "uint256",
          "name": "",
          "type": "uint256"
        }
      ],
      "stateMutability": "view",
      "type": "function"
    },
    {
      "inputs": [
        {
          "internalType": "address",
          "name": "spender",
          "type": "address"
        },
        {
          "internalType": "uint256",
          "name": "amount",
          "type": "uint256"
        }
      ],
      "name": "approve",
      "outputs": [
        {
          "internalType": "bool",
          "name": "",
          "type": "bool"
        }
      ],
      "stateMutability": "nonpayable",
      "type": "function"
    },
    {
      "inputs": [
        {
          "internalType": "address",
          "name": "account",
          "type": "address"
        }
      ],
      "name": "balanceOf",
      "outputs": [
        {
          "internalType": "uint256",
          "name": "",
          "type": "uint256"
        }
      ],
      "stateMutability": "view",
      "type": "function"
    },
    {
      "inputs": [],
      "name": "decimals",
      "outputs": [
        {
          "internalType": "uint8",
          "name": "",
          "type": "uint8"
        }
      ],
      "stateMutability": "view",
      "type": "function"
    },
    {
      "inputs": [
        {
          "internalType": "address",
          "name": "spender",
          "type": "address"
        },
        {
          "internalType": "uint256",
          "name": "subtractedValue",
          "type": "uint256"
        }
      ],
      "name": "decreaseAllowance",
      "outputs": [
        {
          "internalType": "bool",
          "name": "",
          "type": "bool"
        }
      ],
      "stateMutability": "nonpayable",
      "type": "function"
    },
    {
      "inputs": [
        {
          "components": [
            {
              "internalType": "contract IInterpreterV1",
              "name": "interpreter",
              "type": "address"
            },
            {
              "internalType": "contract IInterpreterStoreV1",
              "name": "store",
              "type": "address"
            },
            {
              "internalType": "address",
              "name": "expression",
              "type": "address"
            }
          ],
          "internalType": "struct Evaluable",
          "name": "evaluable_",
          "type": "tuple"
        },
        {
          "internalType": "uint256[]",
          "name": "callerContext_",
          "type": "uint256[]"
        },
        {
          "components": [
            {
              "internalType": "address",
              "name": "signer",
              "type": "address"
            },
            {
              "internalType": "uint256[]",
              "name": "context",
              "type": "uint256[]"
            },
            {
              "internalType": "bytes",
              "name": "signature",
              "type": "bytes"
            }
          ],
          "internalType": "struct SignedContextV1[]",
          "name": "signedContexts_",
          "type": "tuple[]"
        }
      ],
      "name": "flow",
      "outputs": [
        {
          "components": [
            {
              "components": [
                {
                  "internalType": "address",
                  "name": "account",
                  "type": "address"
                },
                {
                  "internalType": "uint256",
                  "name": "amount",
                  "type": "uint256"
                }
              ],
              "internalType": "struct ERC20SupplyChange[]",
              "name": "mints",
              "type": "tuple[]"
            },
            {
              "components": [
                {
                  "internalType": "address",
                  "name": "account",
                  "type": "address"
                },
                {
                  "internalType": "uint256",
                  "name": "amount",
                  "type": "uint256"
                }
              ],
              "internalType": "struct ERC20SupplyChange[]",
              "name": "burns",
              "type": "tuple[]"
            },
            {
              "components": [
                {
                  "components": [
                    {
                      "internalType": "address",
                      "name": "token",
                      "type": "address"
                    },
                    {
                      "internalType": "address",
                      "name": "from",
                      "type": "address"
                    },
                    {
                      "internalType": "address",
                      "name": "to",
                      "type": "address"
                    },
                    {
                      "internalType": "uint256",
                      "name": "amount",
                      "type": "uint256"
                    }
                  ],
                  "internalType": "struct ERC20Transfer[]",
                  "name": "erc20",
                  "type": "tuple[]"
                },
                {
                  "components": [
                    {
                      "internalType": "address",
                      "name": "token",
                      "type": "address"
                    },
                    {
                      "internalType": "address",
                      "name": "from",
                      "type": "address"
                    },
                    {
                      "internalType": "address",
                      "name": "to",
                      "type": "address"
                    },
                    {
                      "internalType": "uint256",
                      "name": "id",
                      "type": "uint256"
                    }
                  ],
                  "internalType": "struct ERC721Transfer[]",
                  "name": "erc721",
                  "type": "tuple[]"
                },
                {
                  "components": [
                    {
                      "internalType": "address",
                      "name": "token",
                      "type": "address"
                    },
                    {
                      "internalType": "address",
                      "name": "from",
                      "type": "address"
                    },
                    {
                      "internalType": "address",
                      "name": "to",
                      "type": "address"
                    },
                    {
                      "internalType": "uint256",
                      "name": "id",
                      "type": "uint256"
                    },
                    {
                      "internalType": "uint256",
                      "name": "amount",
                      "type": "uint256"
                    }
                  ],
                  "internalType": "struct ERC1155Transfer[]",
                  "name": "erc1155",
                  "type": "tuple[]"
                }
              ],
              "internalType": "struct FlowTransferV1",
              "name": "flow",
              "type": "tuple"
            }
          ],
          "internalType": "struct FlowERC20IOV1",
          "name": "",
          "type": "tuple"
        }
      ],
      "stateMutability": "nonpayable",
      "type": "function"
    },
    {
      "inputs": [
        {
          "internalType": "address",
          "name": "spender",
          "type": "address"
        },
        {
          "internalType": "uint256",
          "name": "addedValue",
          "type": "uint256"
        }
      ],
      "name": "increaseAllowance",
      "outputs": [
        {
          "internalType": "bool",
          "name": "",
          "type": "bool"
        }
      ],
      "stateMutability": "nonpayable",
      "type": "function"
    },
    {
      "inputs": [
        {
          "internalType": "bytes",
          "name": "data",
          "type": "bytes"
        }
      ],
      "name": "initialize",
      "outputs": [
        {
          "internalType": "bytes32",
          "name": "",
          "type": "bytes32"
        }
      ],
      "stateMutability": "nonpayable",
      "type": "function"
    },
    {
      "inputs": [
        {
          "internalType": "bytes[]",
          "name": "data",
          "type": "bytes[]"
        }
      ],
      "name": "multicall",
      "outputs": [
        {
          "internalType": "bytes[]",
          "name": "results",
          "type": "bytes[]"
        }
      ],
      "stateMutability": "nonpayable",
      "type": "function"
    },
    {
      "inputs": [],
      "name": "name",
      "outputs": [
        {
          "internalType": "string",
          "name": "",
          "type": "string"
        }
      ],
      "stateMutability": "view",
      "type": "function"
    },
    {
      "inputs": [
        {
          "internalType": "address",
          "name": "",
          "type": "address"
        },
        {
          "internalType": "address",
          "name": "",
          "type": "address"
        },
        {
          "internalType": "uint256[]",
          "name": "",
          "type": "uint256[]"
        },
        {
          "internalType": "uint256[]",
          "name": "",
          "type": "uint256[]"
        },
        {
          "internalType": "bytes",
          "name": "",
          "type": "bytes"
        }
      ],
      "name": "onERC1155BatchReceived",
      "outputs": [
        {
          "internalType": "bytes4",
          "name": "",
          "type": "bytes4"
        }
      ],
      "stateMutability": "nonpayable",
      "type": "function"
    },
    {
      "inputs": [
        {
          "internalType": "address",
          "name": "",
          "type": "address"
        },
        {
          "internalType": "address",
          "name": "",
          "type": "address"
        },
        {
          "internalType": "uint256",
          "name": "",
          "type": "uint256"
        },
        {
          "internalType": "uint256",
          "name": "",
          "type": "uint256"
        },
        {
          "internalType": "bytes",
          "name": "",
          "type": "bytes"
        }
      ],
      "name": "onERC1155Received",
      "outputs": [
        {
          "internalType": "bytes4",
          "name": "",
          "type": "bytes4"
        }
      ],
      "stateMutability": "nonpayable",
      "type": "function"
    },
    {
      "inputs": [
        {
          "internalType": "address",
          "name": "",
          "type": "address"
        },
        {
          "internalType": "address",
          "name": "",
          "type": "address"
        },
        {
          "internalType": "uint256",
          "name": "",
          "type": "uint256"
        },
        {
          "internalType": "bytes",
          "name": "",
          "type": "bytes"
        }
      ],
      "name": "onERC721Received",
      "outputs": [
        {
          "internalType": "bytes4",
          "name": "",
          "type": "bytes4"
        }
      ],
      "stateMutability": "nonpayable",
      "type": "function"
    },
    {
      "inputs": [
        {
          "components": [
            {
              "internalType": "contract IInterpreterV1",
              "name": "interpreter",
              "type": "address"
            },
            {
              "internalType": "contract IInterpreterStoreV1",
              "name": "store",
              "type": "address"
            },
            {
              "internalType": "address",
              "name": "expression",
              "type": "address"
            }
          ],
          "internalType": "struct Evaluable",
          "name": "evaluable_",
          "type": "tuple"
        },
        {
          "internalType": "uint256[]",
          "name": "callerContext_",
          "type": "uint256[]"
        },
        {
          "components": [
            {
              "internalType": "address",
              "name": "signer",
              "type": "address"
            },
            {
              "internalType": "uint256[]",
              "name": "context",
              "type": "uint256[]"
            },
            {
              "internalType": "bytes",
              "name": "signature",
              "type": "bytes"
            }
          ],
          "internalType": "struct SignedContextV1[]",
          "name": "signedContexts_",
          "type": "tuple[]"
        }
      ],
      "name": "previewFlow",
      "outputs": [
        {
          "components": [
            {
              "components": [
                {
                  "internalType": "address",
                  "name": "account",
                  "type": "address"
                },
                {
                  "internalType": "uint256",
                  "name": "amount",
                  "type": "uint256"
                }
              ],
              "internalType": "struct ERC20SupplyChange[]",
              "name": "mints",
              "type": "tuple[]"
            },
            {
              "components": [
                {
                  "internalType": "address",
                  "name": "account",
                  "type": "address"
                },
                {
                  "internalType": "uint256",
                  "name": "amount",
                  "type": "uint256"
                }
              ],
              "internalType": "struct ERC20SupplyChange[]",
              "name": "burns",
              "type": "tuple[]"
            },
            {
              "components": [
                {
                  "components": [
                    {
                      "internalType": "address",
                      "name": "token",
                      "type": "address"
                    },
                    {
                      "internalType": "address",
                      "name": "from",
                      "type": "address"
                    },
                    {
                      "internalType": "address",
                      "name": "to",
                      "type": "address"
                    },
                    {
                      "internalType": "uint256",
                      "name": "amount",
                      "type": "uint256"
                    }
                  ],
                  "internalType": "struct ERC20Transfer[]",
                  "name": "erc20",
                  "type": "tuple[]"
                },
                {
                  "components": [
                    {
                      "internalType": "address",
                      "name": "token",
                      "type": "address"
                    },
                    {
                      "internalType": "address",
                      "name": "from",
                      "type": "address"
                    },
                    {
                      "internalType": "address",
                      "name": "to",
                      "type": "address"
                    },
                    {
                      "internalType": "uint256",
                      "name": "id",
                      "type": "uint256"
                    }
                  ],
                  "internalType": "struct ERC721Transfer[]",
                  "name": "erc721",
                  "type": "tuple[]"
                },
                {
                  "components": [
                    {
                      "internalType": "address",
                      "name": "token",
                      "type": "address"
                    },
                    {
                      "internalType": "address",
                      "name": "from",
                      "type": "address"
                    },
                    {
                      "internalType": "address",
                      "name": "to",
                      "type": "address"
                    },
                    {
                      "internalType": "uint256",
                      "name": "id",
                      "type": "uint256"
                    },
                    {
                      "internalType": "uint256",
                      "name": "amount",
                      "type": "uint256"
                    }
                  ],
                  "internalType": "struct ERC1155Transfer[]",
                  "name": "erc1155",
                  "type": "tuple[]"
                }
              ],
              "internalType": "struct FlowTransferV1",
              "name": "flow",
              "type": "tuple"
            }
          ],
          "internalType": "struct FlowERC20IOV1",
          "name": "",
          "type": "tuple"
        }
      ],
      "stateMutability": "view",
      "type": "function"
    },
    {
      "inputs": [
        {
          "internalType": "bytes4",
          "name": "interfaceId",
          "type": "bytes4"
        }
      ],
      "name": "supportsInterface",
      "outputs": [
        {
          "internalType": "bool",
          "name": "",
          "type": "bool"
        }
      ],
      "stateMutability": "view",
      "type": "function"
    },
    {
      "inputs": [],
      "name": "symbol",
      "outputs": [
        {
          "internalType": "string",
          "name": "",
          "type": "string"
        }
      ],
      "stateMutability": "view",
      "type": "function"
    },
    {
      "inputs": [],
      "name": "totalSupply",
      "outputs": [
        {
          "internalType": "uint256",
          "name": "",
          "type": "uint256"
        }
      ],
      "stateMutability": "view",
      "type": "function"
    },
    {
      "inputs": [
        {
          "internalType": "address",
          "name": "to",
          "type": "address"
        },
        {
          "internalType": "uint256",
          "name": "amount",
          "type": "uint256"
        }
      ],
      "name": "transfer",
      "outputs": [
        {
          "internalType": "bool",
          "name": "",
          "type": "bool"
        }
      ],
      "stateMutability": "nonpayable",
      "type": "function"
    },
    {
      "inputs": [
        {
          "internalType": "address",
          "name": "from",
          "type": "address"
        },
        {
          "internalType": "address",
          "name": "to",
          "type": "address"
        },
        {
          "internalType": "uint256",
          "name": "amount",
          "type": "uint256"
        }
      ],
      "name": "transferFrom",
      "outputs": [
        {
          "internalType": "bool",
          "name": "",
          "type": "bool"
        }
      ],
      "stateMutability": "nonpayable",
      "type": "function"
    }
  ],
  "bytecode": {
    "object": "0x60806040523480156200001157600080fd5b5060405162004d4538038062004d45833981016040819052620000349162000381565b7fff0499e4ee7171a54d176cfe13165a7ea512d146dbd99d42b3d3ec9963025acf60001b81818162000071828260200151620000d560201b60201c565b60208101516040517fbea766d03fa1efd3f81cc8634d08320bc62bb0ed9234ac59bbaafa5893fb6b1391620000aa91339130916200048f565b60405180910390a18051620000bf906200011c565b50620000cc9050620001b3565b505050620005a5565b805160208201208281146200010c5760405163074fe10f60e41b815260048101849052602481018290526044015b60405180910390fd5b620001178262000271565b505050565b60408051600080825260208201818152828401938490526331a66b6560e01b90935291829182916001600160a01b038616916331a66b659162000164919060448201620004fe565b6060604051808303816000875af115801562000184573d6000803e3d6000fd5b505050506040513d601f19601f82011682018060405250810190620001aa919062000535565b50505050505050565b600054610100900460ff16156200021d5760405162461bcd60e51b815260206004820152602760248201527f496e697469616c697a61626c653a20636f6e747261637420697320696e697469604482015266616c697a696e6760c81b606482015260840162000103565b60005460ff908116146200026f576000805460ff191660ff9081179091556040519081527f7f26b83ff96e1f2b6a682f133852f6798a09c465da95921460cefb38474024989060200160405180910390a15b565b6200027c81620002a1565b6200029e5780604051630c89984b60e31b815260040162000103919062000589565b50565b6000600882511015620002b657506000919050565b50600801516001600160401b031667ff0a89c674ee78741490565b634e487b7160e01b600052604160045260246000fd5b604080519081016001600160401b03811182821017156200030c576200030c620002d1565b60405290565b604051601f8201601f191681016001600160401b03811182821017156200033d576200033d620002d1565b604052919050565b6001600160a01b03811681146200029e57600080fd5b60005b83811015620003785781810151838201526020016200035e565b50506000910152565b600060208083850312156200039557600080fd5b82516001600160401b0380821115620003ad57600080fd5b9084019060408287031215620003c257600080fd5b620003cc620002e7565b8251620003d98162000345565b81528284015182811115620003ed57600080fd5b80840193505086601f8401126200040357600080fd5b825182811115620004185762000418620002d1565b6200042c601f8201601f1916860162000312565b925080835287858286010111156200044357600080fd5b62000454818685018787016200035b565b5092830152509392505050565b600081518084526200047b8160208601602086016200035b565b601f01601f19169290920160200192915050565b60018060a01b0384168152826020820152606060408201526000620004b8606083018462000461565b95945050505050565b600081518084526020808501945080840160005b83811015620004f357815187529582019590820190600101620004d5565b509495945050505050565b6060815260006060820152608060208201526000620005216080830185620004c1565b8281036040840152620004b88185620004c1565b6000806000606084860312156200054b57600080fd5b8351620005588162000345565b60208501519093506200056b8162000345565b60408501519092506200057e8162000345565b809150509250925092565b6020815260006200059e602083018462000461565b9392505050565b61479080620005b56000396000f3fe608060405234801561001057600080fd5b50600436106101515760003560e01c806370a08231116100cd578063ac9650d811610081578063dd62ed3e11610066578063dd62ed3e14610322578063f23a6e6114610369578063f83d765a146103a157600080fd5b8063ac9650d8146102ca578063bc197c81146102ea57600080fd5b806395d89b41116100b257806395d89b411461029c578063a457c2d7146102a4578063a9059cbb146102b757600080fd5b806370a082311461024557806390bcad691461027c57600080fd5b806318160ddd11610124578063313ce56711610109578063313ce56714610210578063395093511461021f578063439fab911461023257600080fd5b806318160ddd146101ea57806323b872dd146101fd57600080fd5b806301ffc9a71461015657806306fdde031461017e578063095ea7b314610193578063150b7a02146101a6575b600080fd5b6101696101643660046133c5565b6103b4565b60405190151581526020015b60405180910390f35b61018661044d565b6040516101759190613475565b6101696101a13660046134ad565b6104e0565b6101b96101b4366004613631565b6104f8565b6040517fffffffff000000000000000000000000000000000000000000000000000000009091168152602001610175565b610162545b604051908152602001610175565b61016961020b36600461369d565b610522565b60405160128152602001610175565b61016961022d3660046134ad565b610548565b6101ef6102403660046136de565b610595565b6101ef610253366004613750565b73ffffffffffffffffffffffffffffffffffffffff166000908152610160602052604090205490565b61028f61028a3660046137f1565b61096a565b6040516101759190613a7a565b6101866109b2565b6101696102b23660046134ad565b6109c2565b6101696102c53660046134ad565b610a9f565b6102dd6102d8366004613c14565b610aad565b6040516101759190613c77565b6101b96102f8366004613cf7565b7fbc197c810000000000000000000000000000000000000000000000000000000095945050505050565b6101ef610330366004613da5565b73ffffffffffffffffffffffffffffffffffffffff91821660009081526101616020908152604080832093909416825291909152205490565b6101b9610377366004613dde565b7ff23a6e610000000000000000000000000000000000000000000000000000000095945050505050565b61028f6103af3660046137f1565b610b9b565b60007fffffffff0000000000000000000000000000000000000000000000000000000082167f4e2312e000000000000000000000000000000000000000000000000000000000148061044757507f01ffc9a7000000000000000000000000000000000000000000000000000000007fffffffff000000000000000000000000000000000000000000000000000000008316145b92915050565b6060610163805461045d90613e47565b80601f016020809104026020016040519081016040528092919081815260200182805461048990613e47565b80156104d65780601f106104ab576101008083540402835291602001916104d6565b820191906000526020600020905b8154815290600101906020018083116104b957829003601f168201915b5050505050905090565b6000336104ee818585610bae565b5060019392505050565b7f150b7a02000000000000000000000000000000000000000000000000000000005b949350505050565b600033610530858285610d62565b61053b858585610e3a565b60019150505b9392505050565b3360008181526101616020908152604080832073ffffffffffffffffffffffffffffffffffffffff871684529091528120549091906104ee9082908690610590908790613ec9565b610bae565b60008054610100900460ff16158080156105b65750600054600160ff909116105b806105d05750303b1580156105d0575060005460ff166001145b610661576040517f08c379a000000000000000000000000000000000000000000000000000000000815260206004820152602e60248201527f496e697469616c697a61626c653a20636f6e747261637420697320616c72656160448201527f647920696e697469616c697a656400000000000000000000000000000000000060648201526084015b60405180910390fd5b600080547fffffffffffffffffffffffffffffffffffffffffffffffffffffffffffffff0016600117905580156106bf57600080547fffffffffffffffffffffffffffffffffffffffffffffffffffffffffffff00ff166101001790555b60006106cd84860186613fde565b90507f5bdf1e562baf903aabb70424ba720f0619e49b6ee17805dd38d74cd1b42cca54338260405161070092919061413e565b60405180910390a16107106110b8565b61072281600001518260200151611159565b606081015161073c9061073760036002613ec9565b6111fe565b600061074f82604001516020015161151b565b11801561077257506000610770826040015160200151600061ffff16611539565b115b156108dc5761019280547fffffffffffffffffffffffffffffffffffffffffffffffffffffffffffffff001660011790556040808201518051602082015191909201516000928392839273ffffffffffffffffffffffffffffffffffffffff909216916331a66b6591906107f88560408051600181526020810192909252818101905290565b6040518463ffffffff1660e01b815260040161081693929190614256565b6060604051808303816000875af1158015610835573d6000803e3d6000fd5b505050506040513d601f19601f82011682018060405250810190610859919061428f565b6040805160608101825273ffffffffffffffffffffffffffffffffffffffff9485168082529385166020820181905292909416930183905261019380547fffffffffffffffffffffffff00000000000000000000000000000000000000009081169093179055610194805483169091179055610195805490911690911790555050505b7fe0e57eda3f08f2a93bbe980d3df7f9c315eac41181f58b865a13d917fe769fc3925050801561096357600080547fffffffffffffffffffffffffffffffffffffffffffffffffffffffffffff00ff169055604051600181527f7f26b83ff96e1f2b6a682f133852f6798a09c465da95921460cefb38474024989060200160405180910390a15b5092915050565b610972613383565b60006109996109938560408051600181526020810192909252818101905290565b84611552565b905060006109a78683611862565b509695505050505050565b6060610164805461045d90613e47565b3360008181526101616020908152604080832073ffffffffffffffffffffffffffffffffffffffff8716845290915281205490919083811015610a87576040517f08c379a000000000000000000000000000000000000000000000000000000000815260206004820152602560248201527f45524332303a2064656372656173656420616c6c6f77616e63652062656c6f7760448201527f207a65726f0000000000000000000000000000000000000000000000000000006064820152608401610658565b610a948286868403610bae565b506001949350505050565b6000336104ee818585610e3a565b60608167ffffffffffffffff811115610ac857610ac86134d9565b604051908082528060200260200182016040528015610afb57816020015b6060815260200190600190039081610ae65790505b50905060005b8281101561096357610b6b30858584818110610b1f57610b1f6142dc565b9050602002810190610b31919061430b565b8080601f01602080910402602001604051908101604052809392919081815260200183838082843760009201919091525061199092505050565b828281518110610b7d57610b7d6142dc565b60200260200101819052508080610b9390614370565b915050610b01565b610ba3613383565b61051a8484846119b5565b73ffffffffffffffffffffffffffffffffffffffff8316610c50576040517f08c379a0000000000000000000000000000000000000000000000000000000008152602060048201526024808201527f45524332303a20617070726f76652066726f6d20746865207a65726f2061646460448201527f72657373000000000000000000000000000000000000000000000000000000006064820152608401610658565b73ffffffffffffffffffffffffffffffffffffffff8216610cf3576040517f08c379a000000000000000000000000000000000000000000000000000000000815260206004820152602260248201527f45524332303a20617070726f766520746f20746865207a65726f20616464726560448201527f73730000000000000000000000000000000000000000000000000000000000006064820152608401610658565b73ffffffffffffffffffffffffffffffffffffffff8381166000818152610161602090815260408083209487168084529482529182902085905590518481527f8c5be1e5ebec7d5bd14f71427d1e84f3dd0314c0f7b2291e5b200ac8c7c3b925910160405180910390a3505050565b73ffffffffffffffffffffffffffffffffffffffff838116600090815261016160209081526040808320938616835292905220547fffffffffffffffffffffffffffffffffffffffffffffffffffffffffffffffff8114610e345781811015610e27576040517f08c379a000000000000000000000000000000000000000000000000000000000815260206004820152601d60248201527f45524332303a20696e73756666696369656e7420616c6c6f77616e63650000006044820152606401610658565b610e348484848403610bae565b50505050565b73ffffffffffffffffffffffffffffffffffffffff8316610edd576040517f08c379a000000000000000000000000000000000000000000000000000000000815260206004820152602560248201527f45524332303a207472616e736665722066726f6d20746865207a65726f20616460448201527f64726573730000000000000000000000000000000000000000000000000000006064820152608401610658565b73ffffffffffffffffffffffffffffffffffffffff8216610f80576040517f08c379a000000000000000000000000000000000000000000000000000000000815260206004820152602360248201527f45524332303a207472616e7366657220746f20746865207a65726f206164647260448201527f65737300000000000000000000000000000000000000000000000000000000006064820152608401610658565b73ffffffffffffffffffffffffffffffffffffffff83166000908152610160602052604090205481811015611037576040517f08c379a000000000000000000000000000000000000000000000000000000000815260206004820152602660248201527f45524332303a207472616e7366657220616d6f756e742065786365656473206260448201527f616c616e636500000000000000000000000000000000000000000000000000006064820152608401610658565b73ffffffffffffffffffffffffffffffffffffffff8085166000818152610160602052604080822086860390559286168082529083902080548601905591517fddf252ad1be2c89b69c2b068fc378daa952ba7f163c4a11628f55a4df523b3ef906110a59086815260200190565b60405180910390a3610e34848484611b1e565b600054610100900460ff1661114f576040517f08c379a000000000000000000000000000000000000000000000000000000000815260206004820152602b60248201527f496e697469616c697a61626c653a20636f6e7472616374206973206e6f74206960448201527f6e697469616c697a696e670000000000000000000000000000000000000000006064820152608401610658565b611157611d7e565b565b600054610100900460ff166111f0576040517f08c379a000000000000000000000000000000000000000000000000000000000815260206004820152602b60248201527f496e697469616c697a61626c653a20636f6e7472616374206973206e6f74206960448201527f6e697469616c697a696e670000000000000000000000000000000000000000006064820152608401610658565b6111fa8282611e1b565b5050565b600054610100900460ff16611295576040517f08c379a000000000000000000000000000000000000000000000000000000000815260206004820152602b60248201527f496e697469616c697a61626c653a20636f6e7472616374206973206e6f74206960448201527f6e697469616c697a696e670000000000000000000000000000000000000000006064820152608401610658565b61129d611ecd565b6112a5611ecd565b6112ad611ecd565b60038110156112eb576040517fb0682cf300000000000000000000000000000000000000000000000000000000815260048101829052602401610658565b6113256040518060600160405280600073ffffffffffffffffffffffffffffffffffffffff16815260200160608152602001606081525090565b60408051606081018252600080825260208201819052918101829052905b84518110156115145784818151811061135e5761135e6142dc565b602002602001015192506000806000856000015173ffffffffffffffffffffffffffffffffffffffff166331a66b65876020015188604001516113b38b60408051600181526020810192909252818101905290565b6040518463ffffffff1660e01b81526004016113d193929190614256565b6060604051808303816000875af11580156113f0573d6000803e3d6000fd5b505050506040513d601f19601f82011682018060405250810190611414919061428f565b92509250925060405180606001604052808473ffffffffffffffffffffffffffffffffffffffff1681526020018373ffffffffffffffffffffffffffffffffffffffff1681526020018273ffffffffffffffffffffffffffffffffffffffff168152509450600161012d600061148b886060902090565b81526020808201929092526040908101600020929092558151338152875173ffffffffffffffffffffffffffffffffffffffff9081168284015291880151821681840152918701511660608201527fed510090abe2a95b97a621e3d2c947ea3c26eced1c87470474d17e353dcc53389060800160405180910390a1505050806001019050611343565b5050505050565b6000815160000361152e57506000919050565b506020015160001a90565b6000806115468484611f64565b5160001a949350505050565b60606000825167ffffffffffffffff811115611570576115706134d9565b604051908082528060200260200182016040528015611599578160200160208202803683370190505b5090506000808451116115ad5760006115b3565b83516001015b855160010101905060008167ffffffffffffffff8111156115d6576115d66134d9565b60405190808252806020026020018201604052801561160957816020015b60608152602001906001900390816115f45790505b509050600061162e604080516002815233602082015230818301526060810190915290565b828281518110611640576116406142dc565b602002602001018190525060005b875181101561169e578180600101925050878181518110611671576116716142dc565b602002602001015183838151811061168b5761168b6142dc565b602090810291909101015260010161164e565b50855115611858578080600101915050838282815181106116c1576116c16142dc565b602002602001018190525060005b8651811015611856576117808782815181106116ed576116ed6142dc565b60200260200101516000015161175d61172a8a8581518110611711576117116142dc565b6020026020010151602001518051602090810291012090565b7f19457468657265756d205369676e6564204d6573736167653a0a3332000000006000908152601c91909152603c902090565b89848151811061176f5761176f6142dc565b602002602001015160400151611f95565b6117b9576040517f52bf984800000000000000000000000000000000000000000000000000000000815260048101829052602401610658565b8681815181106117cb576117cb6142dc565b60200260200101516000015173ffffffffffffffffffffffffffffffffffffffff168582815181106117ff576117ff6142dc565b6020026020010181815250508180600101925050868181518110611825576118256142dc565b602002602001015160200151838381518110611843576118436142dc565b60209081029190910101526001016116cf565b505b5095945050505050565b61186a613383565b606080606060008060008061187f8a8a612010565b60408051808201909152601881527f5241494e5f464c4f575f45524332305f53454e54494e454c0000000000000000602090910152919450925090506118e883837ff339171dab445c29f9897dda2f42413426ee907dc7f8b52bd387bc7cf9384c6b600261216c565b60408051808201909152601881527f5241494e5f464c4f575f45524332305f53454e54494e454c00000000000000006020909101529650869450915061195183837ff339171dab445c29f9897dda2f42413426ee907dc7f8b52bd387bc7cf9384c6b600261216c565b8095508193505050839450604051806060016040528087815260200186815260200161197d8585612218565b90529750955050505050505b9250929050565b606061054183836040518060600160405280602781526020016147696027913961239f565b6119bd613383565b6119c561241a565b60006119e66109938560408051600181526020810192909252818101905290565b90507f17a5c0f3785132a57703932032f6863e7920434150aa1dc940e567b440fdce1f3382604051611a199291906143fd565b60405180910390a1600080611a2e8784611862565b9150915060005b825151811015611a9357611a8b83600001518281518110611a5857611a586142dc565b60200260200101516000015184600001518381518110611a7a57611a7a6142dc565b60200260200101516020015161248d565b600101611a35565b5060005b826020015151811015611af857611af083602001518281518110611abd57611abd6142dc565b60200260200101516000015184602001518381518110611adf57611adf6142dc565b60200260200101516020015161258c565b600101611a97565b50611b0c826040015188602001518361275c565b5091505061054160018055565b505050565b6101925460ff168015611b65575073ffffffffffffffffffffffffffffffffffffffff83161580611b63575073ffffffffffffffffffffffffffffffffffffffff8216155b155b15611b1957604080516060810182526101935473ffffffffffffffffffffffffffffffffffffffff9081168083526101945482166020840181905261019554909216938301849052919260009291636715f825918490611bc490612806565b604080516003815273ffffffffffffffffffffffffffffffffffffffff8c811660208301528b1681830152606081018a905260016080820190815260a08201829052600060c0830181815260e0909301909352611c7692909190611c70565b611c5d6040518060600160405280600073ffffffffffffffffffffffffffffffffffffffff16815260200160608152602001606081525090565b815260200190600190039081611c235790505b50611552565b6040518563ffffffff1660e01b8152600401611c95949392919061442c565b600060405180830381865afa158015611cb2573d6000803e3d6000fd5b505050506040513d6000823e601f3d9081017fffffffffffffffffffffffffffffffffffffffffffffffffffffffffffffffe0168201604052611cf891908101906144c2565b91505060008151111561151457816020015173ffffffffffffffffffffffffffffffffffffffff1663946aadc66000836040518363ffffffff1660e01b8152600401611d45929190614526565b600060405180830381600087803b158015611d5f57600080fd5b505af1158015611d73573d6000803e3d6000fd5b505050505050505050565b600054610100900460ff16611e15576040517f08c379a000000000000000000000000000000000000000000000000000000000815260206004820152602b60248201527f496e697469616c697a61626c653a20636f6e7472616374206973206e6f74206960448201527f6e697469616c697a696e670000000000000000000000000000000000000000006064820152608401610658565b60018055565b600054610100900460ff16611eb2576040517f08c379a000000000000000000000000000000000000000000000000000000000815260206004820152602b60248201527f496e697469616c697a61626c653a20636f6e7472616374206973206e6f74206960448201527f6e697469616c697a696e670000000000000000000000000000000000000000006064820152608401610658565b610163611ebf838261458d565b50610164611b19828261458d565b600054610100900460ff16611157576040517f08c379a000000000000000000000000000000000000000000000000000000000815260206004820152602b60248201527f496e697469616c697a61626c653a20636f6e7472616374206973206e6f74206960448201527f6e697469616c697a696e670000000000000000000000000000000000000000006064820152608401610658565b600080611f708461151b565b60020260010190506000611f84858561282c565b949091019093016020019392505050565b6000806000611fa485856128a4565b90925090506000816004811115611fbd57611fbd6146a7565b148015611ff557508573ffffffffffffffffffffffffffffffffffffffff168273ffffffffffffffffffffffffffffffffffffffff16145b8061200657506120068686866128e6565b9695505050505050565b60008060606000612022866060902090565b600081815261012d602052604090205490915061206e576040517f7a80ba4d00000000000000000000000000000000000000000000000000000000815260048101829052602401610658565b5084516020808701516040880151600093849373ffffffffffffffffffffffffffffffffffffffff90911692636715f8259290918591901b77ffffffffffffffffffffffffffffffffffffffff000000001661ffff178a6040518563ffffffff1660e01b81526004016120e4949392919061442c565b600060405180830381865afa158015612101573d6000803e3d6000fd5b505050506040513d6000823e601f3d9081017fffffffffffffffffffffffffffffffffffffffffffffffffffffffffffffffe016820160405261214791908101906144c2565b915091506121558260200190565b825190986020918202909301019650945092505050565b60008060208302855b87811115612199576020810386815103612190579350612199565b50819003612175565b50826000036121d7576040517fd457746f00000000000000000000000000000000000000000000000000000000815260048101869052602401610658565b604051915060208201602084015b878110156121fd5780825260209091019082016121e5565b50806040526001602084830304038352505094509492505050565b61223c60405180606001604052806060815260200160608152602001606081525090565b60408051808201909152601281527f5241494e5f464c4f575f53454e54494e454c00000000000000000000000000006020909101526060808060006122a487877ffea74d0c9bf4a3c28f0dd0674db22a3d7f8bf259c56af19f4ac1e735b156974f600461216c565b60408051808201909152601281527f5241494e5f464c4f575f53454e54494e454c0000000000000000000000000000602090910152909650935083905061230e87877ffea74d0c9bf4a3c28f0dd0674db22a3d7f8bf259c56af19f4ac1e735b156974f600461216c565b60408051808201909152601281527f5241494e5f464c4f575f53454e54494e454c0000000000000000000000000000602090910152909650925082905061237887877ffea74d0c9bf4a3c28f0dd0674db22a3d7f8bf259c56af19f4ac1e735b156974f600561216c565b60408051606081018252968752602087019590955293850193909352509195945050505050565b60606000808573ffffffffffffffffffffffffffffffffffffffff16856040516123c991906146d6565b600060405180830381855af49150503d8060008114612404576040519150601f19603f3d011682016040523d82523d6000602084013e612409565b606091505b509150915061200686838387612a43565b600260015403612486576040517f08c379a000000000000000000000000000000000000000000000000000000000815260206004820152601f60248201527f5265656e7472616e637947756172643a207265656e7472616e742063616c6c006044820152606401610658565b6002600155565b73ffffffffffffffffffffffffffffffffffffffff821661250a576040517f08c379a000000000000000000000000000000000000000000000000000000000815260206004820152601f60248201527f45524332303a206d696e7420746f20746865207a65726f2061646472657373006044820152606401610658565b80610162600082825461251d9190613ec9565b909155505073ffffffffffffffffffffffffffffffffffffffff8216600081815261016060209081526040808320805486019055518481527fddf252ad1be2c89b69c2b068fc378daa952ba7f163c4a11628f55a4df523b3ef910160405180910390a36111fa60008383611b1e565b73ffffffffffffffffffffffffffffffffffffffff821661262f576040517f08c379a000000000000000000000000000000000000000000000000000000000815260206004820152602160248201527f45524332303a206275726e2066726f6d20746865207a65726f2061646472657360448201527f73000000000000000000000000000000000000000000000000000000000000006064820152608401610658565b73ffffffffffffffffffffffffffffffffffffffff821660009081526101606020526040902054818110156126e6576040517f08c379a000000000000000000000000000000000000000000000000000000000815260206004820152602260248201527f45524332303a206275726e20616d6f756e7420657863656564732062616c616e60448201527f63650000000000000000000000000000000000000000000000000000000000006064820152608401610658565b73ffffffffffffffffffffffffffffffffffffffff8316600081815261016060209081526040808320868603905561016280548790039055518581529192917fddf252ad1be2c89b69c2b068fc378daa952ba7f163c4a11628f55a4df523b3ef910160405180910390a3611b1983600084611b1e565b8051156127eb576040517f946aadc600000000000000000000000000000000000000000000000000000000815273ffffffffffffffffffffffffffffffffffffffff83169063946aadc6906127b8906000908590600401614526565b600060405180830381600087803b1580156127d257600080fd5b505af11580156127e6573d6000803e3d6000fd5b505050505b6127f483612ae3565b6127fd83612c3c565b611b1983612dcd565b6000602082901b77ffffffffffffffffffffffffffffffffffffffff0000000016610447565b6002810282016003015161ffff1660006128458461151b565b8451909150600560028302840101908111806128615750818410155b1561289c5784846040517fd3fc97bd0000000000000000000000000000000000000000000000000000000081526004016106589291906146f2565b505092915050565b60008082516041036128da5760208301516040840151606085015160001a6128ce87828585612f7d565b94509450505050611989565b50600090506002611989565b60008060008573ffffffffffffffffffffffffffffffffffffffff16631626ba7e60e01b868660405160240161291d929190614714565b604080517fffffffffffffffffffffffffffffffffffffffffffffffffffffffffffffffe08184030181529181526020820180517bffffffffffffffffffffffffffffffffffffffffffffffffffffffff167fffffffff000000000000000000000000000000000000000000000000000000009094169390931790925290516129a691906146d6565b600060405180830381855afa9150503d80600081146129e1576040519150601f19603f3d011682016040523d82523d6000602084013e6129e6565b606091505b50915091508180156129fa57506020815110155b8015612006575080517f1626ba7e0000000000000000000000000000000000000000000000000000000090612a38908301602090810190840161472d565b149695505050505050565b60608315612ad9578251600003612ad25773ffffffffffffffffffffffffffffffffffffffff85163b612ad2576040517f08c379a000000000000000000000000000000000000000000000000000000000815260206004820152601d60248201527f416464726573733a2063616c6c20746f206e6f6e2d636f6e74726163740000006044820152606401610658565b508161051a565b61051a838361306c565b6040805160808101825260008082526020820181905291810182905260608101829052905b825151811015611b19578251805182908110612b2657612b266142dc565b602002602001015191503373ffffffffffffffffffffffffffffffffffffffff16826020015173ffffffffffffffffffffffffffffffffffffffff1603612b9d57604082015160608301518351612b989273ffffffffffffffffffffffffffffffffffffffff909116913391906130b0565b612c34565b3073ffffffffffffffffffffffffffffffffffffffff16826020015173ffffffffffffffffffffffffffffffffffffffff1603612c0257604082015160608301518351612b989273ffffffffffffffffffffffffffffffffffffffff9091169161318c565b6040517fa521c60f00000000000000000000000000000000000000000000000000000000815260040160405180910390fd5b600101612b08565b6040805160808101825260008082526020820181905291810182905260608101829052905b826020015151811015611b195782602001518181518110612c8457612c846142dc565b602002602001015191503373ffffffffffffffffffffffffffffffffffffffff16826020015173ffffffffffffffffffffffffffffffffffffffff1614158015612ce85750602082015173ffffffffffffffffffffffffffffffffffffffff163014155b15612d1f576040517f3a5befc500000000000000000000000000000000000000000000000000000000815260040160405180910390fd5b81516020830151604080850151606086015191517f42842e0e00000000000000000000000000000000000000000000000000000000815273ffffffffffffffffffffffffffffffffffffffff9384166004820152908316602482015260448101919091529116906342842e0e90606401600060405180830381600087803b158015612da957600080fd5b505af1158015612dbd573d6000803e3d6000fd5b505060019092019150612c619050565b6040805160a0810182526000808252602082018190529181018290526060810182905260808101829052905b826040015151811015611b195782604001518181518110612e1c57612e1c6142dc565b602002602001015191503373ffffffffffffffffffffffffffffffffffffffff16826020015173ffffffffffffffffffffffffffffffffffffffff1614158015612e805750602082015173ffffffffffffffffffffffffffffffffffffffff163014155b15612eb7576040517fc6a91ecc00000000000000000000000000000000000000000000000000000000815260040160405180910390fd5b815160208301516040808501516060860151608087015192517ff242432a00000000000000000000000000000000000000000000000000000000815273ffffffffffffffffffffffffffffffffffffffff948516600482015291841660248301526044820152606481019190915260a06084820152600060a482015291169063f242432a9060c401600060405180830381600087803b158015612f5957600080fd5b505af1158015612f6d573d6000803e3d6000fd5b505060019092019150612df99050565b6000807f7fffffffffffffffffffffffffffffff5d576e7357a4501ddfe92f46681b20a0831115612fb45750600090506003613063565b6040805160008082526020820180845289905260ff881692820192909252606081018690526080810185905260019060a0016020604051602081039080840390855afa158015613008573d6000803e3d6000fd5b50506040517fffffffffffffffffffffffffffffffffffffffffffffffffffffffffffffffe0015191505073ffffffffffffffffffffffffffffffffffffffff811661305c57600060019250925050613063565b9150600090505b94509492505050565b81511561307c5781518083602001fd5b806040517f08c379a00000000000000000000000000000000000000000000000000000000081526004016106589190613475565b60405173ffffffffffffffffffffffffffffffffffffffff80851660248301528316604482015260648101829052610e349085907f23b872dd00000000000000000000000000000000000000000000000000000000906084015b604080517fffffffffffffffffffffffffffffffffffffffffffffffffffffffffffffffe08184030181529190526020810180517bffffffffffffffffffffffffffffffffffffffffffffffffffffffff167fffffffff00000000000000000000000000000000000000000000000000000000909316929092179091526131e2565b60405173ffffffffffffffffffffffffffffffffffffffff8316602482015260448101829052611b199084907fa9059cbb000000000000000000000000000000000000000000000000000000009060640161310a565b6000613244826040518060400160405280602081526020017f5361666545524332303a206c6f772d6c6576656c2063616c6c206661696c65648152508573ffffffffffffffffffffffffffffffffffffffff166132f19092919063ffffffff16565b90508051600014806132655750808060200190518101906132659190614746565b611b19576040517f08c379a000000000000000000000000000000000000000000000000000000000815260206004820152602a60248201527f5361666545524332303a204552433230206f7065726174696f6e20646964206e60448201527f6f742073756363656564000000000000000000000000000000000000000000006064820152608401610658565b606061051a8484600085856000808673ffffffffffffffffffffffffffffffffffffffff16858760405161332591906146d6565b60006040518083038185875af1925050503d8060008114613362576040519150601f19603f3d011682016040523d82523d6000602084013e613367565b606091505b509150915061337887838387612a43565b979650505050505050565b604051806060016040528060608152602001606081526020016133c060405180606001604052806060815260200160608152602001606081525090565b905290565b6000602082840312156133d757600080fd5b81357fffffffff000000000000000000000000000000000000000000000000000000008116811461054157600080fd5b60005b8381101561342257818101518382015260200161340a565b50506000910152565b60008151808452613443816020860160208601613407565b601f017fffffffffffffffffffffffffffffffffffffffffffffffffffffffffffffffe0169290920160200192915050565b602081526000610541602083018461342b565b73ffffffffffffffffffffffffffffffffffffffff811681146134aa57600080fd5b50565b600080604083850312156134c057600080fd5b82356134cb81613488565b946020939093013593505050565b7f4e487b7100000000000000000000000000000000000000000000000000000000600052604160045260246000fd5b6040516060810167ffffffffffffffff8111828210171561352b5761352b6134d9565b60405290565b6040516080810167ffffffffffffffff8111828210171561352b5761352b6134d9565b604051601f82017fffffffffffffffffffffffffffffffffffffffffffffffffffffffffffffffe016810167ffffffffffffffff8111828210171561359b5761359b6134d9565b604052919050565b600082601f8301126135b457600080fd5b813567ffffffffffffffff8111156135ce576135ce6134d9565b6135ff60207fffffffffffffffffffffffffffffffffffffffffffffffffffffffffffffffe0601f84011601613554565b81815284602083860101111561361457600080fd5b816020850160208301376000918101602001919091529392505050565b6000806000806080858703121561364757600080fd5b843561365281613488565b9350602085013561366281613488565b925060408501359150606085013567ffffffffffffffff81111561368557600080fd5b613691878288016135a3565b91505092959194509250565b6000806000606084860312156136b257600080fd5b83356136bd81613488565b925060208401356136cd81613488565b929592945050506040919091013590565b600080602083850312156136f157600080fd5b823567ffffffffffffffff8082111561370957600080fd5b818501915085601f83011261371d57600080fd5b81358181111561372c57600080fd5b86602082850101111561373e57600080fd5b60209290920196919550909350505050565b60006020828403121561376257600080fd5b813561054181613488565b600067ffffffffffffffff821115613787576137876134d9565b5060051b60200190565b600082601f8301126137a257600080fd5b813560206137b76137b28361376d565b613554565b82815260059290921b840181019181810190868411156137d657600080fd5b8286015b848110156109a757803583529183019183016137da565b600080600083850360a081121561380757600080fd5b606081121561381557600080fd5b5061381e613508565b843561382981613488565b815260208581013561383a81613488565b82820152604086013561384c81613488565b604083015290935060608501359067ffffffffffffffff8083111561387057600080fd5b61387c88848901613791565b9450608087013592508083111561389257600080fd5b828701925087601f8401126138a657600080fd5b82356138b46137b28261376d565b81815260059190911b8401830190838101908a8311156138d357600080fd5b8486015b83811015613996578035858111156138ef5760008081fd5b87016060818e037fffffffffffffffffffffffffffffffffffffffffffffffffffffffffffffffe00112156139245760008081fd5b61392c613508565b8782013561393981613488565b815260408201358781111561394e5760008081fd5b61395c8f8a83860101613791565b89830152506060820135878111156139745760008081fd5b6139828f8a838601016135a3565b6040830152508452509185019185016138d7565b508096505050505050509250925092565b600081518084526020808501945080840160005b838110156139f8578151805173ffffffffffffffffffffffffffffffffffffffff16885283015183880152604090960195908201906001016139bb565b509495945050505050565b600081518084526020808501945080840160005b838110156139f8578151805173ffffffffffffffffffffffffffffffffffffffff9081168952848201518116858a015260408083015190911690890152606080820151908901526080908101519088015260a09096019590820190600101613a17565b6000602080835260808451606083860152613a97828601826139a7565b9050828601517fffffffffffffffffffffffffffffffffffffffffffffffffffffffffffffffe080878403016040880152613ad283836139a7565b92506040880151915080878403016060880152506060820181516060845281815180845286860191508783019350600092505b80831015613b6957613b5582855173ffffffffffffffffffffffffffffffffffffffff80825116835280602083015116602084015280604083015116604084015250606081015160608301525050565b928701926001929092019190860190613b05565b5083870151858203868901528051808352908801935090870191506000905b80821015613bec57613bd883855173ffffffffffffffffffffffffffffffffffffffff80825116835280602083015116602084015280604083015116604084015250606081015160608301525050565b928701929186019160019190910190613b88565b5050604083015195508381036040850152613c078187613a03565b9998505050505050505050565b60008060208385031215613c2757600080fd5b823567ffffffffffffffff80821115613c3f57600080fd5b818501915085601f830112613c5357600080fd5b813581811115613c6257600080fd5b8660208260051b850101111561373e57600080fd5b6000602080830181845280855180835260408601915060408160051b870101925083870160005b82811015613cea577fffffffffffffffffffffffffffffffffffffffffffffffffffffffffffffffc0888603018452613cd885835161342b565b94509285019290850190600101613c9e565b5092979650505050505050565b600080600080600060a08688031215613d0f57600080fd5b8535613d1a81613488565b94506020860135613d2a81613488565b9350604086013567ffffffffffffffff80821115613d4757600080fd5b613d5389838a01613791565b94506060880135915080821115613d6957600080fd5b613d7589838a01613791565b93506080880135915080821115613d8b57600080fd5b50613d98888289016135a3565b9150509295509295909350565b60008060408385031215613db857600080fd5b8235613dc381613488565b91506020830135613dd381613488565b809150509250929050565b600080600080600060a08688031215613df657600080fd5b8535613e0181613488565b94506020860135613e1181613488565b93506040860135925060608601359150608086013567ffffffffffffffff811115613e3b57600080fd5b613d98888289016135a3565b600181811c90821680613e5b57607f821691505b602082108103613e94577f4e487b7100000000000000000000000000000000000000000000000000000000600052602260045260246000fd5b50919050565b7f4e487b7100000000000000000000000000000000000000000000000000000000600052601160045260246000fd5b8082018082111561044757610447613e9a565b600060608284031215613eee57600080fd5b613ef6613508565b90508135613f0381613488565b8152602082013567ffffffffffffffff80821115613f2057600080fd5b613f2c858386016135a3565b60208401526040840135915080821115613f4557600080fd5b50613f5284828501613791565b60408301525092915050565b600082601f830112613f6f57600080fd5b81356020613f7f6137b28361376d565b82815260059290921b84018101918181019086841115613f9e57600080fd5b8286015b848110156109a757803567ffffffffffffffff811115613fc25760008081fd5b613fd08986838b0101613edc565b845250918301918301613fa2565b600060208284031215613ff057600080fd5b813567ffffffffffffffff8082111561400857600080fd5b908301906080828603121561401c57600080fd5b614024613531565b82358281111561403357600080fd5b61403f878286016135a3565b82525060208301358281111561405457600080fd5b614060878286016135a3565b60208301525060408301358281111561407857600080fd5b61408487828601613edc565b60408301525060608301358281111561409c57600080fd5b6140a887828601613f5e565b60608301525095945050505050565b600081518084526020808501945080840160005b838110156139f8578151875295820195908201906001016140cb565b73ffffffffffffffffffffffffffffffffffffffff8151168252600060208201516060602085015261411c606085018261342b565b90506040830151848203604086015261413582826140b7565b95945050505050565b73ffffffffffffffffffffffffffffffffffffffff831681526000602060408184015283516080604085015261417760c085018261342b565b9050818501517fffffffffffffffffffffffffffffffffffffffffffffffffffffffffffffffc0808684030160608701526141b2838361342b565b925060408701519150808684030160808701526141cf83836140e7565b606088015187820390920160a08801528151808252909350908401915083830190600581901b8401850160005b82811015614248577fffffffffffffffffffffffffffffffffffffffffffffffffffffffffffffffe08683030184526142368286516140e7565b948701949387019391506001016141fc565b509998505050505050505050565b606081526000614269606083018661342b565b828103602084015261427b81866140b7565b9050828103604084015261200681856140b7565b6000806000606084860312156142a457600080fd5b83516142af81613488565b60208501519093506142c081613488565b60408501519092506142d181613488565b809150509250925092565b7f4e487b7100000000000000000000000000000000000000000000000000000000600052603260045260246000fd5b60008083357fffffffffffffffffffffffffffffffffffffffffffffffffffffffffffffffe184360301811261434057600080fd5b83018035915067ffffffffffffffff82111561435b57600080fd5b60200191503681900382131561198957600080fd5b60007fffffffffffffffffffffffffffffffffffffffffffffffffffffffffffffffff82036143a1576143a1613e9a565b5060010190565b600081518084526020808501808196508360051b8101915082860160005b858110156143f05782840389526143de8483516140b7565b988501989350908401906001016143c6565b5091979650505050505050565b73ffffffffffffffffffffffffffffffffffffffff8316815260406020820152600061051a60408301846143a8565b73ffffffffffffffffffffffffffffffffffffffff8516815283602082015282604082015260806060820152600061200660808301846143a8565b600082601f83011261447857600080fd5b815160206144886137b28361376d565b82815260059290921b840181019181810190868411156144a757600080fd5b8286015b848110156109a757805183529183019183016144ab565b600080604083850312156144d557600080fd5b825167ffffffffffffffff808211156144ed57600080fd5b6144f986838701614467565b9350602085015191508082111561450f57600080fd5b5061451c85828601614467565b9150509250929050565b82815260406020820152600061051a60408301846140b7565b601f821115611b1957600081815260208120601f850160051c810160208610156145665750805b601f850160051c820191505b8181101561458557828155600101614572565b505050505050565b815167ffffffffffffffff8111156145a7576145a76134d9565b6145bb816145b58454613e47565b8461453f565b602080601f83116001811461460e57600084156145d85750858301515b7fffffffffffffffffffffffffffffffffffffffffffffffffffffffffffffffff600386901b1c1916600185901b178555614585565b6000858152602081207fffffffffffffffffffffffffffffffffffffffffffffffffffffffffffffffe08616915b8281101561465b5788860151825594840194600190910190840161463c565b508582101561469757878501517fffffffffffffffffffffffffffffffffffffffffffffffffffffffffffffffff600388901b60f8161c191681555b5050505050600190811b01905550565b7f4e487b7100000000000000000000000000000000000000000000000000000000600052602160045260246000fd5b600082516146e8818460208701613407565b9190910192915050565b604081526000614705604083018561342b565b90508260208301529392505050565b82815260406020820152600061051a604083018461342b565b60006020828403121561473f57600080fd5b5051919050565b60006020828403121561475857600080fd5b8151801515811461054157600080fdfe416464726573733a206c6f772d6c6576656c2064656c65676174652063616c6c206661696c6564",
    "linkReferences": {}
  },
  "methodIdentifiers": {
    "allowance(address,address)": "dd62ed3e",
    "approve(address,uint256)": "095ea7b3",
    "balanceOf(address)": "70a08231",
    "decimals()": "313ce567",
    "decreaseAllowance(address,uint256)": "a457c2d7",
    "flow((address,address,address),uint256[],(address,uint256[],bytes)[])": "f83d765a",
    "increaseAllowance(address,uint256)": "39509351",
    "initialize(bytes)": "439fab91",
    "multicall(bytes[])": "ac9650d8",
    "name()": "06fdde03",
    "onERC1155BatchReceived(address,address,uint256[],uint256[],bytes)": "bc197c81",
    "onERC1155Received(address,address,uint256,uint256,bytes)": "f23a6e61",
    "onERC721Received(address,address,uint256,bytes)": "150b7a02",
    "previewFlow((address,address,address),uint256[],(address,uint256[],bytes)[])": "90bcad69",
    "supportsInterface(bytes4)": "01ffc9a7",
    "symbol()": "95d89b41",
    "totalSupply()": "18160ddd",
    "transfer(address,uint256)": "a9059cbb",
    "transferFrom(address,address,uint256)": "23b872dd"
  },
  "id": 68
}