{
  "abi": [
    {
      "inputs": [
        {
          "components": [
            {
              "internalType": "address",
              "name": "deployer",
              "type": "address"
            },
            {
              "internalType": "bytes",
              "name": "meta",
              "type": "bytes"
            }
          ],
          "internalType": "struct DeployerDiscoverableMetaV2ConstructionConfig",
          "name": "config",
          "type": "tuple"
        }
      ],
      "stateMutability": "nonpayable",
      "type": "constructor"
    },
    {
      "inputs": [
        {
          "internalType": "uint256",
          "name": "flowMinOutputs",
          "type": "uint256"
        }
      ],
      "name": "BadMinStackLength",
      "type": "error"
    },
    {
      "inputs": [],
      "name": "InitializeSignatureFn",
      "type": "error"
    },
    {
      "inputs": [
        {
          "internalType": "uint256",
          "name": "i",
          "type": "uint256"
        }
      ],
      "name": "InvalidSignature",
      "type": "error"
    },
    {
      "inputs": [
        {
          "internalType": "Sentinel",
          "name": "sentinel",
          "type": "uint256"
        }
      ],
      "name": "MissingSentinel",
      "type": "error"
    },
    {
      "inputs": [
        {
          "internalType": "bytes",
          "name": "unmeta",
          "type": "bytes"
        }
      ],
      "name": "NotRainMetaV1",
      "type": "error"
    },
    {
      "inputs": [
        {
          "internalType": "bytes32",
          "name": "expectedHash",
          "type": "bytes32"
        },
        {
          "internalType": "bytes32",
          "name": "actualHash",
          "type": "bytes32"
        }
      ],
      "name": "UnexpectedMetaHash",
      "type": "error"
    },
    {
      "inputs": [
        {
          "internalType": "bytes32",
          "name": "unregisteredHash",
          "type": "bytes32"
        }
      ],
      "name": "UnregisteredFlow",
      "type": "error"
    },
    {
      "inputs": [],
      "name": "UnsupportedERC1155Flow",
      "type": "error"
    },
    {
      "inputs": [],
      "name": "UnsupportedERC20Flow",
      "type": "error"
    },
    {
      "inputs": [],
      "name": "UnsupportedERC721Flow",
      "type": "error"
    },
    {
      "anonymous": false,
      "inputs": [
        {
          "indexed": false,
          "internalType": "address",
          "name": "sender",
          "type": "address"
        },
        {
          "indexed": false,
          "internalType": "uint256[][]",
          "name": "context",
          "type": "uint256[][]"
        }
      ],
      "name": "Context",
      "type": "event"
    },
    {
      "anonymous": false,
      "inputs": [
        {
          "indexed": false,
          "internalType": "address",
          "name": "sender",
          "type": "address"
        },
        {
          "components": [
            {
              "internalType": "contract IInterpreterV1",
              "name": "interpreter",
              "type": "address"
            },
            {
              "internalType": "contract IInterpreterStoreV1",
              "name": "store",
              "type": "address"
            },
            {
              "internalType": "address",
              "name": "expression",
              "type": "address"
            }
          ],
          "indexed": false,
          "internalType": "struct Evaluable",
          "name": "evaluable",
          "type": "tuple"
        }
      ],
      "name": "FlowInitialized",
      "type": "event"
    },
    {
      "anonymous": false,
      "inputs": [
        {
          "indexed": false,
          "internalType": "address",
          "name": "sender",
          "type": "address"
        },
        {
          "components": [
            {
              "components": [
                {
                  "internalType": "contract IExpressionDeployerV2",
                  "name": "deployer",
                  "type": "address"
                },
                {
                  "internalType": "bytes",
                  "name": "bytecode",
                  "type": "bytes"
                },
                {
                  "internalType": "uint256[]",
                  "name": "constants",
                  "type": "uint256[]"
                }
              ],
              "internalType": "struct EvaluableConfigV2",
              "name": "dummyConfig",
              "type": "tuple"
            },
            {
              "components": [
                {
                  "internalType": "contract IExpressionDeployerV2",
                  "name": "deployer",
                  "type": "address"
                },
                {
                  "internalType": "bytes",
                  "name": "bytecode",
                  "type": "bytes"
                },
                {
                  "internalType": "uint256[]",
                  "name": "constants",
                  "type": "uint256[]"
                }
              ],
              "internalType": "struct EvaluableConfigV2[]",
              "name": "config",
              "type": "tuple[]"
            }
          ],
          "indexed": false,
          "internalType": "struct FlowConfigV2",
          "name": "config",
          "type": "tuple"
        }
      ],
      "name": "Initialize",
      "type": "event"
    },
    {
      "anonymous": false,
      "inputs": [
        {
          "indexed": false,
          "internalType": "uint8",
          "name": "version",
          "type": "uint8"
        }
      ],
      "name": "Initialized",
      "type": "event"
    },
    {
      "anonymous": false,
      "inputs": [
        {
          "indexed": false,
          "internalType": "address",
          "name": "sender",
          "type": "address"
        },
        {
          "indexed": false,
          "internalType": "uint256",
          "name": "subject",
          "type": "uint256"
        },
        {
          "indexed": false,
          "internalType": "bytes",
          "name": "meta",
          "type": "bytes"
        }
      ],
      "name": "MetaV1",
      "type": "event"
    },
    {
      "inputs": [
        {
          "components": [
            {
              "internalType": "contract IInterpreterV1",
              "name": "interpreter",
              "type": "address"
            },
            {
              "internalType": "contract IInterpreterStoreV1",
              "name": "store",
              "type": "address"
            },
            {
              "internalType": "address",
              "name": "expression",
              "type": "address"
            }
          ],
          "internalType": "struct Evaluable",
          "name": "evaluable_",
          "type": "tuple"
        },
        {
          "internalType": "uint256[]",
          "name": "callerContext_",
          "type": "uint256[]"
        },
        {
          "components": [
            {
              "internalType": "address",
              "name": "signer",
              "type": "address"
            },
            {
              "internalType": "uint256[]",
              "name": "context",
              "type": "uint256[]"
            },
            {
              "internalType": "bytes",
              "name": "signature",
              "type": "bytes"
            }
          ],
          "internalType": "struct SignedContextV1[]",
          "name": "signedContexts_",
          "type": "tuple[]"
        }
      ],
      "name": "flow",
      "outputs": [
        {
          "components": [
            {
              "components": [
                {
                  "internalType": "address",
                  "name": "token",
                  "type": "address"
                },
                {
                  "internalType": "address",
                  "name": "from",
                  "type": "address"
                },
                {
                  "internalType": "address",
                  "name": "to",
                  "type": "address"
                },
                {
                  "internalType": "uint256",
                  "name": "amount",
                  "type": "uint256"
                }
              ],
              "internalType": "struct ERC20Transfer[]",
              "name": "erc20",
              "type": "tuple[]"
            },
            {
              "components": [
                {
                  "internalType": "address",
                  "name": "token",
                  "type": "address"
                },
                {
                  "internalType": "address",
                  "name": "from",
                  "type": "address"
                },
                {
                  "internalType": "address",
                  "name": "to",
                  "type": "address"
                },
                {
                  "internalType": "uint256",
                  "name": "id",
                  "type": "uint256"
                }
              ],
              "internalType": "struct ERC721Transfer[]",
              "name": "erc721",
              "type": "tuple[]"
            },
            {
              "components": [
                {
                  "internalType": "address",
                  "name": "token",
                  "type": "address"
                },
                {
                  "internalType": "address",
                  "name": "from",
                  "type": "address"
                },
                {
                  "internalType": "address",
                  "name": "to",
                  "type": "address"
                },
                {
                  "internalType": "uint256",
                  "name": "id",
                  "type": "uint256"
                },
                {
                  "internalType": "uint256",
                  "name": "amount",
                  "type": "uint256"
                }
              ],
              "internalType": "struct ERC1155Transfer[]",
              "name": "erc1155",
              "type": "tuple[]"
            }
          ],
          "internalType": "struct FlowTransferV1",
          "name": "",
          "type": "tuple"
        }
      ],
      "stateMutability": "nonpayable",
      "type": "function"
    },
    {
      "inputs": [
        {
          "internalType": "bytes",
          "name": "data",
          "type": "bytes"
        }
      ],
      "name": "initialize",
      "outputs": [
        {
          "internalType": "bytes32",
          "name": "",
          "type": "bytes32"
        }
      ],
      "stateMutability": "nonpayable",
      "type": "function"
    },
    {
      "inputs": [
        {
          "internalType": "bytes[]",
          "name": "data",
          "type": "bytes[]"
        }
      ],
      "name": "multicall",
      "outputs": [
        {
          "internalType": "bytes[]",
          "name": "results",
          "type": "bytes[]"
        }
      ],
      "stateMutability": "nonpayable",
      "type": "function"
    },
    {
      "inputs": [
        {
          "internalType": "address",
          "name": "",
          "type": "address"
        },
        {
          "internalType": "address",
          "name": "",
          "type": "address"
        },
        {
          "internalType": "uint256[]",
          "name": "",
          "type": "uint256[]"
        },
        {
          "internalType": "uint256[]",
          "name": "",
          "type": "uint256[]"
        },
        {
          "internalType": "bytes",
          "name": "",
          "type": "bytes"
        }
      ],
      "name": "onERC1155BatchReceived",
      "outputs": [
        {
          "internalType": "bytes4",
          "name": "",
          "type": "bytes4"
        }
      ],
      "stateMutability": "nonpayable",
      "type": "function"
    },
    {
      "inputs": [
        {
          "internalType": "address",
          "name": "",
          "type": "address"
        },
        {
          "internalType": "address",
          "name": "",
          "type": "address"
        },
        {
          "internalType": "uint256",
          "name": "",
          "type": "uint256"
        },
        {
          "internalType": "uint256",
          "name": "",
          "type": "uint256"
        },
        {
          "internalType": "bytes",
          "name": "",
          "type": "bytes"
        }
      ],
      "name": "onERC1155Received",
      "outputs": [
        {
          "internalType": "bytes4",
          "name": "",
          "type": "bytes4"
        }
      ],
      "stateMutability": "nonpayable",
      "type": "function"
    },
    {
      "inputs": [
        {
          "internalType": "address",
          "name": "",
          "type": "address"
        },
        {
          "internalType": "address",
          "name": "",
          "type": "address"
        },
        {
          "internalType": "uint256",
          "name": "",
          "type": "uint256"
        },
        {
          "internalType": "bytes",
          "name": "",
          "type": "bytes"
        }
      ],
      "name": "onERC721Received",
      "outputs": [
        {
          "internalType": "bytes4",
          "name": "",
          "type": "bytes4"
        }
      ],
      "stateMutability": "nonpayable",
      "type": "function"
    },
    {
      "inputs": [
        {
          "components": [
            {
              "internalType": "contract IInterpreterV1",
              "name": "interpreter",
              "type": "address"
            },
            {
              "internalType": "contract IInterpreterStoreV1",
              "name": "store",
              "type": "address"
            },
            {
              "internalType": "address",
              "name": "expression",
              "type": "address"
            }
          ],
          "internalType": "struct Evaluable",
          "name": "evaluable_",
          "type": "tuple"
        },
        {
          "internalType": "uint256[]",
          "name": "callerContext_",
          "type": "uint256[]"
        },
        {
          "components": [
            {
              "internalType": "address",
              "name": "signer",
              "type": "address"
            },
            {
              "internalType": "uint256[]",
              "name": "context",
              "type": "uint256[]"
            },
            {
              "internalType": "bytes",
              "name": "signature",
              "type": "bytes"
            }
          ],
          "internalType": "struct SignedContextV1[]",
          "name": "signedContexts_",
          "type": "tuple[]"
        }
      ],
      "name": "previewFlow",
      "outputs": [
        {
          "components": [
            {
              "components": [
                {
                  "internalType": "address",
                  "name": "token",
                  "type": "address"
                },
                {
                  "internalType": "address",
                  "name": "from",
                  "type": "address"
                },
                {
                  "internalType": "address",
                  "name": "to",
                  "type": "address"
                },
                {
                  "internalType": "uint256",
                  "name": "amount",
                  "type": "uint256"
                }
              ],
              "internalType": "struct ERC20Transfer[]",
              "name": "erc20",
              "type": "tuple[]"
            },
            {
              "components": [
                {
                  "internalType": "address",
                  "name": "token",
                  "type": "address"
                },
                {
                  "internalType": "address",
                  "name": "from",
                  "type": "address"
                },
                {
                  "internalType": "address",
                  "name": "to",
                  "type": "address"
                },
                {
                  "internalType": "uint256",
                  "name": "id",
                  "type": "uint256"
                }
              ],
              "internalType": "struct ERC721Transfer[]",
              "name": "erc721",
              "type": "tuple[]"
            },
            {
              "components": [
                {
                  "internalType": "address",
                  "name": "token",
                  "type": "address"
                },
                {
                  "internalType": "address",
                  "name": "from",
                  "type": "address"
                },
                {
                  "internalType": "address",
                  "name": "to",
                  "type": "address"
                },
                {
                  "internalType": "uint256",
                  "name": "id",
                  "type": "uint256"
                },
                {
                  "internalType": "uint256",
                  "name": "amount",
                  "type": "uint256"
                }
              ],
              "internalType": "struct ERC1155Transfer[]",
              "name": "erc1155",
              "type": "tuple[]"
            }
          ],
          "internalType": "struct FlowTransferV1",
          "name": "",
          "type": "tuple"
        }
      ],
      "stateMutability": "view",
      "type": "function"
    },
    {
      "inputs": [
        {
          "internalType": "bytes4",
          "name": "interfaceId",
          "type": "bytes4"
        }
      ],
      "name": "supportsInterface",
      "outputs": [
        {
          "internalType": "bool",
          "name": "",
          "type": "bool"
        }
      ],
      "stateMutability": "view",
      "type": "function"
    }
  ],
  "bytecode": {
    "object": "0x60806040523480156200001157600080fd5b506040516200342d3803806200342d833981016040819052620000349162000383565b600160005560208101517f95de68a447a477b8fab10701f1265b3e85a98b24710b3e40e6a96aa6d76263bc9082908290829062000073908390620000d7565b60208101516040517fbea766d03fa1efd3f81cc8634d08320bc62bb0ed9234ac59bbaafa5893fb6b1391620000ac913391309162000491565b60405180910390a18051620000c1906200011e565b50620000ce9050620001b5565b505050620005a7565b805160208201208281146200010e5760405163074fe10f60e41b815260048101849052602481018290526044015b60405180910390fd5b620001198262000273565b505050565b60408051600080825260208201818152828401938490526331a66b6560e01b90935291829182916001600160a01b038616916331a66b65916200016691906044820162000500565b6060604051808303816000875af115801562000186573d6000803e3d6000fd5b505050506040513d601f19601f82011682018060405250810190620001ac919062000537565b50505050505050565b600154610100900460ff16156200021f5760405162461bcd60e51b815260206004820152602760248201527f496e697469616c697a61626c653a20636f6e747261637420697320696e697469604482015266616c697a696e6760c81b606482015260840162000105565b60015460ff9081161462000271576001805460ff191660ff9081179091556040519081527f7f26b83ff96e1f2b6a682f133852f6798a09c465da95921460cefb38474024989060200160405180910390a15b565b6200027e81620002a3565b620002a05780604051630c89984b60e31b81526004016200010591906200058b565b50565b6000600882511015620002b857506000919050565b50600801516001600160401b031667ff0a89c674ee78741490565b634e487b7160e01b600052604160045260246000fd5b604080519081016001600160401b03811182821017156200030e576200030e620002d3565b60405290565b604051601f8201601f191681016001600160401b03811182821017156200033f576200033f620002d3565b604052919050565b6001600160a01b0381168114620002a057600080fd5b60005b838110156200037a57818101518382015260200162000360565b50506000910152565b600060208083850312156200039757600080fd5b82516001600160401b0380821115620003af57600080fd5b9084019060408287031215620003c457600080fd5b620003ce620002e9565b8251620003db8162000347565b81528284015182811115620003ef57600080fd5b80840193505086601f8401126200040557600080fd5b8251828111156200041a576200041a620002d3565b6200042e601f8201601f1916860162000314565b925080835287858286010111156200044557600080fd5b62000456818685018787016200035d565b5092830152509392505050565b600081518084526200047d8160208601602086016200035d565b601f01601f19169290920160200192915050565b60018060a01b0384168152826020820152606060408201526000620004ba606083018462000463565b95945050505050565b600081518084526020808501945080840160005b83811015620004f557815187529582019590820190600101620004d7565b509495945050505050565b6060815260006060820152608060208201526000620005236080830185620004c3565b8281036040840152620004ba8185620004c3565b6000806000606084860312156200054d57600080fd5b83516200055a8162000347565b60208501519093506200056d8162000347565b6040850151909250620005808162000347565b809150509250925092565b602081526000620005a0602083018462000463565b9392505050565b612e7680620005b76000396000f3fe608060405234801561001057600080fd5b50600436106100885760003560e01c8063ac9650d81161005b578063ac9650d81461013a578063bc197c811461015a578063f23a6e6114610192578063f83d765a146101ca57600080fd5b806301ffc9a71461008d578063150b7a02146100b5578063439fab91146100f957806390bcad691461011a575b600080fd5b6100a061009b366004611e7e565b6101dd565b60405190151581526020015b60405180910390f35b6100c86100c336600461203d565b610276565b6040517fffffffff0000000000000000000000000000000000000000000000000000000090911681526020016100ac565b61010c6101073660046120a9565b6102a0565b6040519081526020016100ac565b61012d6101283660046121aa565b6104ac565b6040516100ac91906123e2565b61014d610148366004612540565b610512565b6040516100ac9190612611565b6100c8610168366004612691565b7fbc197c810000000000000000000000000000000000000000000000000000000095945050505050565b6100c86101a036600461273f565b7ff23a6e610000000000000000000000000000000000000000000000000000000095945050505050565b61012d6101d83660046121aa565b610600565b60007fffffffff0000000000000000000000000000000000000000000000000000000082167f4e2312e000000000000000000000000000000000000000000000000000000000148061027057507f01ffc9a7000000000000000000000000000000000000000000000000000000007fffffffff000000000000000000000000000000000000000000000000000000008316145b92915050565b7f150b7a02000000000000000000000000000000000000000000000000000000005b949350505050565b600154600090610100900460ff16158080156102c057506001805460ff16105b806102d95750303b1580156102d957506001805460ff16145b61036a576040517f08c379a000000000000000000000000000000000000000000000000000000000815260206004820152602e60248201527f496e697469616c697a61626c653a20636f6e747261637420697320616c72656160448201527f647920696e697469616c697a656400000000000000000000000000000000000060648201526084015b60405180910390fd5b600180547fffffffffffffffffffffffffffffffffffffffffffffffffffffffffffffff00168117905580156103c757600180547fffffffffffffffffffffffffffffffffffffffffffffffffffffffffffff00ff166101001790555b60006103d58486018661282a565b90507fe6eab86ee2ac0cad9eb4981cf3758e39f69371d3e6dd135aaa668008c5acd3b933826040516104089291906129b4565b60405180910390a161041f816020015160036106b6565b7fe0e57eda3f08f2a93bbe980d3df7f9c315eac41181f58b865a13d917fe769fc392505080156104a557600180547fffffffffffffffffffffffffffffffffffffffffffffffffffffffffffff00ff1681556040519081527f7f26b83ff96e1f2b6a682f133852f6798a09c465da95921460cefb38474024989060200160405180910390a15b5092915050565b6104d060405180606001604052806060815260200160608152602001606081525090565b60006104f76104f18560408051600181526020810192909252818101905290565b846109d2565b905060006105058683610ce2565b50925050505b9392505050565b60608167ffffffffffffffff81111561052d5761052d611ee5565b60405190808252806020026020018201604052801561056057816020015b606081526020019060019003908161054b5790505b50905060005b828110156104a5576105d03085858481811061058457610584612a8f565b90506020028101906105969190612abe565b8080601f016020809104026020016040519081016040528093929190818152602001838380828437600092019190915250610d3592505050565b8282815181106105e2576105e2612a8f565b602002602001018190525080806105f890612b23565b915050610566565b61062460405180606001604052806060815260200160608152602001606081525090565b61062c610d5a565b600061064d6104f18560408051600181526020810192909252818101905290565b90507f17a5c0f3785132a57703932032f6863e7920434150aa1dc940e567b440fdce1f3382604051610680929190612bd4565b60405180910390a16000806106958784610ce2565b915091506106a882886020015183610dcd565b5091505061050b6001600055565b600154610100900460ff1661074d576040517f08c379a000000000000000000000000000000000000000000000000000000000815260206004820152602b60248201527f496e697469616c697a61626c653a20636f6e7472616374206973206e6f74206960448201527f6e697469616c697a696e670000000000000000000000000000000000000000006064820152608401610361565b610755610e7c565b61075d610e7c565b610765610e7c565b60038110156107a3576040517fb0682cf300000000000000000000000000000000000000000000000000000000815260048101829052602401610361565b6107dd6040518060600160405280600073ffffffffffffffffffffffffffffffffffffffff16815260200160608152602001606081525090565b60408051606081018252600080825260208201819052918101829052905b84518110156109cb5784818151811061081657610816612a8f565b602002602001015192506000806000856000015173ffffffffffffffffffffffffffffffffffffffff166331a66b658760200151886040015161086b8b60408051600181526020810192909252818101905290565b6040518463ffffffff1660e01b815260040161088993929190612c03565b6060604051808303816000875af11580156108a8573d6000803e3d6000fd5b505050506040513d601f19601f820116820180604052508101906108cc9190612c3c565b92509250925060405180606001604052808473ffffffffffffffffffffffffffffffffffffffff1681526020018373ffffffffffffffffffffffffffffffffffffffff1681526020018273ffffffffffffffffffffffffffffffffffffffff168152509450600160fc6000610942886060902090565b81526020808201929092526040908101600020929092558151338152875173ffffffffffffffffffffffffffffffffffffffff9081168284015291880151821681840152918701511660608201527fed510090abe2a95b97a621e3d2c947ea3c26eced1c87470474d17e353dcc53389060800160405180910390a15050508060010190506107fb565b5050505050565b60606000825167ffffffffffffffff8111156109f0576109f0611ee5565b604051908082528060200260200182016040528015610a19578160200160208202803683370190505b509050600080845111610a2d576000610a33565b83516001015b855160010101905060008167ffffffffffffffff811115610a5657610a56611ee5565b604051908082528060200260200182016040528015610a8957816020015b6060815260200190600190039081610a745790505b5090506000610aae604080516002815233602082015230818301526060810190915290565b828281518110610ac057610ac0612a8f565b602002602001018190525060005b8751811015610b1e578180600101925050878181518110610af157610af1612a8f565b6020026020010151838381518110610b0b57610b0b612a8f565b6020908102919091010152600101610ace565b50855115610cd857808060010191505083828281518110610b4157610b41612a8f565b602002602001018190525060005b8651811015610cd657610c00878281518110610b6d57610b6d612a8f565b602002602001015160000151610bdd610baa8a8581518110610b9157610b91612a8f565b6020026020010151602001518051602090810291012090565b7f19457468657265756d205369676e6564204d6573736167653a0a3332000000006000908152601c91909152603c902090565b898481518110610bef57610bef612a8f565b602002602001015160400151610f15565b610c39576040517f52bf984800000000000000000000000000000000000000000000000000000000815260048101829052602401610361565b868181518110610c4b57610c4b612a8f565b60200260200101516000015173ffffffffffffffffffffffffffffffffffffffff16858281518110610c7f57610c7f612a8f565b6020026020010181815250508180600101925050868181518110610ca557610ca5612a8f565b602002602001015160200151838381518110610cc357610cc3612a8f565b6020908102919091010152600101610b4f565b505b5095945050505050565b610d0660405180606001604052806060815260200160608152602001606081525090565b60606000806000610d178787610f90565b925092509250610d2783836110eb565b9450925050505b9250929050565b606061050b8383604051806060016040528060278152602001612e4f60279139611272565b600260005403610dc6576040517f08c379a000000000000000000000000000000000000000000000000000000000815260206004820152601f60248201527f5265656e7472616e637947756172643a207265656e7472616e742063616c6c006044820152606401610361565b6002600055565b805115610e5c576040517f946aadc600000000000000000000000000000000000000000000000000000000815273ffffffffffffffffffffffffffffffffffffffff83169063946aadc690610e29906000908590600401612c89565b600060405180830381600087803b158015610e4357600080fd5b505af1158015610e57573d6000803e3d6000fd5b505050505b610e65836112ed565b610e6e83611446565b610e77836115d7565b505050565b600154610100900460ff16610f13576040517f08c379a000000000000000000000000000000000000000000000000000000000815260206004820152602b60248201527f496e697469616c697a61626c653a20636f6e7472616374206973206e6f74206960448201527f6e697469616c697a696e670000000000000000000000000000000000000000006064820152608401610361565b565b6000806000610f248585611787565b90925090506000816004811115610f3d57610f3d612ca2565b148015610f7557508573ffffffffffffffffffffffffffffffffffffffff168273ffffffffffffffffffffffffffffffffffffffff16145b80610f865750610f868686866117c9565b9695505050505050565b60008060606000610fa2866060902090565b600081815260fc6020526040902054909150610fed576040517f7a80ba4d00000000000000000000000000000000000000000000000000000000815260048101829052602401610361565b5084516020808701516040880151600093849373ffffffffffffffffffffffffffffffffffffffff90911692636715f8259290918591901b77ffffffffffffffffffffffffffffffffffffffff000000001661ffff178a6040518563ffffffff1660e01b81526004016110639493929190612cd1565b600060405180830381865afa158015611080573d6000803e3d6000fd5b505050506040513d6000823e601f3d9081017fffffffffffffffffffffffffffffffffffffffffffffffffffffffffffffffe01682016040526110c69190810190612d67565b915091506110d48260200190565b825190986020918202909301019650945092505050565b61110f60405180606001604052806060815260200160608152602001606081525090565b60408051808201909152601281527f5241494e5f464c4f575f53454e54494e454c000000000000000000000000000060209091015260608080600061117787877ffea74d0c9bf4a3c28f0dd0674db22a3d7f8bf259c56af19f4ac1e735b156974f6004611926565b60408051808201909152601281527f5241494e5f464c4f575f53454e54494e454c000000000000000000000000000060209091015290965093508390506111e187877ffea74d0c9bf4a3c28f0dd0674db22a3d7f8bf259c56af19f4ac1e735b156974f6004611926565b60408051808201909152601281527f5241494e5f464c4f575f53454e54494e454c0000000000000000000000000000602090910152909650925082905061124b87877ffea74d0c9bf4a3c28f0dd0674db22a3d7f8bf259c56af19f4ac1e735b156974f6005611926565b60408051606081018252968752602087019590955293850193909352509195945050505050565b60606000808573ffffffffffffffffffffffffffffffffffffffff168560405161129c9190612dcb565b600060405180830381855af49150503d80600081146112d7576040519150601f19603f3d011682016040523d82523d6000602084013e6112dc565b606091505b5091509150610f86868383876119d2565b6040805160808101825260008082526020820181905291810182905260608101829052905b825151811015610e7757825180518290811061133057611330612a8f565b602002602001015191503373ffffffffffffffffffffffffffffffffffffffff16826020015173ffffffffffffffffffffffffffffffffffffffff16036113a7576040820151606083015183516113a29273ffffffffffffffffffffffffffffffffffffffff90911691339190611a72565b61143e565b3073ffffffffffffffffffffffffffffffffffffffff16826020015173ffffffffffffffffffffffffffffffffffffffff160361140c576040820151606083015183516113a29273ffffffffffffffffffffffffffffffffffffffff90911691611b54565b6040517fa521c60f00000000000000000000000000000000000000000000000000000000815260040160405180910390fd5b600101611312565b6040805160808101825260008082526020820181905291810182905260608101829052905b826020015151811015610e77578260200151818151811061148e5761148e612a8f565b602002602001015191503373ffffffffffffffffffffffffffffffffffffffff16826020015173ffffffffffffffffffffffffffffffffffffffff16141580156114f25750602082015173ffffffffffffffffffffffffffffffffffffffff163014155b15611529576040517f3a5befc500000000000000000000000000000000000000000000000000000000815260040160405180910390fd5b81516020830151604080850151606086015191517f42842e0e00000000000000000000000000000000000000000000000000000000815273ffffffffffffffffffffffffffffffffffffffff9384166004820152908316602482015260448101919091529116906342842e0e90606401600060405180830381600087803b1580156115b357600080fd5b505af11580156115c7573d6000803e3d6000fd5b50506001909201915061146b9050565b6040805160a0810182526000808252602082018190529181018290526060810182905260808101829052905b826040015151811015610e77578260400151818151811061162657611626612a8f565b602002602001015191503373ffffffffffffffffffffffffffffffffffffffff16826020015173ffffffffffffffffffffffffffffffffffffffff161415801561168a5750602082015173ffffffffffffffffffffffffffffffffffffffff163014155b156116c1576040517fc6a91ecc00000000000000000000000000000000000000000000000000000000815260040160405180910390fd5b815160208301516040808501516060860151608087015192517ff242432a00000000000000000000000000000000000000000000000000000000815273ffffffffffffffffffffffffffffffffffffffff948516600482015291841660248301526044820152606481019190915260a06084820152600060a482015291169063f242432a9060c401600060405180830381600087803b15801561176357600080fd5b505af1158015611777573d6000803e3d6000fd5b5050600190920191506116039050565b60008082516041036117bd5760208301516040840151606085015160001a6117b187828585611baa565b94509450505050610d2e565b50600090506002610d2e565b60008060008573ffffffffffffffffffffffffffffffffffffffff16631626ba7e60e01b8686604051602401611800929190612de7565b604080517fffffffffffffffffffffffffffffffffffffffffffffffffffffffffffffffe08184030181529181526020820180517bffffffffffffffffffffffffffffffffffffffffffffffffffffffff167fffffffff000000000000000000000000000000000000000000000000000000009094169390931790925290516118899190612dcb565b600060405180830381855afa9150503d80600081146118c4576040519150601f19603f3d011682016040523d82523d6000602084013e6118c9565b606091505b50915091508180156118dd57506020815110155b8015610f86575080517f1626ba7e000000000000000000000000000000000000000000000000000000009061191b9083016020908101908401612e00565b149695505050505050565b60008060208302855b8781111561195357602081038681510361194a579350611953565b5081900361192f565b5082600003611991576040517fd457746f00000000000000000000000000000000000000000000000000000000815260048101869052602401610361565b604051915060208201602084015b878110156119b757808252602090910190820161199f565b50806040526001602084830304038352505094509492505050565b60608315611a68578251600003611a615773ffffffffffffffffffffffffffffffffffffffff85163b611a61576040517f08c379a000000000000000000000000000000000000000000000000000000000815260206004820152601d60248201527f416464726573733a2063616c6c20746f206e6f6e2d636f6e74726163740000006044820152606401610361565b5081610298565b6102988383611c99565b60405173ffffffffffffffffffffffffffffffffffffffff80851660248301528316604482015260648101829052611b4e9085907f23b872dd00000000000000000000000000000000000000000000000000000000906084015b604080517fffffffffffffffffffffffffffffffffffffffffffffffffffffffffffffffe08184030181529190526020810180517bffffffffffffffffffffffffffffffffffffffffffffffffffffffff167fffffffff0000000000000000000000000000000000000000000000000000000090931692909217909152611cdd565b50505050565b60405173ffffffffffffffffffffffffffffffffffffffff8316602482015260448101829052610e779084907fa9059cbb0000000000000000000000000000000000000000000000000000000090606401611acc565b6000807f7fffffffffffffffffffffffffffffff5d576e7357a4501ddfe92f46681b20a0831115611be15750600090506003611c90565b6040805160008082526020820180845289905260ff881692820192909252606081018690526080810185905260019060a0016020604051602081039080840390855afa158015611c35573d6000803e3d6000fd5b50506040517fffffffffffffffffffffffffffffffffffffffffffffffffffffffffffffffe0015191505073ffffffffffffffffffffffffffffffffffffffff8116611c8957600060019250925050611c90565b9150600090505b94509492505050565b815115611ca95781518083602001fd5b806040517f08c379a00000000000000000000000000000000000000000000000000000000081526004016103619190612e19565b6000611d3f826040518060400160405280602081526020017f5361666545524332303a206c6f772d6c6576656c2063616c6c206661696c65648152508573ffffffffffffffffffffffffffffffffffffffff16611dec9092919063ffffffff16565b9050805160001480611d60575080806020019051810190611d609190612e2c565b610e77576040517f08c379a000000000000000000000000000000000000000000000000000000000815260206004820152602a60248201527f5361666545524332303a204552433230206f7065726174696f6e20646964206e60448201527f6f742073756363656564000000000000000000000000000000000000000000006064820152608401610361565b60606102988484600085856000808673ffffffffffffffffffffffffffffffffffffffff168587604051611e209190612dcb565b60006040518083038185875af1925050503d8060008114611e5d576040519150601f19603f3d011682016040523d82523d6000602084013e611e62565b606091505b5091509150611e73878383876119d2565b979650505050505050565b600060208284031215611e9057600080fd5b81357fffffffff000000000000000000000000000000000000000000000000000000008116811461050b57600080fd5b73ffffffffffffffffffffffffffffffffffffffff81168114611ee257600080fd5b50565b7f4e487b7100000000000000000000000000000000000000000000000000000000600052604160045260246000fd5b6040516060810167ffffffffffffffff81118282101715611f3757611f37611ee5565b60405290565b6040805190810167ffffffffffffffff81118282101715611f3757611f37611ee5565b604051601f82017fffffffffffffffffffffffffffffffffffffffffffffffffffffffffffffffe016810167ffffffffffffffff81118282101715611fa757611fa7611ee5565b604052919050565b600082601f830112611fc057600080fd5b813567ffffffffffffffff811115611fda57611fda611ee5565b61200b60207fffffffffffffffffffffffffffffffffffffffffffffffffffffffffffffffe0601f84011601611f60565b81815284602083860101111561202057600080fd5b816020850160208301376000918101602001919091529392505050565b6000806000806080858703121561205357600080fd5b843561205e81611ec0565b9350602085013561206e81611ec0565b925060408501359150606085013567ffffffffffffffff81111561209157600080fd5b61209d87828801611faf565b91505092959194509250565b600080602083850312156120bc57600080fd5b823567ffffffffffffffff808211156120d457600080fd5b818501915085601f8301126120e857600080fd5b8135818111156120f757600080fd5b86602082850101111561210957600080fd5b60209290920196919550909350505050565b600067ffffffffffffffff82111561213557612135611ee5565b5060051b60200190565b600082601f83011261215057600080fd5b813560206121656121608361211b565b611f60565b82815260059290921b8401810191818101908684111561218457600080fd5b8286015b8481101561219f5780358352918301918301612188565b509695505050505050565b600080600083850360a08112156121c057600080fd5b60608112156121ce57600080fd5b506121d7611f14565b84356121e281611ec0565b81526020858101356121f381611ec0565b82820152604086013561220581611ec0565b604083015290935060608501359067ffffffffffffffff8083111561222957600080fd5b6122358884890161213f565b9450608087013592508083111561224b57600080fd5b828701925087601f84011261225f57600080fd5b823561226d6121608261211b565b81815260059190911b8401830190838101908a83111561228c57600080fd5b8486015b8381101561234f578035858111156122a85760008081fd5b87016060818e037fffffffffffffffffffffffffffffffffffffffffffffffffffffffffffffffe00112156122dd5760008081fd5b6122e5611f14565b878201356122f281611ec0565b81526040820135878111156123075760008081fd5b6123158f8a8386010161213f565b898301525060608201358781111561232d5760008081fd5b61233b8f8a83860101611faf565b604083015250845250918501918501612290565b508096505050505050509250925092565b600081518084526020808501945080840160005b838110156123d7578151805173ffffffffffffffffffffffffffffffffffffffff9081168952848201518116858a015260408083015190911690890152606080820151908901526080908101519088015260a09096019590820190600101612374565b509495945050505050565b600060208083526080808401855160608487015281815180845260a0880191508583019350600092505b808310156124705761245c82855173ffffffffffffffffffffffffffffffffffffffff80825116835280602083015116602084015280604083015116604084015250606081015160608301525050565b92850192600192909201919084019061240c565b50848801517fffffffffffffffffffffffffffffffffffffffffffffffffffffffffffffffe0888303810160408a01528151808452918701945092506000918601905b808310156125175761250382865173ffffffffffffffffffffffffffffffffffffffff80825116835280602083015116602084015280604083015116604084015250606081015160608301525050565b9386019360019290920191908501906124b3565b5060408901519550828882030160608901526125338187612360565b9998505050505050505050565b6000806020838503121561255357600080fd5b823567ffffffffffffffff8082111561256b57600080fd5b818501915085601f83011261257f57600080fd5b81358181111561258e57600080fd5b8660208260051b850101111561210957600080fd5b60005b838110156125be5781810151838201526020016125a6565b50506000910152565b600081518084526125df8160208601602086016125a3565b601f017fffffffffffffffffffffffffffffffffffffffffffffffffffffffffffffffe0169290920160200192915050565b6000602080830181845280855180835260408601915060408160051b870101925083870160005b82811015612684577fffffffffffffffffffffffffffffffffffffffffffffffffffffffffffffffc08886030184526126728583516125c7565b94509285019290850190600101612638565b5092979650505050505050565b600080600080600060a086880312156126a957600080fd5b85356126b481611ec0565b945060208601356126c481611ec0565b9350604086013567ffffffffffffffff808211156126e157600080fd5b6126ed89838a0161213f565b9450606088013591508082111561270357600080fd5b61270f89838a0161213f565b9350608088013591508082111561272557600080fd5b5061273288828901611faf565b9150509295509295909350565b600080600080600060a0868803121561275757600080fd5b853561276281611ec0565b9450602086013561277281611ec0565b93506040860135925060608601359150608086013567ffffffffffffffff81111561279c57600080fd5b61273288828901611faf565b6000606082840312156127ba57600080fd5b6127c2611f14565b905081356127cf81611ec0565b8152602082013567ffffffffffffffff808211156127ec57600080fd5b6127f885838601611faf565b6020840152604084013591508082111561281157600080fd5b5061281e8482850161213f565b60408301525092915050565b6000602080838503121561283d57600080fd5b823567ffffffffffffffff8082111561285557600080fd5b908401906040828703121561286957600080fd5b612871611f3d565b82358281111561288057600080fd5b61288c888286016127a8565b82525083830135828111156128a057600080fd5b80840193505086601f8401126128b557600080fd5b82356128c36121608261211b565b81815260059190911b840185019085810190898311156128e257600080fd5b8686015b8381101561291a578035868111156128fe5760008081fd5b61290c8c8a838b01016127a8565b8452509187019187016128e6565b5095830195909552509695505050505050565b600081518084526020808501945080840160005b838110156123d757815187529582019590820190600101612941565b73ffffffffffffffffffffffffffffffffffffffff8151168252600060208201516060602085015261299260608501826125c7565b9050604083015184820360408601526129ab828261292d565b95945050505050565b73ffffffffffffffffffffffffffffffffffffffff831681526000602060408184015283516040808501526129ec608085018261295d565b858301518582037fffffffffffffffffffffffffffffffffffffffffffffffffffffffffffffffc0016060870152805180835291925083019083830190600581901b8401850160005b82811015612a81577fffffffffffffffffffffffffffffffffffffffffffffffffffffffffffffffe0868303018452612a6f82865161295d565b94870194938701939150600101612a35565b509998505050505050505050565b7f4e487b7100000000000000000000000000000000000000000000000000000000600052603260045260246000fd5b60008083357fffffffffffffffffffffffffffffffffffffffffffffffffffffffffffffffe1843603018112612af357600080fd5b83018035915067ffffffffffffffff821115612b0e57600080fd5b602001915036819003821315610d2e57600080fd5b60007fffffffffffffffffffffffffffffffffffffffffffffffffffffffffffffffff8203612b7b577f4e487b7100000000000000000000000000000000000000000000000000000000600052601160045260246000fd5b5060010190565b6000815180845260208085019450848260051b860182860160005b85811015612bc7578383038952612bb583835161292d565b98850198925090840190600101612b9d565b5090979650505050505050565b73ffffffffffffffffffffffffffffffffffffffff831681526040602082015260006102986040830184612b82565b606081526000612c1660608301866125c7565b8281036020840152612c28818661292d565b90508281036040840152610f86818561292d565b600080600060608486031215612c5157600080fd5b8351612c5c81611ec0565b6020850151909350612c6d81611ec0565b6040850151909250612c7e81611ec0565b809150509250925092565b828152604060208201526000610298604083018461292d565b7f4e487b7100000000000000000000000000000000000000000000000000000000600052602160045260246000fd5b73ffffffffffffffffffffffffffffffffffffffff85168152836020820152826040820152608060608201526000610f866080830184612b82565b600082601f830112612d1d57600080fd5b81516020612d2d6121608361211b565b82815260059290921b84018101918181019086841115612d4c57600080fd5b8286015b8481101561219f5780518352918301918301612d50565b60008060408385031215612d7a57600080fd5b825167ffffffffffffffff80821115612d9257600080fd5b612d9e86838701612d0c565b93506020850151915080821115612db457600080fd5b50612dc185828601612d0c565b9150509250929050565b60008251612ddd8184602087016125a3565b9190910192915050565b82815260406020820152600061029860408301846125c7565b600060208284031215612e1257600080fd5b5051919050565b60208152600061050b60208301846125c7565b600060208284031215612e3e57600080fd5b8151801515811461050b57600080fdfe416464726573733a206c6f772d6c6576656c2064656c65676174652063616c6c206661696c6564",
    "linkReferences": {}
  },
  "methodIdentifiers": {
    "flow((address,address,address),uint256[],(address,uint256[],bytes)[])": "f83d765a",
    "initialize(bytes)": "439fab91",
    "multicall(bytes[])": "ac9650d8",
    "onERC1155BatchReceived(address,address,uint256[],uint256[],bytes)": "bc197c81",
    "onERC1155Received(address,address,uint256,uint256,bytes)": "f23a6e61",
    "onERC721Received(address,address,uint256,bytes)": "150b7a02",
    "previewFlow((address,address,address),uint256[],(address,uint256[],bytes)[])": "90bcad69",
    "supportsInterface(bytes4)": "01ffc9a7"
  },
  "id": 66
}