{
  "abi": [
    {
      "inputs": [
        {
          "components": [
            {
              "internalType": "address",
              "name": "deployer",
              "type": "address"
            },
            {
              "internalType": "bytes",
              "name": "meta",
              "type": "bytes"
            }
          ],
          "internalType": "struct DeployerDiscoverableMetaV2ConstructionConfig",
          "name": "config",
          "type": "tuple"
        }
      ],
      "stateMutability": "nonpayable",
      "type": "constructor"
    },
    {
      "inputs": [
        {
          "internalType": "uint256",
          "name": "flowMinOutputs",
          "type": "uint256"
        }
      ],
      "name": "BadMinStackLength",
      "type": "error"
    },
    {
      "inputs": [],
      "name": "InitializeSignatureFn",
      "type": "error"
    },
    {
      "inputs": [
        {
          "internalType": "uint256",
          "name": "i",
          "type": "uint256"
        }
      ],
      "name": "InvalidSignature",
      "type": "error"
    },
    {
      "inputs": [
        {
          "internalType": "Sentinel",
          "name": "sentinel",
          "type": "uint256"
        }
      ],
      "name": "MissingSentinel",
      "type": "error"
    },
    {
      "inputs": [
        {
          "internalType": "bytes",
          "name": "unmeta",
          "type": "bytes"
        }
      ],
      "name": "NotRainMetaV1",
      "type": "error"
    },
    {
      "inputs": [
        {
          "internalType": "bytes",
          "name": "bytecode",
          "type": "bytes"
        },
        {
          "internalType": "uint256",
          "name": "sourceIndex",
          "type": "uint256"
        }
      ],
      "name": "SourceOffsetOutOfBounds",
      "type": "error"
    },
    {
      "inputs": [
        {
          "internalType": "bytes32",
          "name": "expectedHash",
          "type": "bytes32"
        },
        {
          "internalType": "bytes32",
          "name": "actualHash",
          "type": "bytes32"
        }
      ],
      "name": "UnexpectedMetaHash",
      "type": "error"
    },
    {
      "inputs": [
        {
          "internalType": "bytes32",
          "name": "unregisteredHash",
          "type": "bytes32"
        }
      ],
      "name": "UnregisteredFlow",
      "type": "error"
    },
    {
      "inputs": [],
      "name": "UnsupportedERC1155Flow",
      "type": "error"
    },
    {
      "inputs": [],
      "name": "UnsupportedERC20Flow",
      "type": "error"
    },
    {
      "inputs": [],
      "name": "UnsupportedERC721Flow",
      "type": "error"
    },
    {
      "anonymous": false,
      "inputs": [
        {
          "indexed": true,
          "internalType": "address",
          "name": "account",
          "type": "address"
        },
        {
          "indexed": true,
          "internalType": "address",
          "name": "operator",
          "type": "address"
        },
        {
          "indexed": false,
          "internalType": "bool",
          "name": "approved",
          "type": "bool"
        }
      ],
      "name": "ApprovalForAll",
      "type": "event"
    },
    {
      "anonymous": false,
      "inputs": [
        {
          "indexed": false,
          "internalType": "address",
          "name": "sender",
          "type": "address"
        },
        {
          "indexed": false,
          "internalType": "uint256[][]",
          "name": "context",
          "type": "uint256[][]"
        }
      ],
      "name": "Context",
      "type": "event"
    },
    {
      "anonymous": false,
      "inputs": [
        {
          "indexed": false,
          "internalType": "address",
          "name": "sender",
          "type": "address"
        },
        {
          "components": [
            {
              "internalType": "contract IInterpreterV1",
              "name": "interpreter",
              "type": "address"
            },
            {
              "internalType": "contract IInterpreterStoreV1",
              "name": "store",
              "type": "address"
            },
            {
              "internalType": "address",
              "name": "expression",
              "type": "address"
            }
          ],
          "indexed": false,
          "internalType": "struct Evaluable",
          "name": "evaluable",
          "type": "tuple"
        }
      ],
      "name": "FlowInitialized",
      "type": "event"
    },
    {
      "anonymous": false,
      "inputs": [
        {
          "indexed": false,
          "internalType": "address",
          "name": "sender",
          "type": "address"
        },
        {
          "components": [
            {
              "internalType": "string",
              "name": "uri",
              "type": "string"
            },
            {
              "components": [
                {
                  "internalType": "contract IExpressionDeployerV2",
                  "name": "deployer",
                  "type": "address"
                },
                {
                  "internalType": "bytes",
                  "name": "bytecode",
                  "type": "bytes"
                },
                {
                  "internalType": "uint256[]",
                  "name": "constants",
                  "type": "uint256[]"
                }
              ],
              "internalType": "struct EvaluableConfigV2",
              "name": "evaluableConfig",
              "type": "tuple"
            },
            {
              "components": [
                {
                  "internalType": "contract IExpressionDeployerV2",
                  "name": "deployer",
                  "type": "address"
                },
                {
                  "internalType": "bytes",
                  "name": "bytecode",
                  "type": "bytes"
                },
                {
                  "internalType": "uint256[]",
                  "name": "constants",
                  "type": "uint256[]"
                }
              ],
              "internalType": "struct EvaluableConfigV2[]",
              "name": "flowConfig",
              "type": "tuple[]"
            }
          ],
          "indexed": false,
          "internalType": "struct FlowERC1155ConfigV2",
          "name": "config",
          "type": "tuple"
        }
      ],
      "name": "Initialize",
      "type": "event"
    },
    {
      "anonymous": false,
      "inputs": [
        {
          "indexed": false,
          "internalType": "uint8",
          "name": "version",
          "type": "uint8"
        }
      ],
      "name": "Initialized",
      "type": "event"
    },
    {
      "anonymous": false,
      "inputs": [
        {
          "indexed": false,
          "internalType": "address",
          "name": "sender",
          "type": "address"
        },
        {
          "indexed": false,
          "internalType": "uint256",
          "name": "subject",
          "type": "uint256"
        },
        {
          "indexed": false,
          "internalType": "bytes",
          "name": "meta",
          "type": "bytes"
        }
      ],
      "name": "MetaV1",
      "type": "event"
    },
    {
      "anonymous": false,
      "inputs": [
        {
          "indexed": true,
          "internalType": "address",
          "name": "operator",
          "type": "address"
        },
        {
          "indexed": true,
          "internalType": "address",
          "name": "from",
          "type": "address"
        },
        {
          "indexed": true,
          "internalType": "address",
          "name": "to",
          "type": "address"
        },
        {
          "indexed": false,
          "internalType": "uint256[]",
          "name": "ids",
          "type": "uint256[]"
        },
        {
          "indexed": false,
          "internalType": "uint256[]",
          "name": "values",
          "type": "uint256[]"
        }
      ],
      "name": "TransferBatch",
      "type": "event"
    },
    {
      "anonymous": false,
      "inputs": [
        {
          "indexed": true,
          "internalType": "address",
          "name": "operator",
          "type": "address"
        },
        {
          "indexed": true,
          "internalType": "address",
          "name": "from",
          "type": "address"
        },
        {
          "indexed": true,
          "internalType": "address",
          "name": "to",
          "type": "address"
        },
        {
          "indexed": false,
          "internalType": "uint256",
          "name": "id",
          "type": "uint256"
        },
        {
          "indexed": false,
          "internalType": "uint256",
          "name": "value",
          "type": "uint256"
        }
      ],
      "name": "TransferSingle",
      "type": "event"
    },
    {
      "anonymous": false,
      "inputs": [
        {
          "indexed": false,
          "internalType": "string",
          "name": "value",
          "type": "string"
        },
        {
          "indexed": true,
          "internalType": "uint256",
          "name": "id",
          "type": "uint256"
        }
      ],
      "name": "URI",
      "type": "event"
    },
    {
      "inputs": [
        {
          "internalType": "address",
          "name": "account",
          "type": "address"
        },
        {
          "internalType": "uint256",
          "name": "id",
          "type": "uint256"
        }
      ],
      "name": "balanceOf",
      "outputs": [
        {
          "internalType": "uint256",
          "name": "",
          "type": "uint256"
        }
      ],
      "stateMutability": "view",
      "type": "function"
    },
    {
      "inputs": [
        {
          "internalType": "address[]",
          "name": "accounts",
          "type": "address[]"
        },
        {
          "internalType": "uint256[]",
          "name": "ids",
          "type": "uint256[]"
        }
      ],
      "name": "balanceOfBatch",
      "outputs": [
        {
          "internalType": "uint256[]",
          "name": "",
          "type": "uint256[]"
        }
      ],
      "stateMutability": "view",
      "type": "function"
    },
    {
      "inputs": [
        {
          "components": [
            {
              "internalType": "contract IInterpreterV1",
              "name": "interpreter",
              "type": "address"
            },
            {
              "internalType": "contract IInterpreterStoreV1",
              "name": "store",
              "type": "address"
            },
            {
              "internalType": "address",
              "name": "expression",
              "type": "address"
            }
          ],
          "internalType": "struct Evaluable",
          "name": "evaluable_",
          "type": "tuple"
        },
        {
          "internalType": "uint256[]",
          "name": "callerContext_",
          "type": "uint256[]"
        },
        {
          "components": [
            {
              "internalType": "address",
              "name": "signer",
              "type": "address"
            },
            {
              "internalType": "uint256[]",
              "name": "context",
              "type": "uint256[]"
            },
            {
              "internalType": "bytes",
              "name": "signature",
              "type": "bytes"
            }
          ],
          "internalType": "struct SignedContextV1[]",
          "name": "signedContexts_",
          "type": "tuple[]"
        }
      ],
      "name": "flow",
      "outputs": [
        {
          "components": [
            {
              "components": [
                {
                  "internalType": "address",
                  "name": "account",
                  "type": "address"
                },
                {
                  "internalType": "uint256",
                  "name": "id",
                  "type": "uint256"
                },
                {
                  "internalType": "uint256",
                  "name": "amount",
                  "type": "uint256"
                }
              ],
              "internalType": "struct ERC1155SupplyChange[]",
              "name": "mints",
              "type": "tuple[]"
            },
            {
              "components": [
                {
                  "internalType": "address",
                  "name": "account",
                  "type": "address"
                },
                {
                  "internalType": "uint256",
                  "name": "id",
                  "type": "uint256"
                },
                {
                  "internalType": "uint256",
                  "name": "amount",
                  "type": "uint256"
                }
              ],
              "internalType": "struct ERC1155SupplyChange[]",
              "name": "burns",
              "type": "tuple[]"
            },
            {
              "components": [
                {
                  "components": [
                    {
                      "internalType": "address",
                      "name": "token",
                      "type": "address"
                    },
                    {
                      "internalType": "address",
                      "name": "from",
                      "type": "address"
                    },
                    {
                      "internalType": "address",
                      "name": "to",
                      "type": "address"
                    },
                    {
                      "internalType": "uint256",
                      "name": "amount",
                      "type": "uint256"
                    }
                  ],
                  "internalType": "struct ERC20Transfer[]",
                  "name": "erc20",
                  "type": "tuple[]"
                },
                {
                  "components": [
                    {
                      "internalType": "address",
                      "name": "token",
                      "type": "address"
                    },
                    {
                      "internalType": "address",
                      "name": "from",
                      "type": "address"
                    },
                    {
                      "internalType": "address",
                      "name": "to",
                      "type": "address"
                    },
                    {
                      "internalType": "uint256",
                      "name": "id",
                      "type": "uint256"
                    }
                  ],
                  "internalType": "struct ERC721Transfer[]",
                  "name": "erc721",
                  "type": "tuple[]"
                },
                {
                  "components": [
                    {
                      "internalType": "address",
                      "name": "token",
                      "type": "address"
                    },
                    {
                      "internalType": "address",
                      "name": "from",
                      "type": "address"
                    },
                    {
                      "internalType": "address",
                      "name": "to",
                      "type": "address"
                    },
                    {
                      "internalType": "uint256",
                      "name": "id",
                      "type": "uint256"
                    },
                    {
                      "internalType": "uint256",
                      "name": "amount",
                      "type": "uint256"
                    }
                  ],
                  "internalType": "struct ERC1155Transfer[]",
                  "name": "erc1155",
                  "type": "tuple[]"
                }
              ],
              "internalType": "struct FlowTransferV1",
              "name": "flow",
              "type": "tuple"
            }
          ],
          "internalType": "struct FlowERC1155IOV1",
          "name": "",
          "type": "tuple"
        }
      ],
      "stateMutability": "nonpayable",
      "type": "function"
    },
    {
      "inputs": [
        {
          "internalType": "bytes",
          "name": "data",
          "type": "bytes"
        }
      ],
      "name": "initialize",
      "outputs": [
        {
          "internalType": "bytes32",
          "name": "",
          "type": "bytes32"
        }
      ],
      "stateMutability": "nonpayable",
      "type": "function"
    },
    {
      "inputs": [
        {
          "internalType": "address",
          "name": "account",
          "type": "address"
        },
        {
          "internalType": "address",
          "name": "operator",
          "type": "address"
        }
      ],
      "name": "isApprovedForAll",
      "outputs": [
        {
          "internalType": "bool",
          "name": "",
          "type": "bool"
        }
      ],
      "stateMutability": "view",
      "type": "function"
    },
    {
      "inputs": [
        {
          "internalType": "bytes[]",
          "name": "data",
          "type": "bytes[]"
        }
      ],
      "name": "multicall",
      "outputs": [
        {
          "internalType": "bytes[]",
          "name": "results",
          "type": "bytes[]"
        }
      ],
      "stateMutability": "nonpayable",
      "type": "function"
    },
    {
      "inputs": [
        {
          "internalType": "address",
          "name": "",
          "type": "address"
        },
        {
          "internalType": "address",
          "name": "",
          "type": "address"
        },
        {
          "internalType": "uint256[]",
          "name": "",
          "type": "uint256[]"
        },
        {
          "internalType": "uint256[]",
          "name": "",
          "type": "uint256[]"
        },
        {
          "internalType": "bytes",
          "name": "",
          "type": "bytes"
        }
      ],
      "name": "onERC1155BatchReceived",
      "outputs": [
        {
          "internalType": "bytes4",
          "name": "",
          "type": "bytes4"
        }
      ],
      "stateMutability": "nonpayable",
      "type": "function"
    },
    {
      "inputs": [
        {
          "internalType": "address",
          "name": "",
          "type": "address"
        },
        {
          "internalType": "address",
          "name": "",
          "type": "address"
        },
        {
          "internalType": "uint256",
          "name": "",
          "type": "uint256"
        },
        {
          "internalType": "uint256",
          "name": "",
          "type": "uint256"
        },
        {
          "internalType": "bytes",
          "name": "",
          "type": "bytes"
        }
      ],
      "name": "onERC1155Received",
      "outputs": [
        {
          "internalType": "bytes4",
          "name": "",
          "type": "bytes4"
        }
      ],
      "stateMutability": "nonpayable",
      "type": "function"
    },
    {
      "inputs": [
        {
          "internalType": "address",
          "name": "",
          "type": "address"
        },
        {
          "internalType": "address",
          "name": "",
          "type": "address"
        },
        {
          "internalType": "uint256",
          "name": "",
          "type": "uint256"
        },
        {
          "internalType": "bytes",
          "name": "",
          "type": "bytes"
        }
      ],
      "name": "onERC721Received",
      "outputs": [
        {
          "internalType": "bytes4",
          "name": "",
          "type": "bytes4"
        }
      ],
      "stateMutability": "nonpayable",
      "type": "function"
    },
    {
      "inputs": [
        {
          "components": [
            {
              "internalType": "contract IInterpreterV1",
              "name": "interpreter",
              "type": "address"
            },
            {
              "internalType": "contract IInterpreterStoreV1",
              "name": "store",
              "type": "address"
            },
            {
              "internalType": "address",
              "name": "expression",
              "type": "address"
            }
          ],
          "internalType": "struct Evaluable",
          "name": "evaluable_",
          "type": "tuple"
        },
        {
          "internalType": "uint256[]",
          "name": "callerContext_",
          "type": "uint256[]"
        },
        {
          "components": [
            {
              "internalType": "address",
              "name": "signer",
              "type": "address"
            },
            {
              "internalType": "uint256[]",
              "name": "context",
              "type": "uint256[]"
            },
            {
              "internalType": "bytes",
              "name": "signature",
              "type": "bytes"
            }
          ],
          "internalType": "struct SignedContextV1[]",
          "name": "signedContexts_",
          "type": "tuple[]"
        }
      ],
      "name": "previewFlow",
      "outputs": [
        {
          "components": [
            {
              "components": [
                {
                  "internalType": "address",
                  "name": "account",
                  "type": "address"
                },
                {
                  "internalType": "uint256",
                  "name": "id",
                  "type": "uint256"
                },
                {
                  "internalType": "uint256",
                  "name": "amount",
                  "type": "uint256"
                }
              ],
              "internalType": "struct ERC1155SupplyChange[]",
              "name": "mints",
              "type": "tuple[]"
            },
            {
              "components": [
                {
                  "internalType": "address",
                  "name": "account",
                  "type": "address"
                },
                {
                  "internalType": "uint256",
                  "name": "id",
                  "type": "uint256"
                },
                {
                  "internalType": "uint256",
                  "name": "amount",
                  "type": "uint256"
                }
              ],
              "internalType": "struct ERC1155SupplyChange[]",
              "name": "burns",
              "type": "tuple[]"
            },
            {
              "components": [
                {
                  "components": [
                    {
                      "internalType": "address",
                      "name": "token",
                      "type": "address"
                    },
                    {
                      "internalType": "address",
                      "name": "from",
                      "type": "address"
                    },
                    {
                      "internalType": "address",
                      "name": "to",
                      "type": "address"
                    },
                    {
                      "internalType": "uint256",
                      "name": "amount",
                      "type": "uint256"
                    }
                  ],
                  "internalType": "struct ERC20Transfer[]",
                  "name": "erc20",
                  "type": "tuple[]"
                },
                {
                  "components": [
                    {
                      "internalType": "address",
                      "name": "token",
                      "type": "address"
                    },
                    {
                      "internalType": "address",
                      "name": "from",
                      "type": "address"
                    },
                    {
                      "internalType": "address",
                      "name": "to",
                      "type": "address"
                    },
                    {
                      "internalType": "uint256",
                      "name": "id",
                      "type": "uint256"
                    }
                  ],
                  "internalType": "struct ERC721Transfer[]",
                  "name": "erc721",
                  "type": "tuple[]"
                },
                {
                  "components": [
                    {
                      "internalType": "address",
                      "name": "token",
                      "type": "address"
                    },
                    {
                      "internalType": "address",
                      "name": "from",
                      "type": "address"
                    },
                    {
                      "internalType": "address",
                      "name": "to",
                      "type": "address"
                    },
                    {
                      "internalType": "uint256",
                      "name": "id",
                      "type": "uint256"
                    },
                    {
                      "internalType": "uint256",
                      "name": "amount",
                      "type": "uint256"
                    }
                  ],
                  "internalType": "struct ERC1155Transfer[]",
                  "name": "erc1155",
                  "type": "tuple[]"
                }
              ],
              "internalType": "struct FlowTransferV1",
              "name": "flow",
              "type": "tuple"
            }
          ],
          "internalType": "struct FlowERC1155IOV1",
          "name": "",
          "type": "tuple"
        }
      ],
      "stateMutability": "view",
      "type": "function"
    },
    {
      "inputs": [
        {
          "internalType": "address",
          "name": "from",
          "type": "address"
        },
        {
          "internalType": "address",
          "name": "to",
          "type": "address"
        },
        {
          "internalType": "uint256[]",
          "name": "ids",
          "type": "uint256[]"
        },
        {
          "internalType": "uint256[]",
          "name": "amounts",
          "type": "uint256[]"
        },
        {
          "internalType": "bytes",
          "name": "data",
          "type": "bytes"
        }
      ],
      "name": "safeBatchTransferFrom",
      "outputs": [],
      "stateMutability": "nonpayable",
      "type": "function"
    },
    {
      "inputs": [
        {
          "internalType": "address",
          "name": "from",
          "type": "address"
        },
        {
          "internalType": "address",
          "name": "to",
          "type": "address"
        },
        {
          "internalType": "uint256",
          "name": "id",
          "type": "uint256"
        },
        {
          "internalType": "uint256",
          "name": "amount",
          "type": "uint256"
        },
        {
          "internalType": "bytes",
          "name": "data",
          "type": "bytes"
        }
      ],
      "name": "safeTransferFrom",
      "outputs": [],
      "stateMutability": "nonpayable",
      "type": "function"
    },
    {
      "inputs": [
        {
          "internalType": "address",
          "name": "operator",
          "type": "address"
        },
        {
          "internalType": "bool",
          "name": "approved",
          "type": "bool"
        }
      ],
      "name": "setApprovalForAll",
      "outputs": [],
      "stateMutability": "nonpayable",
      "type": "function"
    },
    {
      "inputs": [
        {
          "internalType": "bytes4",
          "name": "interfaceId",
          "type": "bytes4"
        }
      ],
      "name": "supportsInterface",
      "outputs": [
        {
          "internalType": "bool",
          "name": "",
          "type": "bool"
        }
      ],
      "stateMutability": "view",
      "type": "function"
    },
    {
      "inputs": [
        {
          "internalType": "uint256",
          "name": "",
          "type": "uint256"
        }
      ],
      "name": "uri",
      "outputs": [
        {
          "internalType": "string",
          "name": "",
          "type": "string"
        }
      ],
      "stateMutability": "view",
      "type": "function"
    }
  ],
  "bytecode": {
    "object": "0x60806040523480156200001157600080fd5b50604051620059b7380380620059b7833981016040819052620000349162000381565b7f7ea70f837234357ec1bb5b777e04453ebaf3ca778a98805c4bb20a738d559a2160001b81818162000071828260200151620000d560201b60201c565b60208101516040517fbea766d03fa1efd3f81cc8634d08320bc62bb0ed9234ac59bbaafa5893fb6b1391620000aa91339130916200048f565b60405180910390a18051620000bf906200011c565b50620000cc9050620001b3565b505050620005a5565b805160208201208281146200010c5760405163074fe10f60e41b815260048101849052602481018290526044015b60405180910390fd5b620001178262000271565b505050565b60408051600080825260208201818152828401938490526331a66b6560e01b90935291829182916001600160a01b038616916331a66b659162000164919060448201620004fe565b6060604051808303816000875af115801562000184573d6000803e3d6000fd5b505050506040513d601f19601f82011682018060405250810190620001aa919062000535565b50505050505050565b600054610100900460ff16156200021d5760405162461bcd60e51b815260206004820152602760248201527f496e697469616c697a61626c653a20636f6e747261637420697320696e697469604482015266616c697a696e6760c81b606482015260840162000103565b60005460ff908116146200026f576000805460ff191660ff9081179091556040519081527f7f26b83ff96e1f2b6a682f133852f6798a09c465da95921460cefb38474024989060200160405180910390a15b565b6200027c81620002a1565b6200029e5780604051630c89984b60e31b815260040162000103919062000589565b50565b6000600882511015620002b657506000919050565b50600801516001600160401b031667ff0a89c674ee78741490565b634e487b7160e01b600052604160045260246000fd5b604080519081016001600160401b03811182821017156200030c576200030c620002d1565b60405290565b604051601f8201601f191681016001600160401b03811182821017156200033d576200033d620002d1565b604052919050565b6001600160a01b03811681146200029e57600080fd5b60005b83811015620003785781810151838201526020016200035e565b50506000910152565b600060208083850312156200039557600080fd5b82516001600160401b0380821115620003ad57600080fd5b9084019060408287031215620003c257600080fd5b620003cc620002e7565b8251620003d98162000345565b81528284015182811115620003ed57600080fd5b80840193505086601f8401126200040357600080fd5b825182811115620004185762000418620002d1565b6200042c601f8201601f1916860162000312565b925080835287858286010111156200044357600080fd5b62000454818685018787016200035b565b5092830152509392505050565b600081518084526200047b8160208601602086016200035b565b601f01601f19169290920160200192915050565b60018060a01b0384168152826020820152606060408201526000620004b8606083018462000461565b95945050505050565b600081518084526020808501945080840160005b83811015620004f357815187529582019590820190600101620004d5565b509495945050505050565b6060815260006060820152608060208201526000620005216080830185620004c1565b8281036040840152620004b88185620004c1565b6000806000606084860312156200054b57600080fd5b8351620005588162000345565b60208501519093506200056b8162000345565b60408501519092506200057e8162000345565b809150509250925092565b6020815260006200059e602083018462000461565b9392505050565b61540280620005b56000396000f3fe608060405234801561001057600080fd5b50600436106100f45760003560e01c806390bcad6911610097578063e985e9c511610066578063e985e9c514610279578063f23a6e61146102c3578063f242432a146102fb578063f83d765a1461030e57600080fd5b806390bcad69146101ee578063a22cb4651461020e578063ac9650d814610221578063bc197c811461024157600080fd5b8063150b7a02116100d3578063150b7a02146101625780632eb2c2d6146101a6578063439fab91146101bb5780634e1273f4146101ce57600080fd5b8062fdd58e146100f957806301ffc9a71461011f5780630e89341c14610142575b600080fd5b61010c610107366004613dbc565b610321565b6040519081526020015b60405180910390f35b61013261012d366004613e16565b610404565b6040519015158152602001610116565b610155610150366004613e33565b61040f565b6040516101169190613eba565b610175610170366004614009565b6104a4565b6040517fffffffff000000000000000000000000000000000000000000000000000000009091168152602001610116565b6101b96101b436600461410a565b6104ce565b005b61010c6101c93660046141b8565b610597565b6101e16101dc36600461422a565b610960565b6040516101169190614332565b6102016101fc36600461446f565b610ab8565b60405161011691906145fc565b6101b961021c3660046147a4565b610b02565b61023461022f3660046147dd565b610b11565b6040516101169190614840565b61017561024f36600461410a565b7fbc197c810000000000000000000000000000000000000000000000000000000095945050505050565b6101326102873660046148c0565b73ffffffffffffffffffffffffffffffffffffffff91821660009081526101616020908152604080832093909416825291909152205460ff1690565b6101756102d13660046148ee565b7ff23a6e610000000000000000000000000000000000000000000000000000000095945050505050565b6101b96103093660046148ee565b610bff565b61020161031c36600461446f565b610cc1565b600073ffffffffffffffffffffffffffffffffffffffff83166103cb576040517f08c379a000000000000000000000000000000000000000000000000000000000815260206004820152602a60248201527f455243313135353a2061646472657373207a65726f206973206e6f742061207660448201527f616c6964206f776e65720000000000000000000000000000000000000000000060648201526084015b60405180910390fd5b5060008181526101606020908152604080832073ffffffffffffffffffffffffffffffffffffffff861684529091529020545b92915050565b60006103fe82610cd4565b6060610162805461041f90614957565b80601f016020809104026020016040519081016040528092919081815260200182805461044b90614957565b80156104985780601f1061046d57610100808354040283529160200191610498565b820191906000526020600020905b81548152906001019060200180831161047b57829003601f168201915b50505050509050919050565b7f150b7a02000000000000000000000000000000000000000000000000000000005b949350505050565b73ffffffffffffffffffffffffffffffffffffffff85163314806104f757506104f78533610287565b610583576040517f08c379a000000000000000000000000000000000000000000000000000000000815260206004820152602e60248201527f455243313135353a2063616c6c6572206973206e6f7420746f6b656e206f776e60448201527f6572206f7220617070726f76656400000000000000000000000000000000000060648201526084016103c2565b6105908585858585610d76565b5050505050565b60008054610100900460ff16158080156105b85750600054600160ff909116105b806105d25750303b1580156105d2575060005460ff166001145b61065e576040517f08c379a000000000000000000000000000000000000000000000000000000000815260206004820152602e60248201527f496e697469616c697a61626c653a20636f6e747261637420697320616c72656160448201527f647920696e697469616c697a656400000000000000000000000000000000000060648201526084016103c2565b600080547fffffffffffffffffffffffffffffffffffffffffffffffffffffffffffffff0016600117905580156106bc57600080547fffffffffffffffffffffffffffffffffffffffffffffffffffffffffffff00ff166101001790555b60006106ca84860186614abd565b90507f235ab67e12db833f863edb3e6493ffbf03ef82799bd69fcb92a74427b79696e833826040516106fd929190614be1565b60405180910390a161070d6110c3565b805161071890611164565b60408101516107329061072d60036002614d0b565b611207565b600061074582602001516020015161151d565b11801561076857506000610766826020015160200151600061ffff1661153b565b115b156108d25761019280547fffffffffffffffffffffffffffffffffffffffffffffffffffffffffffffff001660011790556020808201518051918101516040909101516000928392839273ffffffffffffffffffffffffffffffffffffffff909216916331a66b6591906107ee8560408051600181526020810192909252818101905290565b6040518463ffffffff1660e01b815260040161080c93929190614d1e565b6060604051808303816000875af115801561082b573d6000803e3d6000fd5b505050506040513d601f19601f8201168201806040525081019061084f9190614d57565b6040805160608101825273ffffffffffffffffffffffffffffffffffffffff9485168082529385166020820181905292909416930183905261019380547fffffffffffffffffffffffff00000000000000000000000000000000000000009081169093179055610194805483169091179055610195805490911690911790555050505b7fe0e57eda3f08f2a93bbe980d3df7f9c315eac41181f58b865a13d917fe769fc3925050801561095957600080547fffffffffffffffffffffffffffffffffffffffffffffffffffffffffffff00ff169055604051600181527f7f26b83ff96e1f2b6a682f133852f6798a09c465da95921460cefb38474024989060200160405180910390a15b5092915050565b606081518351146109f3576040517f08c379a000000000000000000000000000000000000000000000000000000000815260206004820152602960248201527f455243313135353a206163636f756e747320616e6420696473206c656e67746860448201527f206d69736d61746368000000000000000000000000000000000000000000000060648201526084016103c2565b6000835167ffffffffffffffff811115610a0f57610a0f613ecd565b604051908082528060200260200182016040528015610a38578160200160208202803683370190505b50905060005b8451811015610ab057610a83858281518110610a5c57610a5c614da4565b6020026020010151858381518110610a7657610a76614da4565b6020026020010151610321565b828281518110610a9557610a95614da4565b6020908102919091010152610aa981614dd3565b9050610a3e565b509392505050565b610ac0613d58565b6000610ae7610ae18560408051600181526020810192909252818101905290565b84611554565b90506000610af58683611864565b50925050505b9392505050565b610b0d338383611992565b5050565b60608167ffffffffffffffff811115610b2c57610b2c613ecd565b604051908082528060200260200182016040528015610b5f57816020015b6060815260200190600190039081610b4a5790505b50905060005b8281101561095957610bcf30858584818110610b8357610b83614da4565b9050602002810190610b959190614e0b565b8080601f016020809104026020016040519081016040528093929190818152602001838380828437600092019190915250611ae692505050565b828281518110610be157610be1614da4565b60200260200101819052508080610bf790614dd3565b915050610b65565b73ffffffffffffffffffffffffffffffffffffffff8516331480610c285750610c288533610287565b610cb4576040517f08c379a000000000000000000000000000000000000000000000000000000000815260206004820152602e60248201527f455243313135353a2063616c6c6572206973206e6f7420746f6b656e206f776e60448201527f6572206f7220617070726f76656400000000000000000000000000000000000060648201526084016103c2565b6105908585858585611b0b565b610cc9613d58565b6104c6848484611d5d565b60007fffffffff0000000000000000000000000000000000000000000000000000000082167fd9b67a26000000000000000000000000000000000000000000000000000000001480610d6757507fffffffff0000000000000000000000000000000000000000000000000000000082167f0e89341c00000000000000000000000000000000000000000000000000000000145b806103fe57506103fe82611f15565b8151835114610e07576040517f08c379a000000000000000000000000000000000000000000000000000000000815260206004820152602860248201527f455243313135353a2069647320616e6420616d6f756e7473206c656e6774682060448201527f6d69736d6174636800000000000000000000000000000000000000000000000060648201526084016103c2565b73ffffffffffffffffffffffffffffffffffffffff8416610eaa576040517f08c379a000000000000000000000000000000000000000000000000000000000815260206004820152602560248201527f455243313135353a207472616e7366657220746f20746865207a65726f20616460448201527f647265737300000000000000000000000000000000000000000000000000000060648201526084016103c2565b3360005b8451811015611020576000858281518110610ecb57610ecb614da4565b602002602001015190506000858381518110610ee957610ee9614da4565b60209081029190910181015160008481526101608352604080822073ffffffffffffffffffffffffffffffffffffffff8e168352909352919091205490915081811015610fb8576040517f08c379a000000000000000000000000000000000000000000000000000000000815260206004820152602a60248201527f455243313135353a20696e73756666696369656e742062616c616e636520666f60448201527f72207472616e736665720000000000000000000000000000000000000000000060648201526084016103c2565b60008381526101606020908152604080832073ffffffffffffffffffffffffffffffffffffffff8e8116855292528083208585039055908b16825281208054849290611005908490614d0b565b925050819055505050508061101990614dd3565b9050610eae565b508473ffffffffffffffffffffffffffffffffffffffff168673ffffffffffffffffffffffffffffffffffffffff168273ffffffffffffffffffffffffffffffffffffffff167f4a39dc06d4c0dbc64b70af90fd698a233a518aa5d07e595d983b8c0526c8f7fb8787604051611097929190614e70565b60405180910390a46110ad818787878787611fac565b6110bb818787878787612232565b505050505050565b600054610100900460ff1661115a576040517f08c379a000000000000000000000000000000000000000000000000000000000815260206004820152602b60248201527f496e697469616c697a61626c653a20636f6e7472616374206973206e6f74206960448201527f6e697469616c697a696e6700000000000000000000000000000000000000000060648201526084016103c2565b6111626124c5565b565b600054610100900460ff166111fb576040517f08c379a000000000000000000000000000000000000000000000000000000000815260206004820152602b60248201527f496e697469616c697a61626c653a20636f6e7472616374206973206e6f74206960448201527f6e697469616c697a696e6700000000000000000000000000000000000000000060648201526084016103c2565b61120481612562565b50565b600054610100900460ff1661129e576040517f08c379a000000000000000000000000000000000000000000000000000000000815260206004820152602b60248201527f496e697469616c697a61626c653a20636f6e7472616374206973206e6f74206960448201527f6e697469616c697a696e6700000000000000000000000000000000000000000060648201526084016103c2565b6112a6612602565b6112ae612602565b6112b6612602565b60038110156112f4576040517fb0682cf3000000000000000000000000000000000000000000000000000000008152600481018290526024016103c2565b61132e6040518060600160405280600073ffffffffffffffffffffffffffffffffffffffff16815260200160608152602001606081525090565b60408051606081018252600080825260208201819052918101829052905b84518110156105905784818151811061136757611367614da4565b602002602001015192506000806000856000015173ffffffffffffffffffffffffffffffffffffffff166331a66b65876020015188604001516113bc8b60408051600181526020810192909252818101905290565b6040518463ffffffff1660e01b81526004016113da93929190614d1e565b6060604051808303816000875af11580156113f9573d6000803e3d6000fd5b505050506040513d601f19601f8201168201806040525081019061141d9190614d57565b92509250925060405180606001604052808473ffffffffffffffffffffffffffffffffffffffff1681526020018373ffffffffffffffffffffffffffffffffffffffff1681526020018273ffffffffffffffffffffffffffffffffffffffff168152509450600161015f6000611494886060902090565b81526020808201929092526040908101600020929092558151338152875173ffffffffffffffffffffffffffffffffffffffff9081168284015291880151821681840152918701511660608201527fed510090abe2a95b97a621e3d2c947ea3c26eced1c87470474d17e353dcc53389060800160405180910390a150505080600101905061134c565b6000815160000361153057506000919050565b506020015160001a90565b6000806115488484612699565b5160001a949350505050565b60606000825167ffffffffffffffff81111561157257611572613ecd565b60405190808252806020026020018201604052801561159b578160200160208202803683370190505b5090506000808451116115af5760006115b5565b83516001015b855160010101905060008167ffffffffffffffff8111156115d8576115d8613ecd565b60405190808252806020026020018201604052801561160b57816020015b60608152602001906001900390816115f65790505b5090506000611630604080516002815233602082015230818301526060810190915290565b82828151811061164257611642614da4565b602002602001018190525060005b87518110156116a057818060010192505087818151811061167357611673614da4565b602002602001015183838151811061168d5761168d614da4565b6020908102919091010152600101611650565b5085511561185a578080600101915050838282815181106116c3576116c3614da4565b602002602001018190525060005b8651811015611858576117828782815181106116ef576116ef614da4565b60200260200101516000015161175f61172c8a858151811061171357611713614da4565b6020026020010151602001518051602090810291012090565b7f19457468657265756d205369676e6564204d6573736167653a0a3332000000006000908152601c91909152603c902090565b89848151811061177157611771614da4565b6020026020010151604001516126ca565b6117bb576040517f52bf9848000000000000000000000000000000000000000000000000000000008152600481018290526024016103c2565b8681815181106117cd576117cd614da4565b60200260200101516000015173ffffffffffffffffffffffffffffffffffffffff1685828151811061180157611801614da4565b602002602001018181525050818060010192505086818151811061182757611827614da4565b60200260200101516020015183838151811061184557611845614da4565b60209081029190910101526001016116d1565b505b5095945050505050565b61186c613d58565b60608060606000806000806118818a8a612745565b60408051808201909152601a81527f5241494e5f464c4f575f455243313135355f53454e54494e454c000000000000602090910152919450925090506118ea83837ff3d9dabdb0009f2a4a1d315a6b607c74e619b5620e01f1130e4142970ffaf76760036128a1565b60408051808201909152601a81527f5241494e5f464c4f575f455243313135355f53454e54494e454c0000000000006020909101529650869450915061195383837ff3d9dabdb0009f2a4a1d315a6b607c74e619b5620e01f1130e4142970ffaf76760036128a1565b8095508193505050839450604051806060016040528087815260200186815260200161197f858561294d565b90529750955050505050505b9250929050565b8173ffffffffffffffffffffffffffffffffffffffff168373ffffffffffffffffffffffffffffffffffffffff1603611a4d576040517f08c379a000000000000000000000000000000000000000000000000000000000815260206004820152602960248201527f455243313135353a2073657474696e6720617070726f76616c2073746174757360448201527f20666f722073656c66000000000000000000000000000000000000000000000060648201526084016103c2565b73ffffffffffffffffffffffffffffffffffffffff8381166000818152610161602090815260408083209487168084529482529182902080547fffffffffffffffffffffffffffffffffffffffffffffffffffffffffffffff001686151590811790915591519182527f17307eab39ab6107e8899845ad3d59bd9653f200f220920489ca2b5937696c31910160405180910390a3505050565b6060610afb83836040518060600160405280602781526020016153db60279139612ad4565b73ffffffffffffffffffffffffffffffffffffffff8416611bae576040517f08c379a000000000000000000000000000000000000000000000000000000000815260206004820152602560248201527f455243313135353a207472616e7366657220746f20746865207a65726f20616460448201527f647265737300000000000000000000000000000000000000000000000000000060648201526084016103c2565b336000611bba85612b4f565b90506000611bc785612b4f565b905060008681526101606020908152604080832073ffffffffffffffffffffffffffffffffffffffff8c16845290915290205485811015611c8a576040517f08c379a000000000000000000000000000000000000000000000000000000000815260206004820152602a60248201527f455243313135353a20696e73756666696369656e742062616c616e636520666f60448201527f72207472616e736665720000000000000000000000000000000000000000000060648201526084016103c2565b60008781526101606020908152604080832073ffffffffffffffffffffffffffffffffffffffff8d8116855292528083208985039055908a16825281208054889290611cd7908490614d0b565b9091555050604080518881526020810188905273ffffffffffffffffffffffffffffffffffffffff808b16928c821692918816917fc3d58168c5ae7397731d063d5bbf3d657854427343f4c083240f7aacaa2d0f62910160405180910390a4611d44848a8a86868a611fac565b611d52848a8a8a8a8a612b9a565b505050505050505050565b611d65613d58565b611d6d612d47565b6000611d8e610ae18560408051600181526020810192909252818101905290565b90507f17a5c0f3785132a57703932032f6863e7920434150aa1dc940e567b440fdce1f3382604051611dc1929190614eea565b60405180910390a1600080611dd68784611864565b9150915060005b825151811015611e6d57611e6583600001518281518110611e0057611e00614da4565b60200260200101516000015184600001518381518110611e2257611e22614da4565b60200260200101516020015185600001518481518110611e4457611e44614da4565b60200260200101516040015160405180602001604052806000815250612dba565b600101611ddd565b5060005b826020015151811015611ef457611eec83602001518281518110611e9757611e97614da4565b60200260200101516000015184602001518381518110611eb957611eb9614da4565b60200260200101516020015185602001518481518110611edb57611edb614da4565b602002602001015160400151612f34565b600101611e71565b50611f08826040015188602001518361314d565b50915050610afb60018055565b60007fffffffff0000000000000000000000000000000000000000000000000000000082167f4e2312e00000000000000000000000000000000000000000000000000000000014806103fe57507f01ffc9a7000000000000000000000000000000000000000000000000000000007fffffffff000000000000000000000000000000000000000000000000000000008316146103fe565b6101925460ff168015611ff3575073ffffffffffffffffffffffffffffffffffffffff85161580611ff1575073ffffffffffffffffffffffffffffffffffffffff8416155b155b156110bb5760408051606080820183526101935473ffffffffffffffffffffffffffffffffffffffff908116835261019454811660208085019190915261019554821684860152845160038082528c8416928201929092528a831681870152918916828401526080820190815260a0820182905260c0820188905260e0820187905260006101008301818152610120909301909552929391926120eb929091906120e5565b6120d26040518060600160405280600073ffffffffffffffffffffffffffffffffffffffff16815260200160608152602001606081525090565b8152602001906001900390816120985790505b50611554565b9050600080836000015173ffffffffffffffffffffffffffffffffffffffff16636715f8258560200151600061212488604001516131fc565b876040518563ffffffff1660e01b81526004016121449493929190614f19565b600060405180830381865afa158015612161573d6000803e3d6000fd5b505050506040513d6000823e601f3d9081017fffffffffffffffffffffffffffffffffffffffffffffffffffffffffffffffe01682016040526121a79190810190614fba565b805191935091501561222657836020015173ffffffffffffffffffffffffffffffffffffffff1663946aadc66000836040518363ffffffff1660e01b81526004016121f3929190615014565b600060405180830381600087803b15801561220d57600080fd5b505af1158015612221573d6000803e3d6000fd5b505050505b50505050505050505050565b73ffffffffffffffffffffffffffffffffffffffff84163b156110bb576040517fbc197c8100000000000000000000000000000000000000000000000000000000815273ffffffffffffffffffffffffffffffffffffffff85169063bc197c81906122a9908990899088908890889060040161502d565b6020604051808303816000875af1925050508015612302575060408051601f3d9081017fffffffffffffffffffffffffffffffffffffffffffffffffffffffffffffffe01682019092526122ff91810190615098565b60015b6123eb5761230e6150b5565b806308c379a00361236157506123226150d1565b8061232d5750612363565b806040517f08c379a00000000000000000000000000000000000000000000000000000000081526004016103c29190613eba565b505b6040517f08c379a000000000000000000000000000000000000000000000000000000000815260206004820152603460248201527f455243313135353a207472616e7366657220746f206e6f6e2d4552433131353560448201527f526563656976657220696d706c656d656e74657200000000000000000000000060648201526084016103c2565b7fffffffff0000000000000000000000000000000000000000000000000000000081167fbc197c8100000000000000000000000000000000000000000000000000000000146124bc576040517f08c379a000000000000000000000000000000000000000000000000000000000815260206004820152602860248201527f455243313135353a204552433131353552656365697665722072656a6563746560448201527f6420746f6b656e7300000000000000000000000000000000000000000000000060648201526084016103c2565b50505050505050565b600054610100900460ff1661255c576040517f08c379a000000000000000000000000000000000000000000000000000000000815260206004820152602b60248201527f496e697469616c697a61626c653a20636f6e7472616374206973206e6f74206960448201527f6e697469616c697a696e6700000000000000000000000000000000000000000060648201526084016103c2565b60018055565b600054610100900460ff166125f9576040517f08c379a000000000000000000000000000000000000000000000000000000000815260206004820152602b60248201527f496e697469616c697a61626c653a20636f6e7472616374206973206e6f74206960448201527f6e697469616c697a696e6700000000000000000000000000000000000000000060648201526084016103c2565b61120481613222565b600054610100900460ff16611162576040517f08c379a000000000000000000000000000000000000000000000000000000000815260206004820152602b60248201527f496e697469616c697a61626c653a20636f6e7472616374206973206e6f74206960448201527f6e697469616c697a696e6700000000000000000000000000000000000000000060648201526084016103c2565b6000806126a58461151d565b600202600101905060006126b9858561322f565b949091019093016020019392505050565b60008060006126d985856132a7565b909250905060008160048111156126f2576126f2615179565b14801561272a57508573ffffffffffffffffffffffffffffffffffffffff168273ffffffffffffffffffffffffffffffffffffffff16145b8061273b575061273b8686866132e9565b9695505050505050565b60008060606000612757866060902090565b600081815261015f60205260409020549091506127a3576040517f7a80ba4d000000000000000000000000000000000000000000000000000000008152600481018290526024016103c2565b5084516020808701516040880151600093849373ffffffffffffffffffffffffffffffffffffffff90911692636715f8259290918591901b77ffffffffffffffffffffffffffffffffffffffff000000001661ffff178a6040518563ffffffff1660e01b81526004016128199493929190614f19565b600060405180830381865afa158015612836573d6000803e3d6000fd5b505050506040513d6000823e601f3d9081017fffffffffffffffffffffffffffffffffffffffffffffffffffffffffffffffe016820160405261287c9190810190614fba565b9150915061288a8260200190565b825190986020918202909301019650945092505050565b60008060208302855b878111156128ce5760208103868151036128c55793506128ce565b508190036128aa565b508260000361290c576040517fd457746f000000000000000000000000000000000000000000000000000000008152600481018690526024016103c2565b604051915060208201602084015b8781101561293257808252602090910190820161291a565b50806040526001602084830304038352505094509492505050565b61297160405180606001604052806060815260200160608152602001606081525090565b60408051808201909152601281527f5241494e5f464c4f575f53454e54494e454c00000000000000000000000000006020909101526060808060006129d987877ffea74d0c9bf4a3c28f0dd0674db22a3d7f8bf259c56af19f4ac1e735b156974f60046128a1565b60408051808201909152601281527f5241494e5f464c4f575f53454e54494e454c00000000000000000000000000006020909101529096509350839050612a4387877ffea74d0c9bf4a3c28f0dd0674db22a3d7f8bf259c56af19f4ac1e735b156974f60046128a1565b60408051808201909152601281527f5241494e5f464c4f575f53454e54494e454c00000000000000000000000000006020909101529096509250829050612aad87877ffea74d0c9bf4a3c28f0dd0674db22a3d7f8bf259c56af19f4ac1e735b156974f60056128a1565b60408051606081018252968752602087019590955293850193909352509195945050505050565b60606000808573ffffffffffffffffffffffffffffffffffffffff1685604051612afe91906151a8565b600060405180830381855af49150503d8060008114612b39576040519150601f19603f3d011682016040523d82523d6000602084013e612b3e565b606091505b509150915061273b86838387613446565b60408051600180825281830190925260609160009190602080830190803683370190505090508281600081518110612b8957612b89614da4565b602090810291909101015292915050565b73ffffffffffffffffffffffffffffffffffffffff84163b156110bb576040517ff23a6e6100000000000000000000000000000000000000000000000000000000815273ffffffffffffffffffffffffffffffffffffffff85169063f23a6e6190612c1190899089908890889088906004016151c4565b6020604051808303816000875af1925050508015612c6a575060408051601f3d9081017fffffffffffffffffffffffffffffffffffffffffffffffffffffffffffffffe0168201909252612c6791810190615098565b60015b612c765761230e6150b5565b7fffffffff0000000000000000000000000000000000000000000000000000000081167ff23a6e6100000000000000000000000000000000000000000000000000000000146124bc576040517f08c379a000000000000000000000000000000000000000000000000000000000815260206004820152602860248201527f455243313135353a204552433131353552656365697665722072656a6563746560448201527f6420746f6b656e7300000000000000000000000000000000000000000000000060648201526084016103c2565b600260015403612db3576040517f08c379a000000000000000000000000000000000000000000000000000000000815260206004820152601f60248201527f5265656e7472616e637947756172643a207265656e7472616e742063616c6c0060448201526064016103c2565b6002600155565b73ffffffffffffffffffffffffffffffffffffffff8416612e5d576040517f08c379a000000000000000000000000000000000000000000000000000000000815260206004820152602160248201527f455243313135353a206d696e7420746f20746865207a65726f2061646472657360448201527f730000000000000000000000000000000000000000000000000000000000000060648201526084016103c2565b336000612e6985612b4f565b90506000612e7685612b4f565b905060008681526101606020908152604080832073ffffffffffffffffffffffffffffffffffffffff8b16845290915281208054879290612eb8908490614d0b565b9091555050604080518781526020810187905273ffffffffffffffffffffffffffffffffffffffff808a1692600092918716917fc3d58168c5ae7397731d063d5bbf3d657854427343f4c083240f7aacaa2d0f62910160405180910390a4612f2583600089858589611fac565b6124bc83600089898989612b9a565b73ffffffffffffffffffffffffffffffffffffffff8316612fd7576040517f08c379a000000000000000000000000000000000000000000000000000000000815260206004820152602360248201527f455243313135353a206275726e2066726f6d20746865207a65726f206164647260448201527f657373000000000000000000000000000000000000000000000000000000000060648201526084016103c2565b336000612fe384612b4f565b90506000612ff084612b4f565b6040805160208082018352600091829052888252610160815282822073ffffffffffffffffffffffffffffffffffffffff8b16835290522054909150848110156130bb576040517f08c379a0000000000000000000000000000000000000000000000000000000008152602060048201526024808201527f455243313135353a206275726e20616d6f756e7420657863656564732062616c60448201527f616e63650000000000000000000000000000000000000000000000000000000060648201526084016103c2565b60008681526101606020908152604080832073ffffffffffffffffffffffffffffffffffffffff8b81168086529184528285208a8703905582518b81529384018a90529092908816917fc3d58168c5ae7397731d063d5bbf3d657854427343f4c083240f7aacaa2d0f62910160405180910390a46124bc84886000868660405180602001604052806000815250611fac565b8051156131dc576040517f946aadc600000000000000000000000000000000000000000000000000000000815273ffffffffffffffffffffffffffffffffffffffff83169063946aadc6906131a9906000908590600401615014565b600060405180830381600087803b1580156131c357600080fd5b505af11580156131d7573d6000803e3d6000fd5b505050505b6131e5836134e6565b6131ee8361363f565b6131f7836137d0565b505050565b6000602082901b77ffffffffffffffffffffffffffffffffffffffff00000000166103fe565b610162610b0d828261524f565b6002810282016003015161ffff1660006132488461151d565b8451909150600560028302840101908111806132645750818410155b1561329f5784846040517fd3fc97bd0000000000000000000000000000000000000000000000000000000081526004016103c2929190615369565b505092915050565b60008082516041036132dd5760208301516040840151606085015160001a6132d187828585613980565b9450945050505061198b565b5060009050600261198b565b60008060008573ffffffffffffffffffffffffffffffffffffffff16631626ba7e60e01b868660405160240161332092919061538b565b604080517fffffffffffffffffffffffffffffffffffffffffffffffffffffffffffffffe08184030181529181526020820180517bffffffffffffffffffffffffffffffffffffffffffffffffffffffff167fffffffff000000000000000000000000000000000000000000000000000000009094169390931790925290516133a991906151a8565b600060405180830381855afa9150503d80600081146133e4576040519150601f19603f3d011682016040523d82523d6000602084013e6133e9565b606091505b50915091508180156133fd57506020815110155b801561273b575080517f1626ba7e000000000000000000000000000000000000000000000000000000009061343b90830160209081019084016153a4565b149695505050505050565b606083156134dc5782516000036134d55773ffffffffffffffffffffffffffffffffffffffff85163b6134d5576040517f08c379a000000000000000000000000000000000000000000000000000000000815260206004820152601d60248201527f416464726573733a2063616c6c20746f206e6f6e2d636f6e747261637400000060448201526064016103c2565b50816104c6565b6104c68383613a6f565b6040805160808101825260008082526020820181905291810182905260608101829052905b8251518110156131f757825180518290811061352957613529614da4565b602002602001015191503373ffffffffffffffffffffffffffffffffffffffff16826020015173ffffffffffffffffffffffffffffffffffffffff16036135a05760408201516060830151835161359b9273ffffffffffffffffffffffffffffffffffffffff90911691339190613a7f565b613637565b3073ffffffffffffffffffffffffffffffffffffffff16826020015173ffffffffffffffffffffffffffffffffffffffff16036136055760408201516060830151835161359b9273ffffffffffffffffffffffffffffffffffffffff90911691613b61565b6040517fa521c60f00000000000000000000000000000000000000000000000000000000815260040160405180910390fd5b60010161350b565b6040805160808101825260008082526020820181905291810182905260608101829052905b8260200151518110156131f7578260200151818151811061368757613687614da4565b602002602001015191503373ffffffffffffffffffffffffffffffffffffffff16826020015173ffffffffffffffffffffffffffffffffffffffff16141580156136eb5750602082015173ffffffffffffffffffffffffffffffffffffffff163014155b15613722576040517f3a5befc500000000000000000000000000000000000000000000000000000000815260040160405180910390fd5b81516020830151604080850151606086015191517f42842e0e00000000000000000000000000000000000000000000000000000000815273ffffffffffffffffffffffffffffffffffffffff9384166004820152908316602482015260448101919091529116906342842e0e90606401600060405180830381600087803b1580156137ac57600080fd5b505af11580156137c0573d6000803e3d6000fd5b5050600190920191506136649050565b6040805160a0810182526000808252602082018190529181018290526060810182905260808101829052905b8260400151518110156131f7578260400151818151811061381f5761381f614da4565b602002602001015191503373ffffffffffffffffffffffffffffffffffffffff16826020015173ffffffffffffffffffffffffffffffffffffffff16141580156138835750602082015173ffffffffffffffffffffffffffffffffffffffff163014155b156138ba576040517fc6a91ecc00000000000000000000000000000000000000000000000000000000815260040160405180910390fd5b815160208301516040808501516060860151608087015192517ff242432a00000000000000000000000000000000000000000000000000000000815273ffffffffffffffffffffffffffffffffffffffff948516600482015291841660248301526044820152606481019190915260a06084820152600060a482015291169063f242432a9060c401600060405180830381600087803b15801561395c57600080fd5b505af1158015613970573d6000803e3d6000fd5b5050600190920191506137fc9050565b6000807f7fffffffffffffffffffffffffffffff5d576e7357a4501ddfe92f46681b20a08311156139b75750600090506003613a66565b6040805160008082526020820180845289905260ff881692820192909252606081018690526080810185905260019060a0016020604051602081039080840390855afa158015613a0b573d6000803e3d6000fd5b50506040517fffffffffffffffffffffffffffffffffffffffffffffffffffffffffffffffe0015191505073ffffffffffffffffffffffffffffffffffffffff8116613a5f57600060019250925050613a66565b9150600090505b94509492505050565b81511561232d5781518083602001fd5b60405173ffffffffffffffffffffffffffffffffffffffff80851660248301528316604482015260648101829052613b5b9085907f23b872dd00000000000000000000000000000000000000000000000000000000906084015b604080517fffffffffffffffffffffffffffffffffffffffffffffffffffffffffffffffe08184030181529190526020810180517bffffffffffffffffffffffffffffffffffffffffffffffffffffffff167fffffffff0000000000000000000000000000000000000000000000000000000090931692909217909152613bb7565b50505050565b60405173ffffffffffffffffffffffffffffffffffffffff83166024820152604481018290526131f79084907fa9059cbb0000000000000000000000000000000000000000000000000000000090606401613ad9565b6000613c19826040518060400160405280602081526020017f5361666545524332303a206c6f772d6c6576656c2063616c6c206661696c65648152508573ffffffffffffffffffffffffffffffffffffffff16613cc69092919063ffffffff16565b9050805160001480613c3a575080806020019051810190613c3a91906153bd565b6131f7576040517f08c379a000000000000000000000000000000000000000000000000000000000815260206004820152602a60248201527f5361666545524332303a204552433230206f7065726174696f6e20646964206e60448201527f6f7420737563636565640000000000000000000000000000000000000000000060648201526084016103c2565b60606104c68484600085856000808673ffffffffffffffffffffffffffffffffffffffff168587604051613cfa91906151a8565b60006040518083038185875af1925050503d8060008114613d37576040519150601f19603f3d011682016040523d82523d6000602084013e613d3c565b606091505b5091509150613d4d87838387613446565b979650505050505050565b60405180606001604052806060815260200160608152602001613d9560405180606001604052806060815260200160608152602001606081525090565b905290565b73ffffffffffffffffffffffffffffffffffffffff8116811461120457600080fd5b60008060408385031215613dcf57600080fd5b8235613dda81613d9a565b946020939093013593505050565b7fffffffff000000000000000000000000000000000000000000000000000000008116811461120457600080fd5b600060208284031215613e2857600080fd5b8135610afb81613de8565b600060208284031215613e4557600080fd5b5035919050565b60005b83811015613e67578181015183820152602001613e4f565b50506000910152565b60008151808452613e88816020860160208601613e4c565b601f017fffffffffffffffffffffffffffffffffffffffffffffffffffffffffffffffe0169290920160200192915050565b602081526000610afb6020830184613e70565b7f4e487b7100000000000000000000000000000000000000000000000000000000600052604160045260246000fd5b6060810181811067ffffffffffffffff82111715613f1c57613f1c613ecd565b60405250565b7fffffffffffffffffffffffffffffffffffffffffffffffffffffffffffffffe0601f830116810181811067ffffffffffffffff82111715613f6657613f66613ecd565b6040525050565b600067ffffffffffffffff831115613f8757613f87613ecd565b604051613fbc60207fffffffffffffffffffffffffffffffffffffffffffffffffffffffffffffffe0601f8701160182613f22565b809150838152848484011115613fd157600080fd5b83836020830137600060208583010152509392505050565b600082601f830112613ffa57600080fd5b610afb83833560208501613f6d565b6000806000806080858703121561401f57600080fd5b843561402a81613d9a565b9350602085013561403a81613d9a565b925060408501359150606085013567ffffffffffffffff81111561405d57600080fd5b61406987828801613fe9565b91505092959194509250565b600067ffffffffffffffff82111561408f5761408f613ecd565b5060051b60200190565b600082601f8301126140aa57600080fd5b813560206140b782614075565b6040516140c48282613f22565b83815260059390931b85018201928281019150868411156140e457600080fd5b8286015b848110156140ff57803583529183019183016140e8565b509695505050505050565b600080600080600060a0868803121561412257600080fd5b853561412d81613d9a565b9450602086013561413d81613d9a565b9350604086013567ffffffffffffffff8082111561415a57600080fd5b61416689838a01614099565b9450606088013591508082111561417c57600080fd5b61418889838a01614099565b9350608088013591508082111561419e57600080fd5b506141ab88828901613fe9565b9150509295509295909350565b600080602083850312156141cb57600080fd5b823567ffffffffffffffff808211156141e357600080fd5b818501915085601f8301126141f757600080fd5b81358181111561420657600080fd5b86602082850101111561421857600080fd5b60209290920196919550909350505050565b6000806040838503121561423d57600080fd5b823567ffffffffffffffff8082111561425557600080fd5b818501915085601f83011261426957600080fd5b8135602061427682614075565b6040516142838282613f22565b83815260059390931b85018201928281019150898411156142a357600080fd5b948201945b838610156142ca5785356142bb81613d9a565b825294820194908201906142a8565b965050860135925050808211156142e057600080fd5b506142ed85828601614099565b9150509250929050565b600081518084526020808501945080840160005b838110156143275781518752958201959082019060010161430b565b509495945050505050565b602081526000610afb60208301846142f7565b600082601f83011261435657600080fd5b8135602061436382614075565b604080516143718382613f22565b84815260059490941b860183019383810192508785111561439157600080fd5b8387015b8581101561446357803567ffffffffffffffff808211156143b65760008081fd5b818a0191506060807fffffffffffffffffffffffffffffffffffffffffffffffffffffffffffffffe0848e030112156143ef5760008081fd5b85516143fa81613efc565b8884013561440781613d9a565b8152838701358381111561441b5760008081fd5b6144298e8b83880101614099565b828b0152509083013590828211156144415760008081fd5b61444f8d8a84870101613fe9565b818801528752505050928401928401614395565b50979650505050505050565b600080600083850360a081121561448557600080fd5b606081121561449357600080fd5b506040516144a081613efc565b84356144ab81613d9a565b815260208501356144bb81613d9a565b602082015260408501356144ce81613d9a565b60408201529250606084013567ffffffffffffffff808211156144f057600080fd5b6144fc87838801614099565b9350608086013591508082111561451257600080fd5b5061451f86828701614345565b9150509250925092565b600081518084526020808501945080840160005b83811015614327578151805173ffffffffffffffffffffffffffffffffffffffff1688528381015184890152604090810151908801526060909601959082019060010161453d565b600081518084526020808501945080840160005b83811015614327578151805173ffffffffffffffffffffffffffffffffffffffff9081168952848201518116858a015260408083015190911690890152606080820151908901526080908101519088015260a09096019590820190600101614599565b600060208083526080845160608386015261461982860182614529565b9050828601517fffffffffffffffffffffffffffffffffffffffffffffffffffffffffffffffe0808784030160408801526146548383614529565b92506040880151915080878403016060880152506060820181516060845281815180845286860191508783019350600092505b808310156146eb576146d782855173ffffffffffffffffffffffffffffffffffffffff80825116835280602083015116602084015280604083015116604084015250606081015160608301525050565b928701926001929092019190860190614687565b5083870151858203868901528051808352908801935090870191506000905b8082101561476e5761475a83855173ffffffffffffffffffffffffffffffffffffffff80825116835280602083015116602084015280604083015116604084015250606081015160608301525050565b92870192918601916001919091019061470a565b50506040830151955083810360408501526147898187614585565b9998505050505050505050565b801515811461120457600080fd5b600080604083850312156147b757600080fd5b82356147c281613d9a565b915060208301356147d281614796565b809150509250929050565b600080602083850312156147f057600080fd5b823567ffffffffffffffff8082111561480857600080fd5b818501915085601f83011261481c57600080fd5b81358181111561482b57600080fd5b8660208260051b850101111561421857600080fd5b6000602080830181845280855180835260408601915060408160051b870101925083870160005b828110156148b3577fffffffffffffffffffffffffffffffffffffffffffffffffffffffffffffffc08886030184526148a1858351613e70565b94509285019290850190600101614867565b5092979650505050505050565b600080604083850312156148d357600080fd5b82356148de81613d9a565b915060208301356147d281613d9a565b600080600080600060a0868803121561490657600080fd5b853561491181613d9a565b9450602086013561492181613d9a565b93506040860135925060608601359150608086013567ffffffffffffffff81111561494b57600080fd5b6141ab88828901613fe9565b600181811c9082168061496b57607f821691505b6020821081036149a4577f4e487b7100000000000000000000000000000000000000000000000000000000600052602260045260246000fd5b50919050565b6000606082840312156149bc57600080fd5b6040516149c881613efc565b80915082356149d681613d9a565b8152602083013567ffffffffffffffff808211156149f357600080fd5b6149ff86838701613fe9565b60208401526040850135915080821115614a1857600080fd5b50614a2585828601614099565b6040830152505092915050565b600082601f830112614a4357600080fd5b81356020614a5082614075565b604051614a5d8282613f22565b83815260059390931b8501820192828101915086841115614a7d57600080fd5b8286015b848110156140ff57803567ffffffffffffffff811115614aa15760008081fd5b614aaf8986838b01016149aa565b845250918301918301614a81565b600060208284031215614acf57600080fd5b813567ffffffffffffffff80821115614ae757600080fd5b9083019060608286031215614afb57600080fd5b604051614b0781613efc565b823582811115614b1657600080fd5b8301601f81018713614b2757600080fd5b614b3687823560208401613f6d565b825250602083013582811115614b4b57600080fd5b614b57878286016149aa565b602083015250604083013582811115614b6f57600080fd5b614b7b87828601614a32565b60408301525095945050505050565b73ffffffffffffffffffffffffffffffffffffffff81511682526000602082015160606020850152614bbf6060850182613e70565b905060408301518482036040860152614bd882826142f7565b95945050505050565b73ffffffffffffffffffffffffffffffffffffffff8316815260006020604081840152835160606040850152614c1a60a0850182613e70565b9050818501517fffffffffffffffffffffffffffffffffffffffffffffffffffffffffffffffc080868403016060870152614c558383614b8a565b604088015187820390920160808801528151808252909350908401915083830190600581901b8401850160005b82811015614cce577fffffffffffffffffffffffffffffffffffffffffffffffffffffffffffffffe0868303018452614cbc828651614b8a565b94870194938701939150600101614c82565b509998505050505050505050565b7f4e487b7100000000000000000000000000000000000000000000000000000000600052601160045260246000fd5b808201808211156103fe576103fe614cdc565b606081526000614d316060830186613e70565b8281036020840152614d4381866142f7565b9050828103604084015261273b81856142f7565b600080600060608486031215614d6c57600080fd5b8351614d7781613d9a565b6020850151909350614d8881613d9a565b6040850151909250614d9981613d9a565b809150509250925092565b7f4e487b7100000000000000000000000000000000000000000000000000000000600052603260045260246000fd5b60007fffffffffffffffffffffffffffffffffffffffffffffffffffffffffffffffff8203614e0457614e04614cdc565b5060010190565b60008083357fffffffffffffffffffffffffffffffffffffffffffffffffffffffffffffffe1843603018112614e4057600080fd5b83018035915067ffffffffffffffff821115614e5b57600080fd5b60200191503681900382131561198b57600080fd5b604081526000614e8360408301856142f7565b8281036020840152614bd881856142f7565b600081518084526020808501808196508360051b8101915082860160005b85811015614edd578284038952614ecb8483516142f7565b98850198935090840190600101614eb3565b5091979650505050505050565b73ffffffffffffffffffffffffffffffffffffffff831681526040602082015260006104c66040830184614e95565b73ffffffffffffffffffffffffffffffffffffffff8516815283602082015282604082015260806060820152600061273b6080830184614e95565b600082601f830112614f6557600080fd5b81516020614f7282614075565b604051614f7f8282613f22565b83815260059390931b8501820192828101915086841115614f9f57600080fd5b8286015b848110156140ff5780518352918301918301614fa3565b60008060408385031215614fcd57600080fd5b825167ffffffffffffffff80821115614fe557600080fd5b614ff186838701614f54565b9350602085015191508082111561500757600080fd5b506142ed85828601614f54565b8281526040602082015260006104c660408301846142f7565b600073ffffffffffffffffffffffffffffffffffffffff808816835280871660208401525060a0604083015261506660a08301866142f7565b828103606084015261507881866142f7565b9050828103608084015261508c8185613e70565b98975050505050505050565b6000602082840312156150aa57600080fd5b8151610afb81613de8565b600060033d11156150ce5760046000803e5060005160e01c5b90565b600060443d10156150df5790565b6040517ffffffffffffffffffffffffffffffffffffffffffffffffffffffffffffffffc803d016004833e81513d67ffffffffffffffff816024840111818411171561512d57505050505090565b82850191508151818111156151455750505050505090565b843d870101602082850101111561515f5750505050505090565b61516e60208286010187613f22565b509095945050505050565b7f4e487b7100000000000000000000000000000000000000000000000000000000600052602160045260246000fd5b600082516151ba818460208701613e4c565b9190910192915050565b600073ffffffffffffffffffffffffffffffffffffffff808816835280871660208401525084604083015283606083015260a06080830152613d4d60a0830184613e70565b601f8211156131f757600081815260208120601f850160051c810160208610156152305750805b601f850160051c820191505b818110156110bb5782815560010161523c565b815167ffffffffffffffff81111561526957615269613ecd565b61527d816152778454614957565b84615209565b602080601f8311600181146152d0576000841561529a5750858301515b7fffffffffffffffffffffffffffffffffffffffffffffffffffffffffffffffff600386901b1c1916600185901b1785556110bb565b6000858152602081207fffffffffffffffffffffffffffffffffffffffffffffffffffffffffffffffe08616915b8281101561531d578886015182559484019460019091019084016152fe565b508582101561535957878501517fffffffffffffffffffffffffffffffffffffffffffffffffffffffffffffffff600388901b60f8161c191681555b5050505050600190811b01905550565b60408152600061537c6040830185613e70565b90508260208301529392505050565b8281526040602082015260006104c66040830184613e70565b6000602082840312156153b657600080fd5b5051919050565b6000602082840312156153cf57600080fd5b8151610afb8161479656fe416464726573733a206c6f772d6c6576656c2064656c65676174652063616c6c206661696c6564",
    "linkReferences": {}
  },
  "methodIdentifiers": {
    "balanceOf(address,uint256)": "00fdd58e",
    "balanceOfBatch(address[],uint256[])": "4e1273f4",
    "flow((address,address,address),uint256[],(address,uint256[],bytes)[])": "f83d765a",
    "initialize(bytes)": "439fab91",
    "isApprovedForAll(address,address)": "e985e9c5",
    "multicall(bytes[])": "ac9650d8",
    "onERC1155BatchReceived(address,address,uint256[],uint256[],bytes)": "bc197c81",
    "onERC1155Received(address,address,uint256,uint256,bytes)": "f23a6e61",
    "onERC721Received(address,address,uint256,bytes)": "150b7a02",
    "previewFlow((address,address,address),uint256[],(address,uint256[],bytes)[])": "90bcad69",
    "safeBatchTransferFrom(address,address,uint256[],uint256[],bytes)": "2eb2c2d6",
    "safeTransferFrom(address,address,uint256,uint256,bytes)": "f242432a",
    "setApprovalForAll(address,bool)": "a22cb465",
    "supportsInterface(bytes4)": "01ffc9a7",
    "uri(uint256)": "0e89341c"
  },
  "id": 67
}