{
  "abi": [
    {
      "inputs": [
        {
          "components": [
            {
              "internalType": "address",
              "name": "deployer",
              "type": "address"
            },
            {
              "internalType": "bytes",
              "name": "meta",
              "type": "bytes"
            }
          ],
          "internalType": "struct DeployerDiscoverableMetaV2ConstructionConfig",
          "name": "config",
          "type": "tuple"
        }
      ],
      "stateMutability": "nonpayable",
      "type": "constructor"
    },
    {
      "inputs": [
        {
          "internalType": "uint256",
          "name": "flowMinOutputs",
          "type": "uint256"
        }
      ],
      "name": "BadMinStackLength",
      "type": "error"
    },
    {
      "inputs": [],
      "name": "BurnerNotOwner",
      "type": "error"
    },
    {
      "inputs": [],
      "name": "InitializeSignatureFn",
      "type": "error"
    },
    {
      "inputs": [
        {
          "internalType": "uint256",
          "name": "i",
          "type": "uint256"
        }
      ],
      "name": "InvalidSignature",
      "type": "error"
    },
    {
      "inputs": [
        {
          "internalType": "Sentinel",
          "name": "sentinel",
          "type": "uint256"
        }
      ],
      "name": "MissingSentinel",
      "type": "error"
    },
    {
      "inputs": [
        {
          "internalType": "bytes",
          "name": "unmeta",
          "type": "bytes"
        }
      ],
      "name": "NotRainMetaV1",
      "type": "error"
    },
    {
      "inputs": [
        {
          "internalType": "bytes",
          "name": "bytecode",
          "type": "bytes"
        },
        {
          "internalType": "uint256",
          "name": "sourceIndex",
          "type": "uint256"
        }
      ],
      "name": "SourceOffsetOutOfBounds",
      "type": "error"
    },
    {
      "inputs": [
        {
          "internalType": "bytes32",
          "name": "expectedHash",
          "type": "bytes32"
        },
        {
          "internalType": "bytes32",
          "name": "actualHash",
          "type": "bytes32"
        }
      ],
      "name": "UnexpectedMetaHash",
      "type": "error"
    },
    {
      "inputs": [
        {
          "internalType": "bytes32",
          "name": "unregisteredHash",
          "type": "bytes32"
        }
      ],
      "name": "UnregisteredFlow",
      "type": "error"
    },
    {
      "inputs": [],
      "name": "UnsupportedERC1155Flow",
      "type": "error"
    },
    {
      "inputs": [],
      "name": "UnsupportedERC20Flow",
      "type": "error"
    },
    {
      "inputs": [],
      "name": "UnsupportedERC721Flow",
      "type": "error"
    },
    {
      "anonymous": false,
      "inputs": [
        {
          "indexed": true,
          "internalType": "address",
          "name": "owner",
          "type": "address"
        },
        {
          "indexed": true,
          "internalType": "address",
          "name": "approved",
          "type": "address"
        },
        {
          "indexed": true,
          "internalType": "uint256",
          "name": "tokenId",
          "type": "uint256"
        }
      ],
      "name": "Approval",
      "type": "event"
    },
    {
      "anonymous": false,
      "inputs": [
        {
          "indexed": true,
          "internalType": "address",
          "name": "owner",
          "type": "address"
        },
        {
          "indexed": true,
          "internalType": "address",
          "name": "operator",
          "type": "address"
        },
        {
          "indexed": false,
          "internalType": "bool",
          "name": "approved",
          "type": "bool"
        }
      ],
      "name": "ApprovalForAll",
      "type": "event"
    },
    {
      "anonymous": false,
      "inputs": [
        {
          "indexed": false,
          "internalType": "address",
          "name": "sender",
          "type": "address"
        },
        {
          "indexed": false,
          "internalType": "uint256[][]",
          "name": "context",
          "type": "uint256[][]"
        }
      ],
      "name": "Context",
      "type": "event"
    },
    {
      "anonymous": false,
      "inputs": [
        {
          "indexed": false,
          "internalType": "address",
          "name": "sender",
          "type": "address"
        },
        {
          "components": [
            {
              "internalType": "contract IInterpreterV1",
              "name": "interpreter",
              "type": "address"
            },
            {
              "internalType": "contract IInterpreterStoreV1",
              "name": "store",
              "type": "address"
            },
            {
              "internalType": "address",
              "name": "expression",
              "type": "address"
            }
          ],
          "indexed": false,
          "internalType": "struct Evaluable",
          "name": "evaluable",
          "type": "tuple"
        }
      ],
      "name": "FlowInitialized",
      "type": "event"
    },
    {
      "anonymous": false,
      "inputs": [
        {
          "indexed": false,
          "internalType": "address",
          "name": "sender",
          "type": "address"
        },
        {
          "components": [
            {
              "internalType": "string",
              "name": "name",
              "type": "string"
            },
            {
              "internalType": "string",
              "name": "symbol",
              "type": "string"
            },
            {
              "internalType": "string",
              "name": "baseURI",
              "type": "string"
            },
            {
              "components": [
                {
                  "internalType": "contract IExpressionDeployerV2",
                  "name": "deployer",
                  "type": "address"
                },
                {
                  "internalType": "bytes",
                  "name": "bytecode",
                  "type": "bytes"
                },
                {
                  "internalType": "uint256[]",
                  "name": "constants",
                  "type": "uint256[]"
                }
              ],
              "internalType": "struct EvaluableConfigV2",
              "name": "evaluableConfig",
              "type": "tuple"
            },
            {
              "components": [
                {
                  "internalType": "contract IExpressionDeployerV2",
                  "name": "deployer",
                  "type": "address"
                },
                {
                  "internalType": "bytes",
                  "name": "bytecode",
                  "type": "bytes"
                },
                {
                  "internalType": "uint256[]",
                  "name": "constants",
                  "type": "uint256[]"
                }
              ],
              "internalType": "struct EvaluableConfigV2[]",
              "name": "flowConfig",
              "type": "tuple[]"
            }
          ],
          "indexed": false,
          "internalType": "struct FlowERC721ConfigV2",
          "name": "config",
          "type": "tuple"
        }
      ],
      "name": "Initialize",
      "type": "event"
    },
    {
      "anonymous": false,
      "inputs": [
        {
          "indexed": false,
          "internalType": "uint8",
          "name": "version",
          "type": "uint8"
        }
      ],
      "name": "Initialized",
      "type": "event"
    },
    {
      "anonymous": false,
      "inputs": [
        {
          "indexed": false,
          "internalType": "address",
          "name": "sender",
          "type": "address"
        },
        {
          "indexed": false,
          "internalType": "uint256",
          "name": "subject",
          "type": "uint256"
        },
        {
          "indexed": false,
          "internalType": "bytes",
          "name": "meta",
          "type": "bytes"
        }
      ],
      "name": "MetaV1",
      "type": "event"
    },
    {
      "anonymous": false,
      "inputs": [
        {
          "indexed": true,
          "internalType": "address",
          "name": "from",
          "type": "address"
        },
        {
          "indexed": true,
          "internalType": "address",
          "name": "to",
          "type": "address"
        },
        {
          "indexed": true,
          "internalType": "uint256",
          "name": "tokenId",
          "type": "uint256"
        }
      ],
      "name": "Transfer",
      "type": "event"
    },
    {
      "inputs": [
        {
          "internalType": "address",
          "name": "to",
          "type": "address"
        },
        {
          "internalType": "uint256",
          "name": "tokenId",
          "type": "uint256"
        }
      ],
      "name": "approve",
      "outputs": [],
      "stateMutability": "nonpayable",
      "type": "function"
    },
    {
      "inputs": [
        {
          "internalType": "address",
          "name": "owner",
          "type": "address"
        }
      ],
      "name": "balanceOf",
      "outputs": [
        {
          "internalType": "uint256",
          "name": "",
          "type": "uint256"
        }
      ],
      "stateMutability": "view",
      "type": "function"
    },
    {
      "inputs": [
        {
          "components": [
            {
              "internalType": "contract IInterpreterV1",
              "name": "interpreter",
              "type": "address"
            },
            {
              "internalType": "contract IInterpreterStoreV1",
              "name": "store",
              "type": "address"
            },
            {
              "internalType": "address",
              "name": "expression",
              "type": "address"
            }
          ],
          "internalType": "struct Evaluable",
          "name": "evaluable_",
          "type": "tuple"
        },
        {
          "internalType": "uint256[]",
          "name": "callerContext_",
          "type": "uint256[]"
        },
        {
          "components": [
            {
              "internalType": "address",
              "name": "signer",
              "type": "address"
            },
            {
              "internalType": "uint256[]",
              "name": "context",
              "type": "uint256[]"
            },
            {
              "internalType": "bytes",
              "name": "signature",
              "type": "bytes"
            }
          ],
          "internalType": "struct SignedContextV1[]",
          "name": "signedContexts_",
          "type": "tuple[]"
        }
      ],
      "name": "flow",
      "outputs": [
        {
          "components": [
            {
              "components": [
                {
                  "internalType": "address",
                  "name": "account",
                  "type": "address"
                },
                {
                  "internalType": "uint256",
                  "name": "id",
                  "type": "uint256"
                }
              ],
              "internalType": "struct ERC721SupplyChange[]",
              "name": "mints",
              "type": "tuple[]"
            },
            {
              "components": [
                {
                  "internalType": "address",
                  "name": "account",
                  "type": "address"
                },
                {
                  "internalType": "uint256",
                  "name": "id",
                  "type": "uint256"
                }
              ],
              "internalType": "struct ERC721SupplyChange[]",
              "name": "burns",
              "type": "tuple[]"
            },
            {
              "components": [
                {
                  "components": [
                    {
                      "internalType": "address",
                      "name": "token",
                      "type": "address"
                    },
                    {
                      "internalType": "address",
                      "name": "from",
                      "type": "address"
                    },
                    {
                      "internalType": "address",
                      "name": "to",
                      "type": "address"
                    },
                    {
                      "internalType": "uint256",
                      "name": "amount",
                      "type": "uint256"
                    }
                  ],
                  "internalType": "struct ERC20Transfer[]",
                  "name": "erc20",
                  "type": "tuple[]"
                },
                {
                  "components": [
                    {
                      "internalType": "address",
                      "name": "token",
                      "type": "address"
                    },
                    {
                      "internalType": "address",
                      "name": "from",
                      "type": "address"
                    },
                    {
                      "internalType": "address",
                      "name": "to",
                      "type": "address"
                    },
                    {
                      "internalType": "uint256",
                      "name": "id",
                      "type": "uint256"
                    }
                  ],
                  "internalType": "struct ERC721Transfer[]",
                  "name": "erc721",
                  "type": "tuple[]"
                },
                {
                  "components": [
                    {
                      "internalType": "address",
                      "name": "token",
                      "type": "address"
                    },
                    {
                      "internalType": "address",
                      "name": "from",
                      "type": "address"
                    },
                    {
                      "internalType": "address",
                      "name": "to",
                      "type": "address"
                    },
                    {
                      "internalType": "uint256",
                      "name": "id",
                      "type": "uint256"
                    },
                    {
                      "internalType": "uint256",
                      "name": "amount",
                      "type": "uint256"
                    }
                  ],
                  "internalType": "struct ERC1155Transfer[]",
                  "name": "erc1155",
                  "type": "tuple[]"
                }
              ],
              "internalType": "struct FlowTransferV1",
              "name": "flow",
              "type": "tuple"
            }
          ],
          "internalType": "struct FlowERC721IOV1",
          "name": "",
          "type": "tuple"
        }
      ],
      "stateMutability": "nonpayable",
      "type": "function"
    },
    {
      "inputs": [
        {
          "internalType": "uint256",
          "name": "tokenId",
          "type": "uint256"
        }
      ],
      "name": "getApproved",
      "outputs": [
        {
          "internalType": "address",
          "name": "",
          "type": "address"
        }
      ],
      "stateMutability": "view",
      "type": "function"
    },
    {
      "inputs": [
        {
          "internalType": "bytes",
          "name": "data",
          "type": "bytes"
        }
      ],
      "name": "initialize",
      "outputs": [
        {
          "internalType": "bytes32",
          "name": "",
          "type": "bytes32"
        }
      ],
      "stateMutability": "nonpayable",
      "type": "function"
    },
    {
      "inputs": [
        {
          "internalType": "address",
          "name": "owner",
          "type": "address"
        },
        {
          "internalType": "address",
          "name": "operator",
          "type": "address"
        }
      ],
      "name": "isApprovedForAll",
      "outputs": [
        {
          "internalType": "bool",
          "name": "",
          "type": "bool"
        }
      ],
      "stateMutability": "view",
      "type": "function"
    },
    {
      "inputs": [
        {
          "internalType": "bytes[]",
          "name": "data",
          "type": "bytes[]"
        }
      ],
      "name": "multicall",
      "outputs": [
        {
          "internalType": "bytes[]",
          "name": "results",
          "type": "bytes[]"
        }
      ],
      "stateMutability": "nonpayable",
      "type": "function"
    },
    {
      "inputs": [],
      "name": "name",
      "outputs": [
        {
          "internalType": "string",
          "name": "",
          "type": "string"
        }
      ],
      "stateMutability": "view",
      "type": "function"
    },
    {
      "inputs": [
        {
          "internalType": "address",
          "name": "",
          "type": "address"
        },
        {
          "internalType": "address",
          "name": "",
          "type": "address"
        },
        {
          "internalType": "uint256[]",
          "name": "",
          "type": "uint256[]"
        },
        {
          "internalType": "uint256[]",
          "name": "",
          "type": "uint256[]"
        },
        {
          "internalType": "bytes",
          "name": "",
          "type": "bytes"
        }
      ],
      "name": "onERC1155BatchReceived",
      "outputs": [
        {
          "internalType": "bytes4",
          "name": "",
          "type": "bytes4"
        }
      ],
      "stateMutability": "nonpayable",
      "type": "function"
    },
    {
      "inputs": [
        {
          "internalType": "address",
          "name": "",
          "type": "address"
        },
        {
          "internalType": "address",
          "name": "",
          "type": "address"
        },
        {
          "internalType": "uint256",
          "name": "",
          "type": "uint256"
        },
        {
          "internalType": "uint256",
          "name": "",
          "type": "uint256"
        },
        {
          "internalType": "bytes",
          "name": "",
          "type": "bytes"
        }
      ],
      "name": "onERC1155Received",
      "outputs": [
        {
          "internalType": "bytes4",
          "name": "",
          "type": "bytes4"
        }
      ],
      "stateMutability": "nonpayable",
      "type": "function"
    },
    {
      "inputs": [
        {
          "internalType": "address",
          "name": "",
          "type": "address"
        },
        {
          "internalType": "address",
          "name": "",
          "type": "address"
        },
        {
          "internalType": "uint256",
          "name": "",
          "type": "uint256"
        },
        {
          "internalType": "bytes",
          "name": "",
          "type": "bytes"
        }
      ],
      "name": "onERC721Received",
      "outputs": [
        {
          "internalType": "bytes4",
          "name": "",
          "type": "bytes4"
        }
      ],
      "stateMutability": "nonpayable",
      "type": "function"
    },
    {
      "inputs": [
        {
          "internalType": "uint256",
          "name": "tokenId",
          "type": "uint256"
        }
      ],
      "name": "ownerOf",
      "outputs": [
        {
          "internalType": "address",
          "name": "",
          "type": "address"
        }
      ],
      "stateMutability": "view",
      "type": "function"
    },
    {
      "inputs": [
        {
          "components": [
            {
              "internalType": "contract IInterpreterV1",
              "name": "interpreter",
              "type": "address"
            },
            {
              "internalType": "contract IInterpreterStoreV1",
              "name": "store",
              "type": "address"
            },
            {
              "internalType": "address",
              "name": "expression",
              "type": "address"
            }
          ],
          "internalType": "struct Evaluable",
          "name": "evaluable_",
          "type": "tuple"
        },
        {
          "internalType": "uint256[]",
          "name": "callerContext_",
          "type": "uint256[]"
        },
        {
          "components": [
            {
              "internalType": "address",
              "name": "signer",
              "type": "address"
            },
            {
              "internalType": "uint256[]",
              "name": "context",
              "type": "uint256[]"
            },
            {
              "internalType": "bytes",
              "name": "signature",
              "type": "bytes"
            }
          ],
          "internalType": "struct SignedContextV1[]",
          "name": "signedContexts_",
          "type": "tuple[]"
        }
      ],
      "name": "previewFlow",
      "outputs": [
        {
          "components": [
            {
              "components": [
                {
                  "internalType": "address",
                  "name": "account",
                  "type": "address"
                },
                {
                  "internalType": "uint256",
                  "name": "id",
                  "type": "uint256"
                }
              ],
              "internalType": "struct ERC721SupplyChange[]",
              "name": "mints",
              "type": "tuple[]"
            },
            {
              "components": [
                {
                  "internalType": "address",
                  "name": "account",
                  "type": "address"
                },
                {
                  "internalType": "uint256",
                  "name": "id",
                  "type": "uint256"
                }
              ],
              "internalType": "struct ERC721SupplyChange[]",
              "name": "burns",
              "type": "tuple[]"
            },
            {
              "components": [
                {
                  "components": [
                    {
                      "internalType": "address",
                      "name": "token",
                      "type": "address"
                    },
                    {
                      "internalType": "address",
                      "name": "from",
                      "type": "address"
                    },
                    {
                      "internalType": "address",
                      "name": "to",
                      "type": "address"
                    },
                    {
                      "internalType": "uint256",
                      "name": "amount",
                      "type": "uint256"
                    }
                  ],
                  "internalType": "struct ERC20Transfer[]",
                  "name": "erc20",
                  "type": "tuple[]"
                },
                {
                  "components": [
                    {
                      "internalType": "address",
                      "name": "token",
                      "type": "address"
                    },
                    {
                      "internalType": "address",
                      "name": "from",
                      "type": "address"
                    },
                    {
                      "internalType": "address",
                      "name": "to",
                      "type": "address"
                    },
                    {
                      "internalType": "uint256",
                      "name": "id",
                      "type": "uint256"
                    }
                  ],
                  "internalType": "struct ERC721Transfer[]",
                  "name": "erc721",
                  "type": "tuple[]"
                },
                {
                  "components": [
                    {
                      "internalType": "address",
                      "name": "token",
                      "type": "address"
                    },
                    {
                      "internalType": "address",
                      "name": "from",
                      "type": "address"
                    },
                    {
                      "internalType": "address",
                      "name": "to",
                      "type": "address"
                    },
                    {
                      "internalType": "uint256",
                      "name": "id",
                      "type": "uint256"
                    },
                    {
                      "internalType": "uint256",
                      "name": "amount",
                      "type": "uint256"
                    }
                  ],
                  "internalType": "struct ERC1155Transfer[]",
                  "name": "erc1155",
                  "type": "tuple[]"
                }
              ],
              "internalType": "struct FlowTransferV1",
              "name": "flow",
              "type": "tuple"
            }
          ],
          "internalType": "struct FlowERC721IOV1",
          "name": "",
          "type": "tuple"
        }
      ],
      "stateMutability": "view",
      "type": "function"
    },
    {
      "inputs": [
        {
          "internalType": "address",
          "name": "from",
          "type": "address"
        },
        {
          "internalType": "address",
          "name": "to",
          "type": "address"
        },
        {
          "internalType": "uint256",
          "name": "tokenId",
          "type": "uint256"
        }
      ],
      "name": "safeTransferFrom",
      "outputs": [],
      "stateMutability": "nonpayable",
      "type": "function"
    },
    {
      "inputs": [
        {
          "internalType": "address",
          "name": "from",
          "type": "address"
        },
        {
          "internalType": "address",
          "name": "to",
          "type": "address"
        },
        {
          "internalType": "uint256",
          "name": "tokenId",
          "type": "uint256"
        },
        {
          "internalType": "bytes",
          "name": "data",
          "type": "bytes"
        }
      ],
      "name": "safeTransferFrom",
      "outputs": [],
      "stateMutability": "nonpayable",
      "type": "function"
    },
    {
      "inputs": [
        {
          "internalType": "address",
          "name": "operator",
          "type": "address"
        },
        {
          "internalType": "bool",
          "name": "approved",
          "type": "bool"
        }
      ],
      "name": "setApprovalForAll",
      "outputs": [],
      "stateMutability": "nonpayable",
      "type": "function"
    },
    {
      "inputs": [
        {
          "internalType": "bytes4",
          "name": "interfaceId",
          "type": "bytes4"
        }
      ],
      "name": "supportsInterface",
      "outputs": [
        {
          "internalType": "bool",
          "name": "",
          "type": "bool"
        }
      ],
      "stateMutability": "view",
      "type": "function"
    },
    {
      "inputs": [],
      "name": "symbol",
      "outputs": [
        {
          "internalType": "string",
          "name": "",
          "type": "string"
        }
      ],
      "stateMutability": "view",
      "type": "function"
    },
    {
      "inputs": [
        {
          "internalType": "uint256",
          "name": "tokenId_",
          "type": "uint256"
        }
      ],
      "name": "tokenURI",
      "outputs": [
        {
          "internalType": "string",
          "name": "",
          "type": "string"
        }
      ],
      "stateMutability": "view",
      "type": "function"
    },
    {
      "inputs": [
        {
          "internalType": "address",
          "name": "from",
          "type": "address"
        },
        {
          "internalType": "address",
          "name": "to",
          "type": "address"
        },
        {
          "internalType": "uint256",
          "name": "tokenId",
          "type": "uint256"
        }
      ],
      "name": "transferFrom",
      "outputs": [],
      "stateMutability": "nonpayable",
      "type": "function"
    }
  ],
  "bytecode": {
    "object": "0x60806040523480156200001157600080fd5b5060405162005bfd38038062005bfd833981016040819052620000349162000381565b7f7f7944a4b89741668c06a27ffde94e19be970cd0506786de91aee01c2893d4ef60001b81818162000071828260200151620000d560201b60201c565b60208101516040517fbea766d03fa1efd3f81cc8634d08320bc62bb0ed9234ac59bbaafa5893fb6b1391620000aa91339130916200048f565b60405180910390a18051620000bf906200011c565b50620000cc9050620001b3565b505050620005a5565b805160208201208281146200010c5760405163074fe10f60e41b815260048101849052602481018290526044015b60405180910390fd5b620001178262000271565b505050565b60408051600080825260208201818152828401938490526331a66b6560e01b90935291829182916001600160a01b038616916331a66b659162000164919060448201620004fe565b6060604051808303816000875af115801562000184573d6000803e3d6000fd5b505050506040513d601f19601f82011682018060405250810190620001aa919062000535565b50505050505050565b600054610100900460ff16156200021d5760405162461bcd60e51b815260206004820152602760248201527f496e697469616c697a61626c653a20636f6e747261637420697320696e697469604482015266616c697a696e6760c81b606482015260840162000103565b60005460ff908116146200026f576000805460ff191660ff9081179091556040519081527f7f26b83ff96e1f2b6a682f133852f6798a09c465da95921460cefb38474024989060200160405180910390a15b565b6200027c81620002a1565b6200029e5780604051630c89984b60e31b815260040162000103919062000589565b50565b6000600882511015620002b657506000919050565b50600801516001600160401b031667ff0a89c674ee78741490565b634e487b7160e01b600052604160045260246000fd5b604080519081016001600160401b03811182821017156200030c576200030c620002d1565b60405290565b604051601f8201601f191681016001600160401b03811182821017156200033d576200033d620002d1565b604052919050565b6001600160a01b03811681146200029e57600080fd5b60005b83811015620003785781810151838201526020016200035e565b50506000910152565b600060208083850312156200039557600080fd5b82516001600160401b0380821115620003ad57600080fd5b9084019060408287031215620003c257600080fd5b620003cc620002e7565b8251620003d98162000345565b81528284015182811115620003ed57600080fd5b80840193505086601f8401126200040357600080fd5b825182811115620004185762000418620002d1565b6200042c601f8201601f1916860162000312565b925080835287858286010111156200044357600080fd5b62000454818685018787016200035b565b5092830152509392505050565b600081518084526200047b8160208601602086016200035b565b601f01601f19169290920160200192915050565b60018060a01b0384168152826020820152606060408201526000620004b8606083018462000461565b95945050505050565b600081518084526020808501945080840160005b83811015620004f357815187529582019590820190600101620004d5565b509495945050505050565b6060815260006060820152608060208201526000620005216080830185620004c1565b8281036040840152620004b88185620004c1565b6000806000606084860312156200054b57600080fd5b8351620005588162000345565b60208501519093506200056b8162000345565b60408501519092506200057e8162000345565b809150509250925092565b6020815260006200059e602083018462000461565b9392505050565b61564880620005b56000396000f3fe608060405234801561001057600080fd5b506004361061016c5760003560e01c806390bcad69116100cd578063bc197c8111610081578063e985e9c511610066578063e985e9c514610365578063f23a6e61146103af578063f83d765a146103e757600080fd5b8063bc197c811461031a578063c87b56dd1461035257600080fd5b8063a22cb465116100b2578063a22cb465146102d4578063ac9650d8146102e7578063b88d4fde1461030757600080fd5b806390bcad69146102ac57806395d89b41146102cc57600080fd5b806323b872dd11610124578063439fab9111610109578063439fab91146102655780636352211e1461028657806370a082311461029957600080fd5b806323b872dd1461023f57806342842e0e1461025257600080fd5b8063081812fc11610155578063081812fc146101ae578063095ea7b3146101e6578063150b7a02146101fb57600080fd5b806301ffc9a71461017157806306fdde0314610199575b600080fd5b61018461017f366004614186565b6103fa565b60405190151581526020015b60405180910390f35b6101a161040b565b6040516101909190614211565b6101c16101bc366004614224565b61049e565b60405173ffffffffffffffffffffffffffffffffffffffff9091168152602001610190565b6101f96101f436600461425f565b6104d3565b005b61020e6102093660046143e3565b610664565b6040517fffffffff000000000000000000000000000000000000000000000000000000009091168152602001610190565b6101f961024d36600461444f565b61068e565b6101f961026036600461444f565b61072f565b610278610273366004614490565b61074a565b604051908152602001610190565b6101c1610294366004614224565b610b96565b6102786102a7366004614502565b610c23565b6102bf6102ba3660046145ae565b610cf2565b6040516101909190614837565b6101a1610d3c565b6101f96102e23660046149df565b610d4c565b6102fa6102f5366004614a18565b610d5b565b6040516101909190614a7b565b6101f96103153660046143e3565b610e49565b61020e610328366004614afb565b7fbc197c810000000000000000000000000000000000000000000000000000000095945050505050565b6101a1610360366004614224565b610ef1565b610184610373366004614ba9565b73ffffffffffffffffffffffffffffffffffffffff91821660009081526101656020908152604080832093909416825291909152205460ff1690565b61020e6103bd366004614bd7565b7ff23a6e610000000000000000000000000000000000000000000000000000000095945050505050565b6102bf6103f53660046145ae565b6110b0565b6000610405826110c3565b92915050565b6060610160805461041b90614c40565b80601f016020809104026020016040519081016040528092919081815260200182805461044790614c40565b80156104945780601f1061046957610100808354040283529160200191610494565b820191906000526020600020905b81548152906001019060200180831161047757829003601f168201915b5050505050905090565b60006104a982611165565b506000908152610164602052604090205473ffffffffffffffffffffffffffffffffffffffff1690565b60006104de82610b96565b90508073ffffffffffffffffffffffffffffffffffffffff168373ffffffffffffffffffffffffffffffffffffffff16036105a0576040517f08c379a000000000000000000000000000000000000000000000000000000000815260206004820152602160248201527f4552433732313a20617070726f76616c20746f2063757272656e74206f776e6560448201527f720000000000000000000000000000000000000000000000000000000000000060648201526084015b60405180910390fd5b3373ffffffffffffffffffffffffffffffffffffffff821614806105c957506105c98133610373565b610655576040517f08c379a000000000000000000000000000000000000000000000000000000000815260206004820152603d60248201527f4552433732313a20617070726f76652063616c6c6572206973206e6f7420746f60448201527f6b656e206f776e6572206f7220617070726f76656420666f7220616c6c0000006064820152608401610597565b61065f83836111f4565b505050565b7f150b7a02000000000000000000000000000000000000000000000000000000005b949350505050565b6106983382611295565b610724576040517f08c379a000000000000000000000000000000000000000000000000000000000815260206004820152602d60248201527f4552433732313a2063616c6c6572206973206e6f7420746f6b656e206f776e6560448201527f72206f7220617070726f766564000000000000000000000000000000000000006064820152608401610597565b61065f838383611355565b61065f83838360405180602001604052806000815250610e49565b60008054610100900460ff161580801561076b5750600054600160ff909116105b806107855750303b158015610785575060005460ff166001145b610811576040517f08c379a000000000000000000000000000000000000000000000000000000000815260206004820152602e60248201527f496e697469616c697a61626c653a20636f6e747261637420697320616c72656160448201527f647920696e697469616c697a65640000000000000000000000000000000000006064820152608401610597565b600080547fffffffffffffffffffffffffffffffffffffffffffffffffffffffffffffff00166001179055801561086f57600080547fffffffffffffffffffffffffffffffffffffffffffffffffffffffffffff00ff166101001790555b600061087d84860186614d95565b90507f8ec7d87efc587a49a678d97ac2875eb0dc2b5baa8275fda99ecb552b3768149233826040516108b0929190614f19565b60405180910390a16108c061165b565b6108d2816000015182602001516116fc565b6040810151610196906108e59082615094565b506080810151610900906108fb600360026151dd565b61179d565b6000610913826060015160200151611aba565b90508015610b07576000610934836060015160200151600061ffff16611ad8565b61019280547fffffffffffffffffffffffffffffffffffffffffffffffffffffffffffffff00169290911191909117905560018111156109bd576000610987836060015160200151600161ffff16611ad8565b61019280547fffffffffffffffffffffffffffffffffffffffffffffffffffffffffffff00ff1692909111610100029190911790555b60608281015180516020808301516040938401518451600281526000938101849052600181870152958601948590527f31a66b650000000000000000000000000000000000000000000000000000000090945290938493849373ffffffffffffffffffffffffffffffffffffffff16926331a66b6592610a419290606481016151f0565b6060604051808303816000875af1158015610a60573d6000803e3d6000fd5b505050506040513d601f19601f82011682018060405250810190610a849190615229565b6040805160608101825273ffffffffffffffffffffffffffffffffffffffff9485168082529385166020820181905292909416930183905261019380547fffffffffffffffffffffffff00000000000000000000000000000000000000009081169093179055610194805483169091179055610195805490911690911790555050505b7fe0e57eda3f08f2a93bbe980d3df7f9c315eac41181f58b865a13d917fe769fc3935050508015610b8f57600080547fffffffffffffffffffffffffffffffffffffffffffffffffffffffffffff00ff169055604051600181527f7f26b83ff96e1f2b6a682f133852f6798a09c465da95921460cefb38474024989060200160405180910390a15b5092915050565b6000818152610162602052604081205473ffffffffffffffffffffffffffffffffffffffff1680610405576040517f08c379a000000000000000000000000000000000000000000000000000000000815260206004820152601860248201527f4552433732313a20696e76616c696420746f6b656e20494400000000000000006044820152606401610597565b600073ffffffffffffffffffffffffffffffffffffffff8216610cc8576040517f08c379a000000000000000000000000000000000000000000000000000000000815260206004820152602960248201527f4552433732313a2061646472657373207a65726f206973206e6f74206120766160448201527f6c6964206f776e657200000000000000000000000000000000000000000000006064820152608401610597565b5073ffffffffffffffffffffffffffffffffffffffff166000908152610163602052604090205490565b610cfa614116565b6000610d21610d1b8560408051600181526020810192909252818101905290565b84611af1565b90506000610d2f8683611e01565b50925050505b9392505050565b6060610161805461041b90614c40565b610d57338383611f2f565b5050565b60608167ffffffffffffffff811115610d7657610d7661428b565b604051908082528060200260200182016040528015610da957816020015b6060815260200190600190039081610d945790505b50905060005b82811015610b8f57610e1930858584818110610dcd57610dcd615276565b9050602002810190610ddf91906152a5565b8080601f01602080910402602001604051908101604052809392919081815260200183838082843760009201919091525061205d92505050565b828281518110610e2b57610e2b615276565b60200260200101819052508080610e419061530a565b915050610daf565b610e533383611295565b610edf576040517f08c379a000000000000000000000000000000000000000000000000000000000815260206004820152602d60248201527f4552433732313a2063616c6c6572206973206e6f7420746f6b656e206f776e6560448201527f72206f7220617070726f766564000000000000000000000000000000000000006064820152608401610597565b610eeb84848484612082565b50505050565b61019254606090610100900460ff16156110a757604080516060810182526101935473ffffffffffffffffffffffffffffffffffffffff9081168083526101945482166020840181905261019554909216938301849052919260009291636715f825918490610f5f90612125565b611002610f99610f818b60408051600181526020810192909252818101905290565b60408051600181526020810192909252818101905290565b6040805160008082526020820190925290610ffc565b610fe96040518060600160405280600073ffffffffffffffffffffffffffffffffffffffff16815260200160608152602001606081525090565b815260200190600190039081610faf5790505b50611af1565b6040518563ffffffff1660e01b81526004016110219493929190615397565b600060405180830381865afa15801561103e573d6000803e3d6000fd5b505050506040513d6000823e601f3d9081017fffffffffffffffffffffffffffffffffffffffffffffffffffffffffffffffe0168201604052611084919081019061542d565b5090508060008151811061109a5761109a615276565b6020026020010151935050505b61040582612150565b6110b8614116565b6106868484846121b6565b60007fffffffff0000000000000000000000000000000000000000000000000000000082167f80ac58cd00000000000000000000000000000000000000000000000000000000148061115657507fffffffff0000000000000000000000000000000000000000000000000000000082167f5b5e139f00000000000000000000000000000000000000000000000000000000145b8061040557506104058261238c565b6000818152610162602052604090205473ffffffffffffffffffffffffffffffffffffffff166111f1576040517f08c379a000000000000000000000000000000000000000000000000000000000815260206004820152601860248201527f4552433732313a20696e76616c696420746f6b656e20494400000000000000006044820152606401610597565b50565b60008181526101646020526040902080547fffffffffffffffffffffffff00000000000000000000000000000000000000001673ffffffffffffffffffffffffffffffffffffffff8416908117909155819061124f82610b96565b73ffffffffffffffffffffffffffffffffffffffff167f8c5be1e5ebec7d5bd14f71427d1e84f3dd0314c0f7b2291e5b200ac8c7c3b92560405160405180910390a45050565b6000806112a183610b96565b90508073ffffffffffffffffffffffffffffffffffffffff168473ffffffffffffffffffffffffffffffffffffffff161480611310575073ffffffffffffffffffffffffffffffffffffffff8082166000908152610165602090815260408083209388168352929052205460ff165b8061068657508373ffffffffffffffffffffffffffffffffffffffff166113368461049e565b73ffffffffffffffffffffffffffffffffffffffff1614949350505050565b8273ffffffffffffffffffffffffffffffffffffffff1661137582610b96565b73ffffffffffffffffffffffffffffffffffffffff1614611418576040517f08c379a000000000000000000000000000000000000000000000000000000000815260206004820152602560248201527f4552433732313a207472616e736665722066726f6d20696e636f72726563742060448201527f6f776e65720000000000000000000000000000000000000000000000000000006064820152608401610597565b73ffffffffffffffffffffffffffffffffffffffff82166114ba576040517f08c379a0000000000000000000000000000000000000000000000000000000008152602060048201526024808201527f4552433732313a207472616e7366657220746f20746865207a65726f2061646460448201527f72657373000000000000000000000000000000000000000000000000000000006064820152608401610597565b8273ffffffffffffffffffffffffffffffffffffffff166114da82610b96565b73ffffffffffffffffffffffffffffffffffffffff161461157d576040517f08c379a000000000000000000000000000000000000000000000000000000000815260206004820152602560248201527f4552433732313a207472616e736665722066726f6d20696e636f72726563742060448201527f6f776e65720000000000000000000000000000000000000000000000000000006064820152608401610597565b60008181526101646020908152604080832080547fffffffffffffffffffffffff000000000000000000000000000000000000000090811690915573ffffffffffffffffffffffffffffffffffffffff878116808652610163855283862080547fffffffffffffffffffffffffffffffffffffffffffffffffffffffffffffffff0190559087168086528386208054600101905586865261016290945282852080549092168417909155905184937fddf252ad1be2c89b69c2b068fc378daa952ba7f163c4a11628f55a4df523b3ef91a461065f8383836001612423565b600054610100900460ff166116f2576040517f08c379a000000000000000000000000000000000000000000000000000000000815260206004820152602b60248201527f496e697469616c697a61626c653a20636f6e7472616374206973206e6f74206960448201527f6e697469616c697a696e670000000000000000000000000000000000000000006064820152608401610597565b6116fa61266b565b565b600054610100900460ff16611793576040517f08c379a000000000000000000000000000000000000000000000000000000000815260206004820152602b60248201527f496e697469616c697a61626c653a20636f6e7472616374206973206e6f74206960448201527f6e697469616c697a696e670000000000000000000000000000000000000000006064820152608401610597565b610d578282612708565b600054610100900460ff16611834576040517f08c379a000000000000000000000000000000000000000000000000000000000815260206004820152602b60248201527f496e697469616c697a61626c653a20636f6e7472616374206973206e6f74206960448201527f6e697469616c697a696e670000000000000000000000000000000000000000006064820152608401610597565b61183c6127ba565b6118446127ba565b61184c6127ba565b600381101561188a576040517fb0682cf300000000000000000000000000000000000000000000000000000000815260048101829052602401610597565b6118c46040518060600160405280600073ffffffffffffffffffffffffffffffffffffffff16815260200160608152602001606081525090565b60408051606081018252600080825260208201819052918101829052905b8451811015611ab3578481815181106118fd576118fd615276565b602002602001015192506000806000856000015173ffffffffffffffffffffffffffffffffffffffff166331a66b65876020015188604001516119528b60408051600181526020810192909252818101905290565b6040518463ffffffff1660e01b8152600401611970939291906151f0565b6060604051808303816000875af115801561198f573d6000803e3d6000fd5b505050506040513d601f19601f820116820180604052508101906119b39190615229565b92509250925060405180606001604052808473ffffffffffffffffffffffffffffffffffffffff1681526020018373ffffffffffffffffffffffffffffffffffffffff1681526020018273ffffffffffffffffffffffffffffffffffffffff168152509450600161015f6000611a2a886060902090565b81526020808201929092526040908101600020929092558151338152875173ffffffffffffffffffffffffffffffffffffffff9081168284015291880151821681840152918701511660608201527fed510090abe2a95b97a621e3d2c947ea3c26eced1c87470474d17e353dcc53389060800160405180910390a15050508060010190506118e2565b5050505050565b60008151600003611acd57506000919050565b506020015160001a90565b600080611ae58484612851565b5160001a949350505050565b60606000825167ffffffffffffffff811115611b0f57611b0f61428b565b604051908082528060200260200182016040528015611b38578160200160208202803683370190505b509050600080845111611b4c576000611b52565b83516001015b855160010101905060008167ffffffffffffffff811115611b7557611b7561428b565b604051908082528060200260200182016040528015611ba857816020015b6060815260200190600190039081611b935790505b5090506000611bcd604080516002815233602082015230818301526060810190915290565b828281518110611bdf57611bdf615276565b602002602001018190525060005b8751811015611c3d578180600101925050878181518110611c1057611c10615276565b6020026020010151838381518110611c2a57611c2a615276565b6020908102919091010152600101611bed565b50855115611df757808060010191505083828281518110611c6057611c60615276565b602002602001018190525060005b8651811015611df557611d1f878281518110611c8c57611c8c615276565b602002602001015160000151611cfc611cc98a8581518110611cb057611cb0615276565b6020026020010151602001518051602090810291012090565b7f19457468657265756d205369676e6564204d6573736167653a0a3332000000006000908152601c91909152603c902090565b898481518110611d0e57611d0e615276565b602002602001015160400151612882565b611d58576040517f52bf984800000000000000000000000000000000000000000000000000000000815260048101829052602401610597565b868181518110611d6a57611d6a615276565b60200260200101516000015173ffffffffffffffffffffffffffffffffffffffff16858281518110611d9e57611d9e615276565b6020026020010181815250508180600101925050868181518110611dc457611dc4615276565b602002602001015160200151838381518110611de257611de2615276565b6020908102919091010152600101611c6e565b505b5095945050505050565b611e09614116565b6060806060600080600080611e1e8a8a6128fd565b60408051808201909152601981527f5241494e5f464c4f575f4552433732315f53454e54494e454c0000000000000060209091015291945092509050611e8783837ffe90d819490b07580877ce7c3005704048c62af96c6745886d7e356e0b63924a6002612a59565b60408051808201909152601981527f5241494e5f464c4f575f4552433732315f53454e54494e454c0000000000000060209091015296508694509150611ef083837ffe90d819490b07580877ce7c3005704048c62af96c6745886d7e356e0b63924a6002612a59565b80955081935050508394506040518060600160405280878152602001868152602001611f1c8585612b05565b90529750955050505050505b9250929050565b8173ffffffffffffffffffffffffffffffffffffffff168373ffffffffffffffffffffffffffffffffffffffff1603611fc4576040517f08c379a000000000000000000000000000000000000000000000000000000000815260206004820152601960248201527f4552433732313a20617070726f766520746f2063616c6c6572000000000000006044820152606401610597565b73ffffffffffffffffffffffffffffffffffffffff8381166000818152610165602090815260408083209487168084529482529182902080547fffffffffffffffffffffffffffffffffffffffffffffffffffffffffffffff001686151590811790915591519182527f17307eab39ab6107e8899845ad3d59bd9653f200f220920489ca2b5937696c31910160405180910390a3505050565b6060610d35838360405180606001604052806027815260200161562160279139612c8c565b61208d848484611355565b61209984848484612d07565b610eeb576040517f08c379a000000000000000000000000000000000000000000000000000000000815260206004820152603260248201527f4552433732313a207472616e7366657220746f206e6f6e20455243373231526560448201527f63656976657220696d706c656d656e74657200000000000000000000000000006064820152608401610597565b600062010001602083901b77ffffffffffffffffffffffffffffffffffffffff000000001617610405565b606061215b82611165565b6000612165612ef7565b905060008151116121855760405180602001604052806000815250610d35565b8061218f84612f07565b6040516020016121a0929190615491565b6040516020818303038152906040529392505050565b6121be614116565b6121c6612fc5565b60006121e7610d1b8560408051600181526020810192909252818101905290565b90507f17a5c0f3785132a57703932032f6863e7920434150aa1dc940e567b440fdce1f338260405161221a9291906154c0565b60405180910390a160008061222f8784611e01565b9150915060005b8251518110156122945761228c8360000151828151811061225957612259615276565b6020026020010151600001518460000151838151811061227b5761227b615276565b602002602001015160200151613038565b600101612236565b5060005b82602001515181101561236b576000836020015182815181106122bd576122bd615276565b6020026020010151602001519050836020015182815181106122e1576122e1615276565b60200260200101516000015173ffffffffffffffffffffffffffffffffffffffff1661230c82610b96565b73ffffffffffffffffffffffffffffffffffffffff1614612359576040517f375e3a0c00000000000000000000000000000000000000000000000000000000815260040160405180910390fd5b61236281613052565b50600101612298565b5061237f8260400151886020015183613137565b50915050610d3560018055565b60007fffffffff0000000000000000000000000000000000000000000000000000000082167f4e2312e000000000000000000000000000000000000000000000000000000000148061040557507f01ffc9a7000000000000000000000000000000000000000000000000000000007fffffffff00000000000000000000000000000000000000000000000000000000831614610405565b6101925460ff16801561246a575073ffffffffffffffffffffffffffffffffffffffff84161580612468575073ffffffffffffffffffffffffffffffffffffffff8316155b155b15610eeb57604080516060810182526101935473ffffffffffffffffffffffffffffffffffffffff9081168083526101945482166020840181905261019554909216938301849052919260009291636715f8259184906124c9906131e1565b604080516003815273ffffffffffffffffffffffffffffffffffffffff808e1660208301528c1681830152606081018b90526080810190915261256190610f9990610f81565b6125496040518060600160405280600073ffffffffffffffffffffffffffffffffffffffff16815260200160608152602001606081525090565b81526020019060019003908161250f57905050611af1565b6040518563ffffffff1660e01b81526004016125809493929190615397565b600060405180830381865afa15801561259d573d6000803e3d6000fd5b505050506040513d6000823e601f3d9081017fffffffffffffffffffffffffffffffffffffffffffffffffffffffffffffffe01682016040526125e3919081019061542d565b91505060008151111561266357816020015173ffffffffffffffffffffffffffffffffffffffff1663946aadc66000836040518363ffffffff1660e01b81526004016126309291906154ef565b600060405180830381600087803b15801561264a57600080fd5b505af115801561265e573d6000803e3d6000fd5b505050505b505050505050565b600054610100900460ff16612702576040517f08c379a000000000000000000000000000000000000000000000000000000000815260206004820152602b60248201527f496e697469616c697a61626c653a20636f6e7472616374206973206e6f74206960448201527f6e697469616c697a696e670000000000000000000000000000000000000000006064820152608401610597565b60018055565b600054610100900460ff1661279f576040517f08c379a000000000000000000000000000000000000000000000000000000000815260206004820152602b60248201527f496e697469616c697a61626c653a20636f6e7472616374206973206e6f74206960448201527f6e697469616c697a696e670000000000000000000000000000000000000000006064820152608401610597565b6101606127ac8382615094565b5061016161065f8282615094565b600054610100900460ff166116fa576040517f08c379a000000000000000000000000000000000000000000000000000000000815260206004820152602b60248201527f496e697469616c697a61626c653a20636f6e7472616374206973206e6f74206960448201527f6e697469616c697a696e670000000000000000000000000000000000000000006064820152608401610597565b60008061285d84611aba565b600202600101905060006128718585613207565b949091019093016020019392505050565b6000806000612891858561327f565b909250905060008160048111156128aa576128aa615508565b1480156128e257508573ffffffffffffffffffffffffffffffffffffffff168273ffffffffffffffffffffffffffffffffffffffff16145b806128f357506128f38686866132c1565b9695505050505050565b6000806060600061290f866060902090565b600081815261015f602052604090205490915061295b576040517f7a80ba4d00000000000000000000000000000000000000000000000000000000815260048101829052602401610597565b5084516020808701516040880151600093849373ffffffffffffffffffffffffffffffffffffffff90911692636715f8259290918591901b77ffffffffffffffffffffffffffffffffffffffff000000001661ffff178a6040518563ffffffff1660e01b81526004016129d19493929190615397565b600060405180830381865afa1580156129ee573d6000803e3d6000fd5b505050506040513d6000823e601f3d9081017fffffffffffffffffffffffffffffffffffffffffffffffffffffffffffffffe0168201604052612a34919081019061542d565b91509150612a428260200190565b825190986020918202909301019650945092505050565b60008060208302855b87811115612a86576020810386815103612a7d579350612a86565b50819003612a62565b5082600003612ac4576040517fd457746f00000000000000000000000000000000000000000000000000000000815260048101869052602401610597565b604051915060208201602084015b87811015612aea578082526020909101908201612ad2565b50806040526001602084830304038352505094509492505050565b612b2960405180606001604052806060815260200160608152602001606081525090565b60408051808201909152601281527f5241494e5f464c4f575f53454e54494e454c0000000000000000000000000000602090910152606080806000612b9187877ffea74d0c9bf4a3c28f0dd0674db22a3d7f8bf259c56af19f4ac1e735b156974f6004612a59565b60408051808201909152601281527f5241494e5f464c4f575f53454e54494e454c00000000000000000000000000006020909101529096509350839050612bfb87877ffea74d0c9bf4a3c28f0dd0674db22a3d7f8bf259c56af19f4ac1e735b156974f6004612a59565b60408051808201909152601281527f5241494e5f464c4f575f53454e54494e454c00000000000000000000000000006020909101529096509250829050612c6587877ffea74d0c9bf4a3c28f0dd0674db22a3d7f8bf259c56af19f4ac1e735b156974f6005612a59565b60408051606081018252968752602087019590955293850193909352509195945050505050565b60606000808573ffffffffffffffffffffffffffffffffffffffff1685604051612cb69190615537565b600060405180830381855af49150503d8060008114612cf1576040519150601f19603f3d011682016040523d82523d6000602084013e612cf6565b606091505b50915091506128f38683838761341e565b600073ffffffffffffffffffffffffffffffffffffffff84163b15612eef576040517f150b7a0200000000000000000000000000000000000000000000000000000000815273ffffffffffffffffffffffffffffffffffffffff85169063150b7a0290612d7e903390899088908890600401615553565b6020604051808303816000875af1925050508015612dd7575060408051601f3d9081017fffffffffffffffffffffffffffffffffffffffffffffffffffffffffffffffe0168201909252612dd491810190615592565b60015b612ea4573d808015612e05576040519150601f19603f3d011682016040523d82523d6000602084013e612e0a565b606091505b508051600003612e9c576040517f08c379a000000000000000000000000000000000000000000000000000000000815260206004820152603260248201527f4552433732313a207472616e7366657220746f206e6f6e20455243373231526560448201527f63656976657220696d706c656d656e74657200000000000000000000000000006064820152608401610597565b805181602001fd5b7fffffffff00000000000000000000000000000000000000000000000000000000167f150b7a0200000000000000000000000000000000000000000000000000000000149050610686565b506001610686565b6060610196805461041b90614c40565b60606000612f14836134be565b600101905060008167ffffffffffffffff811115612f3457612f3461428b565b6040519080825280601f01601f191660200182016040528015612f5e576020820181803683370190505b5090508181016020015b7fffffffffffffffffffffffffffffffffffffffffffffffffffffffffffffffff017f3031323334353637383961626364656600000000000000000000000000000000600a86061a8153600a8504945084612f6857509392505050565b600260015403613031576040517f08c379a000000000000000000000000000000000000000000000000000000000815260206004820152601f60248201527f5265656e7472616e637947756172643a207265656e7472616e742063616c6c006044820152606401610597565b6002600155565b610d578282604051806020016040528060008152506135a0565b600061305d82610b96565b905061306882610b96565b60008381526101646020908152604080832080547fffffffffffffffffffffffff000000000000000000000000000000000000000090811690915573ffffffffffffffffffffffffffffffffffffffff8516808552610163845282852080547fffffffffffffffffffffffffffffffffffffffffffffffffffffffffffffffff019055878552610162909352818420805490911690555192935084927fddf252ad1be2c89b69c2b068fc378daa952ba7f163c4a11628f55a4df523b3ef908390a4610d57816000846001612423565b8051156131c6576040517f946aadc600000000000000000000000000000000000000000000000000000000815273ffffffffffffffffffffffffffffffffffffffff83169063946aadc6906131939060009085906004016154ef565b600060405180830381600087803b1580156131ad57600080fd5b505af11580156131c1573d6000803e3d6000fd5b505050505b6131cf83613643565b6131d88361379c565b61065f8361392d565b6000602082901b77ffffffffffffffffffffffffffffffffffffffff0000000016610405565b6002810282016003015161ffff16600061322084611aba565b84519091506005600283028401019081118061323c5750818410155b156132775784846040517fd3fc97bd0000000000000000000000000000000000000000000000000000000081526004016105979291906155af565b505092915050565b60008082516041036132b55760208301516040840151606085015160001a6132a987828585613add565b94509450505050611f28565b50600090506002611f28565b60008060008573ffffffffffffffffffffffffffffffffffffffff16631626ba7e60e01b86866040516024016132f89291906155d1565b604080517fffffffffffffffffffffffffffffffffffffffffffffffffffffffffffffffe08184030181529181526020820180517bffffffffffffffffffffffffffffffffffffffffffffffffffffffff167fffffffff000000000000000000000000000000000000000000000000000000009094169390931790925290516133819190615537565b600060405180830381855afa9150503d80600081146133bc576040519150601f19603f3d011682016040523d82523d6000602084013e6133c1565b606091505b50915091508180156133d557506020815110155b80156128f3575080517f1626ba7e000000000000000000000000000000000000000000000000000000009061341390830160209081019084016155ea565b149695505050505050565b606083156134b45782516000036134ad5773ffffffffffffffffffffffffffffffffffffffff85163b6134ad576040517f08c379a000000000000000000000000000000000000000000000000000000000815260206004820152601d60248201527f416464726573733a2063616c6c20746f206e6f6e2d636f6e74726163740000006044820152606401610597565b5081610686565b6106868383613bcc565b6000807a184f03e93ff9f4daa797ed6e38ed64bf6a1f0100000000000000008310613507577a184f03e93ff9f4daa797ed6e38ed64bf6a1f010000000000000000830492506040015b6d04ee2d6d415b85acef81000000008310613533576d04ee2d6d415b85acef8100000000830492506020015b662386f26fc10000831061355157662386f26fc10000830492506010015b6305f5e1008310613569576305f5e100830492506008015b612710831061357d57612710830492506004015b6064831061358f576064830492506002015b600a83106104055760010192915050565b6135aa8383613c10565b6135b76000848484612d07565b61065f576040517f08c379a000000000000000000000000000000000000000000000000000000000815260206004820152603260248201527f4552433732313a207472616e7366657220746f206e6f6e20455243373231526560448201527f63656976657220696d706c656d656e74657200000000000000000000000000006064820152608401610597565b6040805160808101825260008082526020820181905291810182905260608101829052905b82515181101561065f57825180518290811061368657613686615276565b602002602001015191503373ffffffffffffffffffffffffffffffffffffffff16826020015173ffffffffffffffffffffffffffffffffffffffff16036136fd576040820151606083015183516136f89273ffffffffffffffffffffffffffffffffffffffff90911691339190613e43565b613794565b3073ffffffffffffffffffffffffffffffffffffffff16826020015173ffffffffffffffffffffffffffffffffffffffff1603613762576040820151606083015183516136f89273ffffffffffffffffffffffffffffffffffffffff90911691613f1f565b6040517fa521c60f00000000000000000000000000000000000000000000000000000000815260040160405180910390fd5b600101613668565b6040805160808101825260008082526020820181905291810182905260608101829052905b82602001515181101561065f57826020015181815181106137e4576137e4615276565b602002602001015191503373ffffffffffffffffffffffffffffffffffffffff16826020015173ffffffffffffffffffffffffffffffffffffffff16141580156138485750602082015173ffffffffffffffffffffffffffffffffffffffff163014155b1561387f576040517f3a5befc500000000000000000000000000000000000000000000000000000000815260040160405180910390fd5b81516020830151604080850151606086015191517f42842e0e00000000000000000000000000000000000000000000000000000000815273ffffffffffffffffffffffffffffffffffffffff9384166004820152908316602482015260448101919091529116906342842e0e90606401600060405180830381600087803b15801561390957600080fd5b505af115801561391d573d6000803e3d6000fd5b5050600190920191506137c19050565b6040805160a0810182526000808252602082018190529181018290526060810182905260808101829052905b82604001515181101561065f578260400151818151811061397c5761397c615276565b602002602001015191503373ffffffffffffffffffffffffffffffffffffffff16826020015173ffffffffffffffffffffffffffffffffffffffff16141580156139e05750602082015173ffffffffffffffffffffffffffffffffffffffff163014155b15613a17576040517fc6a91ecc00000000000000000000000000000000000000000000000000000000815260040160405180910390fd5b815160208301516040808501516060860151608087015192517ff242432a00000000000000000000000000000000000000000000000000000000815273ffffffffffffffffffffffffffffffffffffffff948516600482015291841660248301526044820152606481019190915260a06084820152600060a482015291169063f242432a9060c401600060405180830381600087803b158015613ab957600080fd5b505af1158015613acd573d6000803e3d6000fd5b5050600190920191506139599050565b6000807f7fffffffffffffffffffffffffffffff5d576e7357a4501ddfe92f46681b20a0831115613b145750600090506003613bc3565b6040805160008082526020820180845289905260ff881692820192909252606081018690526080810185905260019060a0016020604051602081039080840390855afa158015613b68573d6000803e3d6000fd5b50506040517fffffffffffffffffffffffffffffffffffffffffffffffffffffffffffffffe0015191505073ffffffffffffffffffffffffffffffffffffffff8116613bbc57600060019250925050613bc3565b9150600090505b94509492505050565b815115613bdc5781518083602001fd5b806040517f08c379a00000000000000000000000000000000000000000000000000000000081526004016105979190614211565b73ffffffffffffffffffffffffffffffffffffffff8216613c8d576040517f08c379a000000000000000000000000000000000000000000000000000000000815260206004820181905260248201527f4552433732313a206d696e7420746f20746865207a65726f20616464726573736044820152606401610597565b6000818152610162602052604090205473ffffffffffffffffffffffffffffffffffffffff1615613d1a576040517f08c379a000000000000000000000000000000000000000000000000000000000815260206004820152601c60248201527f4552433732313a20746f6b656e20616c7265616479206d696e746564000000006044820152606401610597565b6000818152610162602052604090205473ffffffffffffffffffffffffffffffffffffffff1615613da7576040517f08c379a000000000000000000000000000000000000000000000000000000000815260206004820152601c60248201527f4552433732313a20746f6b656e20616c7265616479206d696e746564000000006044820152606401610597565b73ffffffffffffffffffffffffffffffffffffffff82166000818152610163602090815260408083208054600101905584835261016290915280822080547fffffffffffffffffffffffff0000000000000000000000000000000000000000168417905551839291907fddf252ad1be2c89b69c2b068fc378daa952ba7f163c4a11628f55a4df523b3ef908290a4610d57600083836001612423565b60405173ffffffffffffffffffffffffffffffffffffffff80851660248301528316604482015260648101829052610eeb9085907f23b872dd00000000000000000000000000000000000000000000000000000000906084015b604080517fffffffffffffffffffffffffffffffffffffffffffffffffffffffffffffffe08184030181529190526020810180517bffffffffffffffffffffffffffffffffffffffffffffffffffffffff167fffffffff0000000000000000000000000000000000000000000000000000000090931692909217909152613f75565b60405173ffffffffffffffffffffffffffffffffffffffff831660248201526044810182905261065f9084907fa9059cbb0000000000000000000000000000000000000000000000000000000090606401613e9d565b6000613fd7826040518060400160405280602081526020017f5361666545524332303a206c6f772d6c6576656c2063616c6c206661696c65648152508573ffffffffffffffffffffffffffffffffffffffff166140849092919063ffffffff16565b9050805160001480613ff8575080806020019051810190613ff89190615603565b61065f576040517f08c379a000000000000000000000000000000000000000000000000000000000815260206004820152602a60248201527f5361666545524332303a204552433230206f7065726174696f6e20646964206e60448201527f6f742073756363656564000000000000000000000000000000000000000000006064820152608401610597565b60606106868484600085856000808673ffffffffffffffffffffffffffffffffffffffff1685876040516140b89190615537565b60006040518083038185875af1925050503d80600081146140f5576040519150601f19603f3d011682016040523d82523d6000602084013e6140fa565b606091505b509150915061410b8783838761341e565b979650505050505050565b6040518060600160405280606081526020016060815260200161415360405180606001604052806060815260200160608152602001606081525090565b905290565b7fffffffff00000000000000000000000000000000000000000000000000000000811681146111f157600080fd5b60006020828403121561419857600080fd5b8135610d3581614158565b60005b838110156141be5781810151838201526020016141a6565b50506000910152565b600081518084526141df8160208601602086016141a3565b601f017fffffffffffffffffffffffffffffffffffffffffffffffffffffffffffffffe0169290920160200192915050565b602081526000610d3560208301846141c7565b60006020828403121561423657600080fd5b5035919050565b73ffffffffffffffffffffffffffffffffffffffff811681146111f157600080fd5b6000806040838503121561427257600080fd5b823561427d8161423d565b946020939093013593505050565b7f4e487b7100000000000000000000000000000000000000000000000000000000600052604160045260246000fd5b6040516060810167ffffffffffffffff811182821017156142dd576142dd61428b565b60405290565b60405160a0810167ffffffffffffffff811182821017156142dd576142dd61428b565b604051601f82017fffffffffffffffffffffffffffffffffffffffffffffffffffffffffffffffe016810167ffffffffffffffff8111828210171561434d5761434d61428b565b604052919050565b600082601f83011261436657600080fd5b813567ffffffffffffffff8111156143805761438061428b565b6143b160207fffffffffffffffffffffffffffffffffffffffffffffffffffffffffffffffe0601f84011601614306565b8181528460208386010111156143c657600080fd5b816020850160208301376000918101602001919091529392505050565b600080600080608085870312156143f957600080fd5b84356144048161423d565b935060208501356144148161423d565b925060408501359150606085013567ffffffffffffffff81111561443757600080fd5b61444387828801614355565b91505092959194509250565b60008060006060848603121561446457600080fd5b833561446f8161423d565b9250602084013561447f8161423d565b929592945050506040919091013590565b600080602083850312156144a357600080fd5b823567ffffffffffffffff808211156144bb57600080fd5b818501915085601f8301126144cf57600080fd5b8135818111156144de57600080fd5b8660208285010111156144f057600080fd5b60209290920196919550909350505050565b60006020828403121561451457600080fd5b8135610d358161423d565b600067ffffffffffffffff8211156145395761453961428b565b5060051b60200190565b600082601f83011261455457600080fd5b813560206145696145648361451f565b614306565b82815260059290921b8401810191818101908684111561458857600080fd5b8286015b848110156145a3578035835291830191830161458c565b509695505050505050565b600080600083850360a08112156145c457600080fd5b60608112156145d257600080fd5b506145db6142ba565b84356145e68161423d565b81526020858101356145f78161423d565b8282015260408601356146098161423d565b604083015290935060608501359067ffffffffffffffff8083111561462d57600080fd5b61463988848901614543565b9450608087013592508083111561464f57600080fd5b828701925087601f84011261466357600080fd5b82356146716145648261451f565b81815260059190911b8401830190838101908a83111561469057600080fd5b8486015b83811015614753578035858111156146ac5760008081fd5b87016060818e037fffffffffffffffffffffffffffffffffffffffffffffffffffffffffffffffe00112156146e15760008081fd5b6146e96142ba565b878201356146f68161423d565b815260408201358781111561470b5760008081fd5b6147198f8a83860101614543565b89830152506060820135878111156147315760008081fd5b61473f8f8a83860101614355565b604083015250845250918501918501614694565b508096505050505050509250925092565b600081518084526020808501945080840160005b838110156147b5578151805173ffffffffffffffffffffffffffffffffffffffff1688528301518388015260409096019590820190600101614778565b509495945050505050565b600081518084526020808501945080840160005b838110156147b5578151805173ffffffffffffffffffffffffffffffffffffffff9081168952848201518116858a015260408083015190911690890152606080820151908901526080908101519088015260a090960195908201906001016147d4565b600060208083526080845160608386015261485482860182614764565b9050828601517fffffffffffffffffffffffffffffffffffffffffffffffffffffffffffffffe08087840301604088015261488f8383614764565b92506040880151915080878403016060880152506060820181516060845281815180845286860191508783019350600092505b808310156149265761491282855173ffffffffffffffffffffffffffffffffffffffff80825116835280602083015116602084015280604083015116604084015250606081015160608301525050565b9287019260019290920191908601906148c2565b5083870151858203868901528051808352908801935090870191506000905b808210156149a95761499583855173ffffffffffffffffffffffffffffffffffffffff80825116835280602083015116602084015280604083015116604084015250606081015160608301525050565b928701929186019160019190910190614945565b50506040830151955083810360408501526149c481876147c0565b9998505050505050505050565b80151581146111f157600080fd5b600080604083850312156149f257600080fd5b82356149fd8161423d565b91506020830135614a0d816149d1565b809150509250929050565b60008060208385031215614a2b57600080fd5b823567ffffffffffffffff80821115614a4357600080fd5b818501915085601f830112614a5757600080fd5b813581811115614a6657600080fd5b8660208260051b85010111156144f057600080fd5b6000602080830181845280855180835260408601915060408160051b870101925083870160005b82811015614aee577fffffffffffffffffffffffffffffffffffffffffffffffffffffffffffffffc0888603018452614adc8583516141c7565b94509285019290850190600101614aa2565b5092979650505050505050565b600080600080600060a08688031215614b1357600080fd5b8535614b1e8161423d565b94506020860135614b2e8161423d565b9350604086013567ffffffffffffffff80821115614b4b57600080fd5b614b5789838a01614543565b94506060880135915080821115614b6d57600080fd5b614b7989838a01614543565b93506080880135915080821115614b8f57600080fd5b50614b9c88828901614355565b9150509295509295909350565b60008060408385031215614bbc57600080fd5b8235614bc78161423d565b91506020830135614a0d8161423d565b600080600080600060a08688031215614bef57600080fd5b8535614bfa8161423d565b94506020860135614c0a8161423d565b93506040860135925060608601359150608086013567ffffffffffffffff811115614c3457600080fd5b614b9c88828901614355565b600181811c90821680614c5457607f821691505b602082108103614c8d577f4e487b7100000000000000000000000000000000000000000000000000000000600052602260045260246000fd5b50919050565b600060608284031215614ca557600080fd5b614cad6142ba565b90508135614cba8161423d565b8152602082013567ffffffffffffffff80821115614cd757600080fd5b614ce385838601614355565b60208401526040840135915080821115614cfc57600080fd5b50614d0984828501614543565b60408301525092915050565b600082601f830112614d2657600080fd5b81356020614d366145648361451f565b82815260059290921b84018101918181019086841115614d5557600080fd5b8286015b848110156145a357803567ffffffffffffffff811115614d795760008081fd5b614d878986838b0101614c93565b845250918301918301614d59565b600060208284031215614da757600080fd5b813567ffffffffffffffff80821115614dbf57600080fd5b9083019060a08286031215614dd357600080fd5b614ddb6142e3565b823582811115614dea57600080fd5b614df687828601614355565b825250602083013582811115614e0b57600080fd5b614e1787828601614355565b602083015250604083013582811115614e2f57600080fd5b614e3b87828601614355565b604083015250606083013582811115614e5357600080fd5b614e5f87828601614c93565b606083015250608083013582811115614e7757600080fd5b614e8387828601614d15565b60808301525095945050505050565b600081518084526020808501945080840160005b838110156147b557815187529582019590820190600101614ea6565b73ffffffffffffffffffffffffffffffffffffffff81511682526000602082015160606020850152614ef760608501826141c7565b905060408301518482036040860152614f108282614e92565b95945050505050565b73ffffffffffffffffffffffffffffffffffffffff8316815260006020604081840152835160a06040850152614f5260e08501826141c7565b9050818501517fffffffffffffffffffffffffffffffffffffffffffffffffffffffffffffffc080868403016060870152614f8d83836141c7565b92506040870151915080868403016080870152614faa83836141c7565b925060608701519150808684030160a0870152614fc78383614ec2565b608088015187820390920160c08801528151808252909350908401915083830190600581901b8401850160005b82811015615040577fffffffffffffffffffffffffffffffffffffffffffffffffffffffffffffffe086830301845261502e828651614ec2565b94870194938701939150600101614ff4565b509998505050505050505050565b601f82111561065f57600081815260208120601f850160051c810160208610156150755750805b601f850160051c820191505b8181101561266357828155600101615081565b815167ffffffffffffffff8111156150ae576150ae61428b565b6150c2816150bc8454614c40565b8461504e565b602080601f83116001811461511557600084156150df5750858301515b7fffffffffffffffffffffffffffffffffffffffffffffffffffffffffffffffff600386901b1c1916600185901b178555612663565b6000858152602081207fffffffffffffffffffffffffffffffffffffffffffffffffffffffffffffffe08616915b8281101561516257888601518255948401946001909101908401615143565b508582101561519e57878501517fffffffffffffffffffffffffffffffffffffffffffffffffffffffffffffffff600388901b60f8161c191681555b5050505050600190811b01905550565b7f4e487b7100000000000000000000000000000000000000000000000000000000600052601160045260246000fd5b80820180821115610405576104056151ae565b60608152600061520360608301866141c7565b82810360208401526152158186614e92565b905082810360408401526128f38185614e92565b60008060006060848603121561523e57600080fd5b83516152498161423d565b602085015190935061525a8161423d565b604085015190925061526b8161423d565b809150509250925092565b7f4e487b7100000000000000000000000000000000000000000000000000000000600052603260045260246000fd5b60008083357fffffffffffffffffffffffffffffffffffffffffffffffffffffffffffffffe18436030181126152da57600080fd5b83018035915067ffffffffffffffff8211156152f557600080fd5b602001915036819003821315611f2857600080fd5b60007fffffffffffffffffffffffffffffffffffffffffffffffffffffffffffffffff820361533b5761533b6151ae565b5060010190565b600081518084526020808501808196508360051b8101915082860160005b8581101561538a578284038952615378848351614e92565b98850198935090840190600101615360565b5091979650505050505050565b73ffffffffffffffffffffffffffffffffffffffff851681528360208201528260408201526080606082015260006128f36080830184615342565b600082601f8301126153e357600080fd5b815160206153f36145648361451f565b82815260059290921b8401810191818101908684111561541257600080fd5b8286015b848110156145a35780518352918301918301615416565b6000806040838503121561544057600080fd5b825167ffffffffffffffff8082111561545857600080fd5b615464868387016153d2565b9350602085015191508082111561547a57600080fd5b50615487858286016153d2565b9150509250929050565b600083516154a38184602088016141a3565b8351908301906154b78183602088016141a3565b01949350505050565b73ffffffffffffffffffffffffffffffffffffffff831681526040602082015260006106866040830184615342565b8281526040602082015260006106866040830184614e92565b7f4e487b7100000000000000000000000000000000000000000000000000000000600052602160045260246000fd5b600082516155498184602087016141a3565b9190910192915050565b600073ffffffffffffffffffffffffffffffffffffffff8087168352808616602084015250836040830152608060608301526128f360808301846141c7565b6000602082840312156155a457600080fd5b8151610d3581614158565b6040815260006155c260408301856141c7565b90508260208301529392505050565b82815260406020820152600061068660408301846141c7565b6000602082840312156155fc57600080fd5b5051919050565b60006020828403121561561557600080fd5b8151610d35816149d156fe416464726573733a206c6f772d6c6576656c2064656c65676174652063616c6c206661696c6564",
    "linkReferences": {}
  },
  "methodIdentifiers": {
    "approve(address,uint256)": "095ea7b3",
    "balanceOf(address)": "70a08231",
    "flow((address,address,address),uint256[],(address,uint256[],bytes)[])": "f83d765a",
    "getApproved(uint256)": "081812fc",
    "initialize(bytes)": "439fab91",
    "isApprovedForAll(address,address)": "e985e9c5",
    "multicall(bytes[])": "ac9650d8",
    "name()": "06fdde03",
    "onERC1155BatchReceived(address,address,uint256[],uint256[],bytes)": "bc197c81",
    "onERC1155Received(address,address,uint256,uint256,bytes)": "f23a6e61",
    "onERC721Received(address,address,uint256,bytes)": "150b7a02",
    "ownerOf(uint256)": "6352211e",
    "previewFlow((address,address,address),uint256[],(address,uint256[],bytes)[])": "90bcad69",
    "safeTransferFrom(address,address,uint256)": "42842e0e",
    "safeTransferFrom(address,address,uint256,bytes)": "b88d4fde",
    "setApprovalForAll(address,bool)": "a22cb465",
    "supportsInterface(bytes4)": "01ffc9a7",
    "symbol()": "95d89b41",
    "tokenURI(uint256)": "c87b56dd",
    "transferFrom(address,address,uint256)": "23b872dd"
  },
  "id": 69
}