{
  "_format": "hh-sol-artifact-1",
  "contractName": "Rainterpreter",
  "sourceName": "contracts/interpreter/shared/Rainterpreter.sol",
  "abi": [
    {
      "inputs": [
        {
          "internalType": "uint256",
          "name": "dynamicLength",
          "type": "uint256"
        },
        {
          "internalType": "uint256",
          "name": "standardOpsLength",
          "type": "uint256"
        }
      ],
      "name": "BadDynamicLength",
      "type": "error"
    },
    {
      "inputs": [
        {
          "internalType": "uint256",
          "name": "expected",
          "type": "uint256"
        },
        {
          "internalType": "uint256",
          "name": "actual",
          "type": "uint256"
        }
      ],
      "name": "BadExternResultsLength",
      "type": "error"
    },
    {
      "inputs": [
        {
          "internalType": "MemoryKVPtr",
          "name": "ptr",
          "type": "uint256"
        }
      ],
      "name": "InvalidPtr",
      "type": "error"
    },
    {
      "inputs": [
        {
          "internalType": "int256",
          "name": "price",
          "type": "int256"
        }
      ],
      "name": "NotPosIntPrice",
      "type": "error"
    },
    {
      "inputs": [
        {
          "internalType": "uint256",
          "name": "x",
          "type": "uint256"
        },
        {
          "internalType": "uint256",
          "name": "y",
          "type": "uint256"
        }
      ],
      "name": "PRBMath_MulDiv18_Overflow",
      "type": "error"
    },
    {
      "inputs": [
        {
          "internalType": "uint256",
          "name": "x",
          "type": "uint256"
        },
        {
          "internalType": "uint256",
          "name": "y",
          "type": "uint256"
        },
        {
          "internalType": "uint256",
          "name": "denominator",
          "type": "uint256"
        }
      ],
      "name": "PRBMath_MulDiv_Overflow",
      "type": "error"
    },
    {
      "inputs": [
        {
          "internalType": "UD60x18",
          "name": "x",
          "type": "uint256"
        }
      ],
      "name": "PRBMath_UD60x18_Ceil_Overflow",
      "type": "error"
    },
    {
      "inputs": [
        {
          "internalType": "UD60x18",
          "name": "x",
          "type": "uint256"
        }
      ],
      "name": "PRBMath_UD60x18_Exp2_InputTooBig",
      "type": "error"
    },
    {
      "inputs": [
        {
          "internalType": "UD60x18",
          "name": "x",
          "type": "uint256"
        }
      ],
      "name": "PRBMath_UD60x18_Exp_InputTooBig",
      "type": "error"
    },
    {
      "inputs": [
        {
          "internalType": "UD60x18",
          "name": "x",
          "type": "uint256"
        },
        {
          "internalType": "UD60x18",
          "name": "y",
          "type": "uint256"
        }
      ],
      "name": "PRBMath_UD60x18_Gm_Overflow",
      "type": "error"
    },
    {
      "inputs": [
        {
          "internalType": "UD60x18",
          "name": "x",
          "type": "uint256"
        }
      ],
      "name": "PRBMath_UD60x18_Log_InputTooSmall",
      "type": "error"
    },
    {
      "inputs": [
        {
          "internalType": "UD60x18",
          "name": "x",
          "type": "uint256"
        }
      ],
      "name": "PRBMath_UD60x18_Sqrt_Overflow",
      "type": "error"
    },
    {
      "inputs": [],
      "name": "ReadError",
      "type": "error"
    },
    {
      "inputs": [
        {
          "internalType": "uint256",
          "name": "updatedAt",
          "type": "uint256"
        },
        {
          "internalType": "uint256",
          "name": "staleAfter",
          "type": "uint256"
        }
      ],
      "name": "StalePrice",
      "type": "error"
    },
    {
      "inputs": [
        {
          "internalType": "uint256",
          "name": "expectedLength",
          "type": "uint256"
        },
        {
          "internalType": "uint256",
          "name": "actualLength",
          "type": "uint256"
        }
      ],
      "name": "UnexpectedResultLength",
      "type": "error"
    },
    {
      "inputs": [
        {
          "internalType": "contract IInterpreterStoreV1",
          "name": "store_",
          "type": "address"
        },
        {
          "internalType": "StateNamespace",
          "name": "namespace_",
          "type": "uint256"
        },
        {
          "internalType": "EncodedDispatch",
          "name": "dispatch_",
          "type": "uint256"
        },
        {
          "internalType": "uint256[][]",
          "name": "context_",
          "type": "uint256[][]"
        }
      ],
      "name": "eval",
      "outputs": [
        {
          "internalType": "uint256[]",
          "name": "",
          "type": "uint256[]"
        },
        {
          "internalType": "uint256[]",
          "name": "",
          "type": "uint256[]"
        }
      ],
      "stateMutability": "view",
      "type": "function"
    },
    {
      "inputs": [],
      "name": "functionPointers",
      "outputs": [
        {
          "internalType": "bytes",
          "name": "",
          "type": "bytes"
        }
      ],
      "stateMutability": "view",
      "type": "function"
    },
    {
      "inputs": [
        {
          "internalType": "bytes4",
          "name": "interfaceId_",
          "type": "bytes4"
        }
      ],
      "name": "supportsInterface",
      "outputs": [
        {
          "internalType": "bool",
          "name": "",
          "type": "bool"
        }
      ],
      "stateMutability": "view",
      "type": "function"
    }
  ],
  "bytecode": "0x608060405234801561001057600080fd5b50615c1d80620000216000396000f3fe608060405234801561001057600080fd5b50600436106100415760003560e01c806301ffc9a7146100465780636715f8251461006e578063f933c72f1461008f575b600080fd5b61005961005436600461538c565b6100a4565b60405190151581526020015b60405180910390f35b61008161007c366004615492565b61013d565b604051610065929190615608565b610097610220565b6040516100659190615691565b60007fffffffff0000000000000000000000000000000000000000000000000000000082167f9e263f0a00000000000000000000000000000000000000000000000000000000148061013757507fffffffff0000000000000000000000000000000000000000000000000000000082167f01ffc9a700000000000000000000000000000000000000000000000000000000145b92915050565b606080602084901c60ff601086901c8116908616600061016461015f85610270565b610317565b600060408201529050610176896105aa565b606082015273ffffffffffffffffffffffffffffffffffffffff8a16608082015260a0810187905280516000906101b09083908690610622565b825190915060209082030460006101fb6101ca8387610678565b7fffffffffffffffffffffffffffffffffffffffffffffffffffffffffffffffe06020820286030180519181529091565b9150508061020c856040015161068e565b985098505050505050505094509492505050565b604080516000808252602082019092526060919081610250565b61538281526020019060019003908161023a5790505b50905061026a6102656102628361071e565b90565b610a37565b91505090565b6060813b60008190036102af576040517f26a9f61e00000000000000000000000000000000000000000000000000000000815260040160405180910390fd5b60408051603e83017fffffffffffffffffffffffffffffffffffffffffffffffffffffffffffffffe01681019091527fffffffffffffffffffffffffffffffffffffffffffffffffffffffffffffffff90910180825290915080600160208401853c50919050565b61036d6040518060e0016040528060008152602001600081526020016000815260200160008152602001600073ffffffffffffffffffffffffffffffffffffffff16815260200160608152602001606081525090565b6103c36040518060e0016040528060008152602001600081526020016000815260200160008152602001600073ffffffffffffffffffffffffffffffffffffffff16815260200160608152602001606081525090565b60408051600080825260208201909252906103ee565b60608152602001906001900390816103d95790505b5060a08201526000610401845b60200190565b90506000610437610432837fffffffffffffffffffffffffffffffffffffffffffffffffffffffffffffffe0015190565b830190565b9050602082019150600061046b837fffffffffffffffffffffffffffffffffffffffffffffffffffffffffffffffe0015190565b905060008167ffffffffffffffff811115610488576104886153f0565b6040519080825280602002602001820160405280156104b1578160200160208202803683370190505b506020808201875285810190870181905294519091506104d390602002850190565b9350600084815b858210156104ff576104f56103fb6104f0845190565b840190565b91506001016104da565b8067ffffffffffffffff811115610518576105186153f0565b60405190808252806020026020018201604052801561054b57816020015b60608152602001906001900390816105365790505b5060c08901525b8587101561059c57868860c001518481518110610571576105716156a4565b602002602001018190525061058f6103fb61058a895190565b890190565b9650600190920191610552565b509598975050505050505050565b6040517fffffffffffffffffffffffffffffffffffffffff0000000000000000000000003360601b166020820152603481018290526000906054015b604080517fffffffffffffffffffffffffffffffffffffffffffffffffffffffffffffffe0818403018152919052805160209091012092915050565b60c08301516020838102909101015180516000919081015b8082101561066b57600491909101805190919061ffff601082901c8116911661066288828885565b9550505061063a565b83925050505b9392505050565b60008183106106875781610671565b5090919050565b606061ffff8216601083901c60008167ffffffffffffffff8111156106b5576106b56153f0565b6040519080825280602002602001820160405280156106de578160200160208202803683370190505b50905060208101602082510281015b8082101561071357845182526020808601519083015260409485015194909101906106ed565b509095945050505050565b6060600060405180610a400160405280610736605190565b67ffffffffffffffff168152610ac76020820152610ad66040820152610ae56060820152610b686080820152610b7660a0820152610bc860c0820152610c3860e0820152610cb6610100820152610d80610120820152610dd6610140820152610e02610160820152610e9b61018082015261102f6101a08201526110646101c08201526110826101e082015261109161020082015261109f6102208201526110ae61024082018190526110bc6102608301526110ca6102808301526110d86102a08301526110e66102c08301526102e08201526110f461030082015261110261032082015261111161034082015261111f61036082015261112d61038082015261113c6103a082015261114b6103c082015261115a6103e08201526111696104008201526111786104208201526111876104408201526111966104608201526111a56104808201526111b46104a08201526111c36104c08201526111d26104e08201526111e16105008201526111f06105208201526111ff61054082015261124861056082015261125a6105808201526112686105a082015261129a6105c08201526112a86105e08201526112b66106008201526112c46106208201526112d26106408201526112e06106608201526112ee6106808201526112fc6106a082015261130a6106c08201526113186106e082015261132661070082015261133461072082015261134261074082015261135061076082015261135e61078082015261136c6107a082015261137a6107c08201526113886107e08201526113966108008201526113a46108208201526113b36108408201526113c26108608201526113d16108808201526113df6108a08201526113ed6108c08201526113fb6108e08201526114096109008201526114176109208201526114256109408201526114336109608201526115616109808201526115e96109a08201526115f86109c08201526116076109e0820152611615610a00820152611687610a209091015290506000610a2182611696565b9050610a2d81856116e5565b805b949350505050565b60606000825160020267ffffffffffffffff811115610a5857610a586153f0565b6040519080825280601f01601f191660200182016040528015610a82576020820181803683370190505b50905061ffff801990506020840160208551028101600284015b81831015610abc5780518351908516178152602090920191600201610a9c565b509295945050505050565b6000610a2f8261171b85611751565b6000610a2f82611792856117d6565b6000806000610b16847fffffffffffffffffffffffffffffffffffffffffffffffffffffffffffffffe00180519091565b909250905063ffffffff610b5d83828416602085901c8416604086901c8516606087901c8616608088901c871660a089901c881660c08a901c891660e08b901c6118448b16565b979650505050505050565b6000610a2f8261187a611886565b6000610a2f8460a00151600885901c81518110610b9557610b956156a4565b602002602001015160ff851681518110610bb157610bb16156a4565b6020026020010151836118e790919063ffffffff16565b6000610a2f8460a001518481518110610be357610be36156a4565b6020026020010151604051602001610bfb9190615702565b604080518083037fffffffffffffffffffffffffffffffffffffffffffffffffffffffffffffffe001815291905280516020918201208452830190565b6000806000610c69847fffffffffffffffffffffffffffffffffffffffffffffffffffffffffffffffe00180519091565b9150915061066b8660a001518681518110610c8657610c866156a4565b60200260200101518281518110610c9f57610c9f6156a4565b6020026020010151836118ef90919063ffffffff16565b6000600f83811690600485901c811690600886901c16600c86901c808201855b8960a001518581518110610cec57610cec6156a4565b60200260200101515181101561059c5760005b84811015610d5c57610d528b60a0015182880181518110610d2257610d226156a4565b60200260200101518381518110610d3b57610d3b6156a4565b60200260200101518a6118e790919063ffffffff16565b9850600101610cff565b50600886901b600484901b178217610d758b828b610d80565b985050600101610cd6565b8251600090600f84811691600486901c90911690600886901c9060208402860388526000610daf898489610622565b9050610dc26020850282038a51866118f3565b508751975250602002909401949350505050565b600080836003811115610deb57610deb615738565b9050610df885848361191b565b5091949350505050565b600060ff831660018101600481901b851783610e40867fffffffffffffffffffffffffffffffffffffffffffffffffffffffffffffffe00180519091565b90965090505b8015610e8f57610e57888388610d80565b9550610e85867fffffffffffffffffffffffffffffffffffffffffffffffffffffffffffffffe00180519091565b9096509050610e46565b50939695505050505050565b602083810151600a84901c808302909101517fffffffffffffffffffffffffffffffffffffffffffffffffffffffffffffffe0601f86169384028503018051848252600094929360a085901c939192919085610efc85855b90815260200190565b6040517fb65ad68300000000000000000000000000000000000000000000000000000000815290995060058b901c601f1693506000925073ffffffffffffffffffffffffffffffffffffffff8816915063b65ad68390610f629088908790600401615767565b600060405180830381865afa158015610f7f573d6000803e3d6000fd5b505050506040513d6000823e601f3d9081017fffffffffffffffffffffffffffffffffffffffffffffffffffffffffffffffe0168201604052610fc59190810190615780565b9050818151146110175780516040517fea4915ed00000000000000000000000000000000000000000000000000000000815261100e918491600401918252602082015260400190565b60405180910390fd5b6110218882611a3d565b9a9950505050505050505050565b6000600c83901c610fff8416825b82811015610abc57611050878387610d80565b94508061105c81615835565b91505061103d565b60018281166020908102949094015192901c83029091015181520190565b6000610a2f82611a5585611a68565b6000610a2f82611ab5611b4f565b6000610a2f82611bd585611c8f565b6000610a2f82611d42611886565b6000610a2f82611dd7611e48565b6000610a2f82611e87611b4f565b6000610a2f82611ee6611886565b6000610a2f82611f3c611e48565b6000610a2f82611fc9611886565b6000610a2f8261207885612085565b438152600060208201610a2f565b428152600060208201610a2f565b6000610a2f826120be856120ca565b6000610a2f82612111856120ca565b6000610a2f8261211d856120ca565b6000610a2f82612129856120ca565b6000610a2f82610678856120ca565b6000610a2f82612138856120ca565b6000610a2f82612144856120ca565b6000610a2f82612150856120ca565b6000610a2f8261215c85611751565b6000610a2f82612183856117d6565b6000610a2f8261219c856117d6565b6000610a2f826121b7856117d6565b6000610a2f826121d085611751565b6000610a2f826121dd85611751565b6000602083028203805b8381101561123957600061121b825190565b90508015611230578252506020019050610671565b50602001611209565b50602081015b95945050505050565b6000610a2f826121ea60018601611c8f565b6000610a2f826121fa611886565b6000602083028203805b838110156112395780516000036112925750600081526020019050610671565b602001611272565b6000610a2f826121fe611886565b6000610a2f82612202611e48565b6000610a2f82612206611886565b6000610a2f8261220a611886565b6000610a2f82612216611e48565b6000610a2f82612221611886565b6000610a2f8261222d611e48565b6000610a2f82612238611e48565b6000610a2f82612243611e48565b6000610a2f8261225b611e48565b6000610a2f8261226d611886565b6000610a2f82612279611e48565b6000610a2f82612284611e48565b6000610a2f8261228f611e48565b6000610a2f8261229a611e48565b6000610a2f826122a5611886565b6000610a2f826122b1611886565b6000610a2f826122bd611886565b6000610a2f826122c9611e48565b6000610a2f826122d4856120ca565b6000610a2f8261230f856120ca565b6000610a2f82612340856120ca565b6000610a2f82612356612418565b6000610a2f826124d1611e48565b6000610a2f8261251e611e48565b6000610a2f8261256b611e48565b6000610a2f826125ed611e48565b6000610a2f8261263a611e48565b6000610a2f82612687611b4f565b600080611462837fffffffffffffffffffffffffffffffffffffffffffffffffffffffffffffffe00180519091565b6040870151919450915060009061147990836126e6565b905060008160000361154957608087015160608801516040517f669e48aa00000000000000000000000000000000000000000000000000000000815273ffffffffffffffffffffffffffffffffffffffff9092169163669e48aa916114eb918790600401918252602082015260400190565b602060405180830381865afa158015611508573d6000803e3d6000fd5b505050506040513d601f19601f8201168201806040525081019061152c919061586d565b604088015190915061153f90848361270f565b6040880152611555565b61155282612768565b90505b80855260208501610b5d565b6000806000611592847fffffffffffffffffffffffffffffffffffffffffffffffffffffffffffffffe00180519091565b90945090506115c3847fffffffffffffffffffffffffffffffffffffffffffffffffffffffffffffffe00180519091565b604088015191955092506115d890838361270f565b604087015250829150509392505050565b6000610a2f826127af85612806565b6000610a2f826128908561292a565b6000610a2f826129f3611886565b600060ff8316600884901c600316600a85901c83806116618786602081029091037fffffffffffffffffffffffffffffffffffffffffffffffffffffffffffffffe00180519181529091565b9150915061167a61167484868585612a52565b82610ef3565b9998505050505050505050565b6000610a2f82612ba1856117d6565b805181906051146116e05780516040517fc8b5690100000000000000000000000000000000000000000000000000000000815260048101919091526051602482015260440161100e565b919050565b60405182518251602080830286010183111561170057600080fd5b6020810283016040520183526117168282612bb9565b505050565b60ff80831660020a7fffffffffffffffffffffffffffffffffffffffffffffffffffffffffffffffff0160089390931c161c1690565b7fffffffffffffffffffffffffffffffffffffffffffffffffffffffffffffffe083018051600091611787848363ffffffff8816565b905250929392505050565b60ff83811660020a7fffffffffffffffffffffffffffffffffffffffffffffffffffffffffffffffff0192831660089490941c1692831b9190921b19919091161790565b7fffffffffffffffffffffffffffffffffffffffffffffffffffffffffffffffc0830180517fffffffffffffffffffffffffffffffffffffffffffffffffffffffffffffffe09094018051909460009290919061183885848463ffffffff8a16565b90525093949350505050565b968852602088019590955260408701939093526060860191909152608085015260a084015260c083015260e08201526101000190565b60006106718383612bcd565b7fffffffffffffffffffffffffffffffffffffffffffffffffffffffffffffffc0820180517fffffffffffffffffffffffffffffffffffffffffffffffffffffffffffffffe090930180519093600092909190611787838363ffffffff8816565b815260200190565b9052565b8060200283015b808410156119155783518352602093840193909201916118fa565b50505050565b6000600382600381111561193157611931615738565b0361197a5760005b8460c00151518110156119745761196c8560c00151828151811061195f5761195f6156a4565b6020026020010151612d59565b600101611939565b50611a35565b600082600381111561198e5761198e615738565b0361199f5783516119749084612de8565b60018260038111156119b3576119b3615738565b036119f5576119f06119eb61026286602001517fffffffffffffffffffffffffffffffffffffffffffffffffffffffffffffffe00190565b612e05565b611a35565b60005b8460a0015151811015611a3357611a2b8560a001518281518110611a1e57611a1e6156a4565b6020026020010151612e05565b6001016119f8565b505b509092915050565b6000611a498284612bb9565b81516020028301610671565b6000816040516020016105e69190615702565b7fffffffffffffffffffffffffffffffffffffffffffffffffffffffffffffffe06020820284030180518282526000916000611aa7828763ffffffff16565b9050610b5d81610ef3858582565b6040517efdd58e00000000000000000000000000000000000000000000000000000000815273ffffffffffffffffffffffffffffffffffffffff8381166004830152602482018390526000919085169062fdd58e906044015b602060405180830381865afa158015611b2b573d6000803e3d6000fd5b505050506040513d601f19601f82011682018060405250810190610a2f919061586d565b7fffffffffffffffffffffffffffffffffffffffffffffffffffffffffffffffa0820180517fffffffffffffffffffffffffffffffffffffffffffffffffffffffffffffffc0840180517fffffffffffffffffffffffffffffffffffffffffffffffffffffffffffffffe090950151909460009390919061183884848463ffffffff8a16565b6040517f4e1273f400000000000000000000000000000000000000000000000000000000815260609073ffffffffffffffffffffffffffffffffffffffff851690634e1273f490611c2c9086908690600401615886565b600060405180830381865afa158015611c49573d6000803e3d6000fd5b505050506040513d6000823e601f3d9081017fffffffffffffffffffffffffffffffffffffffffffffffffffffffffffffffe0168201604052610a2f9190810190615780565b600060208202840381611ca28285612eb9565b7fffffffffffffffffffffffffffffffffffffffffffffffffffffffffffffffe06020860284030180518682529192506000611ce38383868b63ffffffff16565b905086815114611d2c5780516040517f231606ca00000000000000000000000000000000000000000000000000000000815261100e918991600401918252602082015260400190565b81611d378282612bb9565b602088028101611021565b6040517f70a0823100000000000000000000000000000000000000000000000000000000815273ffffffffffffffffffffffffffffffffffffffff8281166004830152600091908416906370a08231906024015b602060405180830381865afa158015611db3573d6000803e3d6000fd5b505050506040513d601f19601f82011682018060405250810190610671919061586d565b60008173ffffffffffffffffffffffffffffffffffffffff166318160ddd6040518163ffffffff1660e01b8152600401602060405180830381865afa158015611e24573d6000803e3d6000fd5b505050506040513d601f19601f82011682018060405250810190610137919061586d565b7fffffffffffffffffffffffffffffffffffffffffffffffffffffffffffffffe082018051600091611e7d8263ffffffff8616565b9052509192915050565b6040517f4ee2cd7e00000000000000000000000000000000000000000000000000000000815273ffffffffffffffffffffffffffffffffffffffff83811660048301526024820183905260009190851690634ee2cd7e90604401611b0e565b6040517f981b24d00000000000000000000000000000000000000000000000000000000081526004810182905260009073ffffffffffffffffffffffffffffffffffffffff84169063981b24d090602401611d96565b60008173ffffffffffffffffffffffffffffffffffffffff16638da5cb5b6040518163ffffffff1660e01b8152600401602060405180830381865afa158015611f89573d6000803e3d6000fd5b505050506040513d601f19601f82011682018060405250810190611fad91906158e9565b73ffffffffffffffffffffffffffffffffffffffff1692915050565b6040517f6352211e0000000000000000000000000000000000000000000000000000000081526004810182905260009073ffffffffffffffffffffffffffffffffffffffff841690636352211e90602401602060405180830381865afa158015612037573d6000803e3d6000fd5b505050506040513d601f19601f8201168201806040525081019061205b91906158e9565b73ffffffffffffffffffffffffffffffffffffffff169392505050565b8061208257600080fd5b50565b600060208202840381815b868310156120b457825191506020830192506120af828763ffffffff16565b612090565b9695505050505050565b60006106718284615906565b60208181028403805160009282019083825b8884101561210357835191506120f683838a63ffffffff16565b92506020840193506120dc565b919093529695505050505050565b60006106718284615919565b60006106718284615a4d565b60008183116106875781610671565b60006106718284615a59565b60006106718284615a6d565b60006106718284615a84565b6000610671600184901c60018516600281111561217b5761217b615738565b849190612f11565b6000610a2f8282612195868883612f11565b9190612f80565b6000610a2f8360018616600281111561217b5761217b615738565b6000610a2f82826121c9868883612f11565b9190612f96565b6000610671828483612fac565b6000610671828483612ffb565b606060008411611a355781610a2f565b1490565b1090565b1590565b1190565b6000610671838361305b565b60006101378261306e565b600061067183836130e6565b6000610137826130fe565b600061013782613166565b6000670de0b6b3a76400008206801515028203610137565b6000670de0b6b3a76400008206610137565b600061067183836131d4565b600061013782613254565b600061013782613277565b6000610137826132a8565b600061013782614141565b600061067183836142a4565b600061067183836142b3565b60006106718383614310565b600061013782614370565b60008282018381106122e65780610a2f565b7fffffffffffffffffffffffffffffffffffffffffffffffffffffffffffffffff949350505050565b60008260000361232157506000610137565b82820282848281612334576123346156d3565b04036122e65780610a2f565b6000818311612350576000610671565b50900390565b6040517fd97b2e4800000000000000000000000000000000000000000000000000000000815273ffffffffffffffffffffffffffffffffffffffff84811660048301528381166024830152604482018390526000919086169063d97b2e4890606401602060405180830381865afa1580156123d5573d6000803e3d6000fd5b505050506040513d601f19601f820116820180604052508101906123f9919061586d565b73ffffffffffffffffffffffffffffffffffffffff1695945050505050565b7fffffffffffffffffffffffffffffffffffffffffffffffffffffffffffffff80820180517fffffffffffffffffffffffffffffffffffffffffffffffffffffffffffffffa0840180517fffffffffffffffffffffffffffffffffffffffffffffffffffffffffffffffc08601517fffffffffffffffffffffffffffffffffffffffffffffffffffffffffffffffe0909601519195600094919290916124c48585858563ffffffff8c16565b9052509495945050505050565b60008173ffffffffffffffffffffffffffffffffffffffff1663ec14b06e6040518163ffffffff1660e01b8152600401602060405180830381865afa158015611e24573d6000803e3d6000fd5b60008173ffffffffffffffffffffffffffffffffffffffff1663cd3293de6040518163ffffffff1660e01b8152600401602060405180830381865afa158015611f89573d6000803e3d6000fd5b60008173ffffffffffffffffffffffffffffffffffffffff1663f9020e336040518163ffffffff1660e01b8152600401602060405180830381865afa1580156125b8573d6000803e3d6000fd5b505050506040513d601f19601f820116820180604052508101906125dc9190615a97565b600381111561013757610137615738565b60008173ffffffffffffffffffffffffffffffffffffffff1663fc0c546a6040518163ffffffff1660e01b8152600401602060405180830381865afa158015611f89573d6000803e3d6000fd5b60008173ffffffffffffffffffffffffffffffffffffffff166347e4bbb96040518163ffffffff1660e01b8152600401602060405180830381865afa158015611e24573d6000803e3d6000fd5b6040517fdb8554fc00000000000000000000000000000000000000000000000000000000815273ffffffffffffffffffffffffffffffffffffffff8381166004830152602482018390526000919085169063db8554fc90604401611b0e565b61ffff828116905b8115612708578151831461270857604082015191506126ee565b5092915050565b60008061271c85856126e6565b905061ffff81156127325783602083015261275e565b60405191506060820160405284825283602083015280861660408301528160028760101c0160101b1795505b5093949350505050565b6000816000036127a7576040517f295cd2220000000000000000000000000000000000000000000000000000000081526004810183905260240161100e565b506020015190565b6040517f88d6860400000000000000000000000000000000000000000000000000000000815260009073ffffffffffffffffffffffffffffffffffffffff8516906388d6860490611b0e9086908690600401615ab8565b6020810283037fffffffffffffffffffffffffffffffffffffffffffffffffffffffffffffffe001805182825260009182819050600080612869837fffffffffffffffffffffffffffffffffffffffffffffffffffffffffffffffe00180519091565b9150915061288361287f8287878c63ffffffff16565b8352565b5090979650505050505050565b6040517fcaa0eb3b00000000000000000000000000000000000000000000000000000000815260009073ffffffffffffffffffffffffffffffffffffffff86169063caa0eb3b906128e990879087908790600401615ae7565b602060405180830381865afa158015612906573d6000803e3d6000fd5b505050506040513d601f19601f8201168201806040525081019061123f919061586d565b6020810283037fffffffffffffffffffffffffffffffffffffffffffffffffffffffffffffffe00180518282526000918280612988837fffffffffffffffffffffffffffffffffffffffffffffffffffffffffffffffe00180519091565b9150915060006129b8837fffffffffffffffffffffffffffffffffffffffffffffffffffffffffffffffe0015190565b90506128836129cd828488888d63ffffffff16565b7fffffffffffffffffffffffffffffffffffffffffffffffffffffffffffffffe0850152565b60008060015b60088111612a4a576000612a0d86836143df565b90506000612a1b86846143df565b90506000612a298383612340565b9050612a3985600186038361448f565b945050600190920191506129f99050565b509392505050565b805160009081908190819060015b60088111612b9357600092508289612a9957507fffffffffffffffffffffffffffffffffffffffffffffffffffffffffffffffff612a9d565b5060005b60005b83811015612b5157612acb898281518110612abd57612abd6156a4565b6020026020010151846143df565b9550898611612b1c578a612aea57612ae38683610678565b9150612b13565b60018b03612afc57612ae38683612129565b60028b148015612b0a575084155b15612b13578591505b60019450612b49565b8b612b49577fffffffffffffffffffffffffffffffffffffffffffffffffffffffffffffffff9150612b51565b600101612aa0565b5083612b7a57507fffffffffffffffffffffffffffffffffffffffffffffffffffffffffffffffff5b612b8886600184038361448f565b955050600101612a60565b509298975050505050505050565b6000610a2f8385600f16600487901c600f1685614519565b6000602083019050611716818385516118f3565b60008060008473ffffffffffffffffffffffffffffffffffffffff1663feaf968c6040518163ffffffff1660e01b815260040160a060405180830381865afa158015612c1d573d6000803e3d6000fd5b505050506040513d601f19601f82011682018060405250810190612c419190615b36565b5093505092505060008213612c85576040517f3351e26f0000000000000000000000000000000000000000000000000000000081526004810183905260240161100e565b83612c908242615a84565b1115612cd2576040517f2730eb48000000000000000000000000000000000000000000000000000000008152600481018290526024810185905260440161100e565b61123f8573ffffffffffffffffffffffffffffffffffffffff1663313ce5676040518163ffffffff1660e01b8152600401602060405180830381865afa158015612d20573d6000803e3d6000fd5b505050506040513d601f19601f82011682018060405250810190612d449190615b86565b60ff166001612d52856145bf565b9190612f11565b61208281604051602401612d6d9190615691565b604080517fffffffffffffffffffffffffffffffffffffffffffffffffffffffffffffffe08184030181529190526020810180517bffffffffffffffffffffffffffffffffffffffffffffffffffffffff167f0be77f560000000000000000000000000000000000000000000000000000000017905261462f565b6000806020848403049050611a356119eb60208302850383612eb9565b612e436040518060400160405280600381526020017f7e7e7e0000000000000000000000000000000000000000000000000000000000815250614650565b60005b8151811015612e7a57612e7281838381518110612e6557612e656156a4565b60200260200101516146df565b600101612e46565b506120826040518060400160405280600381526020017f7e7e7e0000000000000000000000000000000000000000000000000000000000815250614650565b606060008267ffffffffffffffff811115612ed657612ed66153f0565b604051908082528060200260200182016040528015612eff578160200160208202803683370190505b50905060208101612a4a8582866118f3565b60008083601203612f255784915050610671565b8360121115612f5157506012839003612f49612f4282600a615a4d565b869061230f565b915050610671565b507fffffffffffffffffffffffffffffffffffffffffffffffffffffffffffffffee8301612f49858285614776565b6000610a2f84670de0b6b3a764000085856147ce565b6000610a2f8484670de0b6b3a7640000856147ce565b60008260000b600003612fc0575082610671565b60008360000b1315612fe857612fe1612fda84600a615ba9565b859061230f565b9050610671565b60ff600084900316612f49858285614776565b6000806012840361300f5784915050610671565b836012111561302957836012039050612f49858285614776565b507fffffffffffffffffffffffffffffffffffffffffffffffffffffffffffffffee8301612f49612f4282600a615a4d565b6000828280821681831860011c0161123f565b6000817ffffffffffffffffffffffffffffffffffffffffffffffffff7e52fe5afe400008111156130ce576040517f6149f6b90000000000000000000000000000000000000000000000000000000081526004810184905260240161100e565b5050670de0b6b3a76400008082068015159103020190565b600061067161026284670de0b6b3a76400008561481e565b600081680736ea4425c11ac6318110613146576040517f1af63aca0000000000000000000000000000000000000000000000000000000081526004810184905260240161100e565b6714057b7ef767814f8102610a2f613166670de0b6b3a7640000835b0490565b600081680a688906bd8b00000081106131ae576040517fb3b6ba1f0000000000000000000000000000000000000000000000000000000081526004810184905260240161100e565b60006131c6670de0b6b3a7640000604084901b615919565b9050610a2f61026282614929565b600082828115806131e3575080155b156131f357600092505050610137565b81810281838281613206576132066156d3565b0414613248576040517fae7f3b37000000000000000000000000000000000000000000000000000000008152600481018790526024810186905260440161100e565b6120b46102628261509e565b6000610137826ec097ce7bc90715b34b9f100000000081613162576131626156d3565b60006101376714057b7ef767814f670de0b6b3a764000061329a61026286614141565b0281613162576131626156d3565b600081670de0b6b3a76400008110156132f0576040517f36d32ef00000000000000000000000000000000000000000000000000000000081526004810184905260240161100e565b8260018114613a4157600a8114613a695760648114613a91576103e88114613ab9576127108114613ae157620186a08114613b0957620f42408114613b3157629896808114613b59576305f5e1008114613b8157633b9aca008114613ba9576402540be4008114613bd15764174876e8008114613bf95764e8d4a510008114613c21576509184e72a0008114613c4957655af3107a40008114613c715766038d7ea4c680008114613c9957662386f26fc100008114613cc15767016345785d8a00008114613ce957670de0b6b3a76400008114613d1157678ac7230489e800008114613d1a5768056bc75e2d631000008114613d2a57683635c9adc5dea000008114613d3a5769021e19e0c9bab24000008114613d4a5769152d02c7e14af68000008114613d5a5769d3c21bcecceda10000008114613d6a576a084595161401484a0000008114613d7a576a52b7d2dcc80cd2e40000008114613d8a576b033b2e3c9fd0803ce80000008114613d9a576b204fce5e3e250261100000008114613daa576c01431e0fae6d7217caa00000008114613dba576c0c9f2c9cd04674edea400000008114613dca576c7e37be2022c0914b26800000008114613dda576d04ee2d6d415b85acef81000000008114613dea576d314dc6448d9338c15b0a000000008114613dfa576e01ed09bead87c0378d8e64000000008114613e0a576e13426172c74d822b878fe8000000008114613e1a576ec097ce7bc90715b34b9f10000000008114613e2a576f0785ee10d5da46d900f436a0000000008114613e3a576f4b3b4ca85a86c47a098a2240000000008114613e4b577002f050fe938943acc45f655680000000008114613e5c57701d6329f1c35ca4bfabb9f56100000000008114613e6d57710125dfa371a19e6f7cb54395ca00000000008114613e7e57710b7abc627050305adf14a3d9e400000000008114613e8f577172cb5bd86321e38cb6ce6682e800000000008114613ea05772047bf19673df52e37f2410011d1000000000008114613eb157722cd76fe086b93ce2f768a00b22a000000000008114613ec2577301c06a5ec5433c60ddaa16406f5a4000000000008114613ed35773118427b3b4a05bc8a8a4de8459868000000000008114613ee45773af298d050e4395d69670b12b7f410000000000008114613ef5577406d79f82328ea3da61e066ebb2f88a0000000000008114613f065774446c3b15f9926687d2c40534fdb5640000000000008114613f17577502ac3a4edbbfb8014e3ba83411e915e80000000000008114613f2857751aba4714957d300d0e549208b31adb100000000000008114613f395776010b46c6cdd6e3e0828f4db456ff0c8ea00000000000008114613f4a57760a70c3c40a64e6c51999090b65f67d92400000000000008114613f5b57766867a5a867f103b2fffa5a71fba0e7b6800000000000008114613f6c577704140c78940f6a24fdffc78873d4490d21000000000000008114613f7d577728c87cb5c89a2571ebfdcb54864ada834a000000000000008114613f8e57780197d4df19d605767337e9f14d3eec8920e4000000000000008114613f9f57780fee50b7025c36a0802f236d04753d5b48e8000000000000008114613fb057789f4f2726179a224501d762422c946590d910000000000000008114613fc15779063917877cec0556b21269d695bdcbf7a87aa0000000000000008114613fd257793e3aeb4ae1383562f4b82261d969f7ac94ca40000000000000008114613fe3577a026e4d30eccc3215dd8f3157d27e23acbdcfe680000000000000008114613ff4577a184f03e93ff9f4daa797ed6e38ed64bf6a1f0100000000000000008114614005577af316271c7fc3908a8bef464e3945ef7a25360a00000000000000008114614016577b097edd871cfda3a5697758bf0e3cbb5ac5741c6400000000000000008114614027577b5ef4a74721e864761ea977768e5f518bb6891be800000000000000008114614038577c03b58e88c75313ec9d329eaaa18fb92f75215b171000000000000000008114614049577c25179157c93ec73e23fa32aa4f9d3bda934d8ee6a00000000000000000811461405a577d0172ebad6ddc73c86d67c5faa71c245689c1079502400000000000000000811461406b577d0e7d34c64a9c85d4460dbbca87196b61618a4bd216800000000000000000811461407c577d90e40fbeea1d3a4abc8955e946fe31cdcf66f634e1000000000000000000811461408d577e05a8e89d75252446eb5d5d5b1cc5edf20a1a059e10ca000000000000000000811461409e577e3899162693736ac531a5a58f1fbb4b746504382ca7e400000000000000000081146140af577f0235fadd81c2822bb3f07877973d50f28bf22a31be8ee800000000000000000081146140c0577f161bcca7119915b50764b4abe86529797775a5f171951000000000000000000081146140d1577fdd15fe86affad91249ef0eb713f39ebeaa987b6e6fd2a000000000000000000081146140e2577fffffffffffffffffffffffffffffffffffffffffffffffffffffffffffffffff92506140ef565b7fffffffffffffffffffffffffffffffffffffffffffffffff0633275e3af8000092506140ef565b7fffffffffffffffffffffffffffffffffffffffffffffffff1413de11e25c000092506140ef565b7fffffffffffffffffffffffffffffffffffffffffffffffff21f494c589c0000092506140ef565b7fffffffffffffffffffffffffffffffffffffffffffffffff2fd54b793124000092506140ef565b7fffffffffffffffffffffffffffffffffffffffffffffffff3db6022cd888000092506140ef565b7fffffffffffffffffffffffffffffffffffffffffffffffff4b96b8e07fec000092506140ef565b7fffffffffffffffffffffffffffffffffffffffffffffffff59776f942750000092506140ef565b7fffffffffffffffffffffffffffffffffffffffffffffffff67582647ceb4000092506140ef565b7fffffffffffffffffffffffffffffffffffffffffffffffff7538dcfb7618000092506140ef565b7fffffffffffffffffffffffffffffffffffffffffffffffff831993af1d7c000092506140ef565b7fffffffffffffffffffffffffffffffffffffffffffffffff90fa4a62c4e0000092506140ef565b7fffffffffffffffffffffffffffffffffffffffffffffffff9edb01166c44000092506140ef565b7fffffffffffffffffffffffffffffffffffffffffffffffffacbbb7ca13a8000092506140ef565b7fffffffffffffffffffffffffffffffffffffffffffffffffba9c6e7dbb0c000092506140ef565b7fffffffffffffffffffffffffffffffffffffffffffffffffc87d25316270000092506140ef565b7fffffffffffffffffffffffffffffffffffffffffffffffffd65ddbe509d4000092506140ef565b7fffffffffffffffffffffffffffffffffffffffffffffffffe43e9298b138000092506140ef565b7ffffffffffffffffffffffffffffffffffffffffffffffffff21f494c589c000092506140ef565b600092506140ef565b670de0b6b3a764000092506140ef565b671bc16d674ec8000092506140ef565b6729a2241af62c000092506140ef565b673782dace9d90000092506140ef565b674563918244f4000092506140ef565b6753444835ec58000092506140ef565b676124fee993bc000092506140ef565b676f05b59d3b20000092506140ef565b677ce66c50e284000092506140ef565b678ac7230489e8000092506140ef565b6798a7d9b8314c000092506140ef565b67a688906bd8b0000092506140ef565b67b469471f8014000092506140ef565b67c249fdd32778000092506140ef565b67d02ab486cedc000092506140ef565b67de0b6b3a7640000092506140ef565b67ebec21ee1da4000092506140ef565b67f9ccd8a1c508000092506140ef565b680107ad8f556c6c000092506140ef565b6801158e460913d0000092506140ef565b6801236efcbcbb34000092506140ef565b6801314fb3706298000092506140ef565b68013f306a2409fc000092506140ef565b68014d1120d7b160000092506140ef565b68015af1d78b58c4000092506140ef565b680168d28e3f0028000092506140ef565b680176b344f2a78c000092506140ef565b68018493fba64ef0000092506140ef565b68019274b259f654000092506140ef565b6801a055690d9db8000092506140ef565b6801ae361fc1451c000092506140ef565b6801bc16d674ec80000092506140ef565b6801c9f78d2893e4000092506140ef565b6801d7d843dc3b48000092506140ef565b6801e5b8fa8fe2ac000092506140ef565b6801f399b1438a10000092506140ef565b6802017a67f73174000092506140ef565b68020f5b1eaad8d8000092506140ef565b68021d3bd55e803c000092506140ef565b68022b1c8c1227a0000092506140ef565b680238fd42c5cf04000092506140ef565b680246ddf9797668000092506140ef565b680254beb02d1dcc000092506140ef565b6802629f66e0c530000092506140ef565b680270801d946c94000092506140ef565b68027e60d44813f8000092506140ef565b68028c418afbbb5c000092506140ef565b68029a2241af62c0000092506140ef565b6802a802f8630a24000092506140ef565b6802b5e3af16b188000092506140ef565b6802c3c465ca58ec000092506140ef565b6802d1a51c7e0050000092506140ef565b6802df85d331a7b4000092506140ef565b6802ed6689e54f18000092506140ef565b6802fb474098f67c000092506140ef565b68030927f74c9de0000092506140ef565b68031708ae004544000092506140ef565b680324e964b3eca8000092506140ef565b680332ca1b67940c000092505b507fffffffffffffffffffffffffffffffffffffffffffffffffffffffffffffffff820361413b57614138672e19dc008126bf2b670de0b6b3a764000061329a61026287614141565b91505b50919050565b600081670de0b6b3a7640000811015614189576040517f36d32ef00000000000000000000000000000000000000000000000000000000081526004810184905260240161100e565b6000614215670de0b6b3a7640000830460016fffffffffffffffffffffffffffffffff821160071b91821c67ffffffffffffffff811160061b90811c63ffffffff811160051b90811c61ffff811160041b90811c60ff8111600390811b91821c600f811160021b90811c918211871b91821c969096119490961792909217171791909117919091171790565b9050670de0b6b3a7640000810282821c7ffffffffffffffffffffffffffffffffffffffffffffffffff21f494c589c000081016142555750949350505050565b671bc16d674ec800006706f05b59d3b200005b801561429857670de0b6b3a7640000838002049250818310614290579283019260019290921c915b60011c614268565b50919695505050505050565b60006106716102628484615223565b600082828183036142dc5780156142cb5760006142d5565b670de0b6b3a76400005b9250614308565b670de0b6b3a764000081036142f357849250614308565b61123f61316661430287614141565b866142a4565b505092915050565b600082816001841661432a57670de0b6b3a764000061432c565b815b9050600184901c93505b831561436a576143468283615223565b9150600184161561435e5761435b8183615223565b90505b600184901c9350614336565b8061123f565b6000817812725dd1d243aba0e75fe645cc4873f9e65afe688c928e1f218111156143c9576040517fedc236ad0000000000000000000000000000000000000000000000000000000081526004810184905260240161100e565b614138610262670de0b6b3a7640000830261509e565b600081600881111561444d576040517f08c379a000000000000000000000000000000000000000000000000000000000815260206004820152600860248201527f4d41585f54494552000000000000000000000000000000000000000000000000604482015260640161100e565b8260000361445e5760009150612708565b50507fffffffffffffffffffffffffffffffffffffffffffffffffffffffffffffffff016020021c63ffffffff1690565b60008260088111156144fd576040517f08c379a000000000000000000000000000000000000000000000000000000000815260206004820152600860248201527f4d41585f54494552000000000000000000000000000000000000000000000000604482015260640161100e565b505060209190910290811b63ffffffff90911b19919091161790565b6000826008811115614587576040517f08c379a000000000000000000000000000000000000000000000000000000000815260206004820152600860248201527f4d41585f54494552000000000000000000000000000000000000000000000000604482015260640161100e565b6000855b858110156145b35763ffffffff6020820290811b199890981685891b1797915060010161458b565b50959695505050505050565b60008082121561462b576040517f08c379a000000000000000000000000000000000000000000000000000000000815260206004820181905260248201527f53616665436173743a2076616c7565206d75737420626520706f736974697665604482015260640161100e565b5090565b80516a636f6e736f6c652e6c6f67602083016000808483855afa5050505050565b612082816040516024016146649190615691565b604080517fffffffffffffffffffffffffffffffffffffffffffffffffffffffffffffffe08184030181529190526020810180517bffffffffffffffffffffffffffffffffffffffffffffffffffffffff167f41304fac0000000000000000000000000000000000000000000000000000000017905261462f565b604051602481018390526044810182905261477290606401604080517fffffffffffffffffffffffffffffffffffffffffffffffffffffffffffffffe08184030181529190526020810180517bffffffffffffffffffffffffffffffffffffffffffffffffffffffff167ff666715a0000000000000000000000000000000000000000000000000000000017905261462f565b5050565b60008061478484600a615a4d565b905060006147928287615919565b905060018460028111156147a8576147a8615738565b1480156147be57506147ba8282615a6d565b8614155b1561123f576120b4600182615906565b6000806147dc868686615328565b905060018360028111156147f2576147f2615738565b1480156147be57506000848061480a5761480a6156d3565b868809111561123f576120b4600182615906565b600080807fffffffffffffffffffffffffffffffffffffffffffffffffffffffffffffffff858709858702925082811083820303915050806000036148765783828161486c5761486c6156d3565b0492505050610671565b8381106148c0576040517f63a0577800000000000000000000000000000000000000000000000000000000815260048101879052602481018690526044810185905260640161100e565b60008486880960026001871981018816978890046003810283188082028403028082028403028082028403028082028403028082028403029081029092039091026000889003889004909101858311909403939093029303949094049190911702949350505050565b7780000000000000000000000000000000000000000000000067ff00000000000000821615614a4a576780000000000000008216156149715768016a09e667f3bcc9090260401c5b674000000000000000821615614990576801306fe0a31b7152df0260401c5b6720000000000000008216156149af576801172b83c7d517adce0260401c5b6710000000000000008216156149ce5768010b5586cf9890f62a0260401c5b6708000000000000008216156149ed576801059b0d31585743ae0260401c5b670400000000000000821615614a0c57680102c9a3e778060ee70260401c5b670200000000000000821615614a2b5768010163da9fb33356d80260401c5b670100000000000000821615614a4a57680100b1afa5abcbed610260401c5b66ff000000000000821615614b49576680000000000000821615614a775768010058c86da1c09ea20260401c5b6640000000000000821615614a95576801002c605e2e8cec500260401c5b6620000000000000821615614ab357680100162f3904051fa10260401c5b6610000000000000821615614ad1576801000b175effdc76ba0260401c5b6608000000000000821615614aef57680100058ba01fb9f96d0260401c5b6604000000000000821615614b0d5768010002c5cc37da94920260401c5b6602000000000000821615614b2b576801000162e525ee05470260401c5b6601000000000000821615614b495768010000b17255775c040260401c5b65ff0000000000821615614c3f5765800000000000821615614b74576801000058b91b5bc9ae0260401c5b65400000000000821615614b9157680100002c5c89d5ec6d0260401c5b65200000000000821615614bae5768010000162e43f4f8310260401c5b65100000000000821615614bcb57680100000b1721bcfc9a0260401c5b65080000000000821615614be85768010000058b90cf1e6e0260401c5b65040000000000821615614c05576801000002c5c863b73f0260401c5b65020000000000821615614c2257680100000162e430e5a20260401c5b65010000000000821615614c3f576801000000b1721835510260401c5b64ff00000000821615614d2c57648000000000821615614c6857680100000058b90c0b490260401c5b644000000000821615614c845768010000002c5c8601cc0260401c5b642000000000821615614ca0576801000000162e42fff00260401c5b641000000000821615614cbc5768010000000b17217fbb0260401c5b640800000000821615614cd8576801000000058b90bfce0260401c5b640400000000821615614cf457680100000002c5c85fe30260401c5b640200000000821615614d105768010000000162e42ff10260401c5b640100000000821615614d2c57680100000000b17217f80260401c5b64ff00000000821615614e11576380000000821615614d545768010000000058b90bfc0260401c5b6340000000821615614d6f576801000000002c5c85fe0260401c5b6320000000821615614d8a57680100000000162e42ff0260401c5b6310000000821615614da5576801000000000b17217f0260401c5b6308000000821615614dc057680100000000058b90c00260401c5b6304000000821615614ddb5768010000000002c5c8600260401c5b6302000000821615614df6576801000000000162e4300260401c5b6301000000821615614e115768010000000000b172180260401c5b62ff0000821615614eec5762800000821615614e36576801000000000058b90c0260401c5b62400000821615614e5057680100000000002c5c860260401c5b62200000821615614e6a5768010000000000162e430260401c5b62100000821615614e8457680100000000000b17210260401c5b62080000821615614e9e5768010000000000058b910260401c5b62040000821615614eb8576801000000000002c5c80260401c5b62020000821615614ed257680100000000000162e40260401c5b62010000821615614eec576801000000000000b1720260401c5b61ff00821615614fbe57618000821615614f0f57680100000000000058b90260401c5b614000821615614f285768010000000000002c5d0260401c5b612000821615614f41576801000000000000162e0260401c5b611000821615614f5a5768010000000000000b170260401c5b610800821615614f73576801000000000000058c0260401c5b610400821615614f8c57680100000000000002c60260401c5b610200821615614fa557680100000000000001630260401c5b610100821615614fbe57680100000000000000b10260401c5b60ff821615615087576080821615614fdf57680100000000000000590260401c5b6040821615614ff7576801000000000000002c0260401c5b602082161561500f57680100000000000000160260401c5b6010821615615027576801000000000000000b0260401c5b600882161561503f57680100000000000000060260401c5b600482161561505757680100000000000000030260401c5b600282161561506f57680100000000000000010260401c5b600182161561508757680100000000000000010260401c5b670de0b6b3a76400000260409190911c60bf031c90565b6000816000036150b057506000919050565b5060018170010000000000000000000000000000000081106150d75760409190911b9060801c5b6801000000000000000081106150f25760209190911b9060401c5b64010000000081106151095760109190911b9060201c5b62010000811061511e5760089190911b9060101c5b61010081106151325760049190911b9060081c5b601081106151455760029190911b9060041c5b6004811061515557600182901b91505b6001828481615166576151666156d3565b048301901c9150600182848161517e5761517e6156d3565b048301901c91506001828481615196576151966156d3565b048301901c915060018284816151ae576151ae6156d3565b048301901c915060018284816151c6576151c66156d3565b048301901c915060018284816151de576151de6156d3565b048301901c915060018284816151f6576151f66156d3565b048301901c9150600082848161520e5761520e6156d3565b04905080831061521c578092505b5050919050565b600080807fffffffffffffffffffffffffffffffffffffffffffffffffffffffffffffffff848609848602925082811083820303915050670de0b6b3a764000081106152a5576040517f5173648d000000000000000000000000000000000000000000000000000000008152600481018690526024810185905260440161100e565b6000670de0b6b3a76400008587099050816000036152d1575050670de0b6b3a764000090049050610137565b6204000081840304921090037d40000000000000000000000000000000000000000000000000000000000002177faccb18165bd6fe31ae1cf318dc5b51eee0e1ba569b88cd74c1773b91fac1066902905092915050565b600080807fffffffffffffffffffffffffffffffffffffffffffffffffffffffffffffffff858709858702925082811083820303915050806000036153765783828161486c5761486c6156d3565b8084116148c057600080fd5b61538a615bb8565b565b60006020828403121561539e57600080fd5b81357fffffffff000000000000000000000000000000000000000000000000000000008116811461067157600080fd5b73ffffffffffffffffffffffffffffffffffffffff8116811461208257600080fd5b7f4e487b7100000000000000000000000000000000000000000000000000000000600052604160045260246000fd5b604051601f82017fffffffffffffffffffffffffffffffffffffffffffffffffffffffffffffffe016810167ffffffffffffffff81118282101715615466576154666153f0565b604052919050565b600067ffffffffffffffff821115615488576154886153f0565b5060051b60200190565b600080600080608085870312156154a857600080fd5b6154b285356153ce565b843593506020850135925060408501359150606085013567ffffffffffffffff808211156154df57600080fd5b818701915087601f8301126154f357600080fd5b615505615500833561546e565b61541f565b82358082526020808301929160051b8501018a81111561552457600080fd5b602085015b818110156155bb57848135111561553f57600080fd5b803586018c603f82011261555257600080fd5b60208101356155636155008261546e565b81815260059190911b82016040019060208101908f83111561558457600080fd5b6040840193505b828410156155a657833582526020938401939091019061558b565b87525050602094850194919091019050615529565b50508094505050505092959194509250565b600081518084526020808501945080840160005b838110156155fd578151875295820195908201906001016155e1565b509495945050505050565b60408152600061561b60408301856155cd565b828103602084015261123f81856155cd565b6000815180845260005b8181101561565357602081850181015186830182015201615637565b5060006020828601015260207fffffffffffffffffffffffffffffffffffffffffffffffffffffffffffffffe0601f83011685010191505092915050565b602081526000610671602083018461562d565b7f4e487b7100000000000000000000000000000000000000000000000000000000600052603260045260246000fd5b7f4e487b7100000000000000000000000000000000000000000000000000000000600052601260045260246000fd5b815160009082906020808601845b8381101561572c57815185529382019390820190600101615710565b50929695505050505050565b7f4e487b7100000000000000000000000000000000000000000000000000000000600052602160045260246000fd5b828152604060208201526000610a2f60408301846155cd565b6000602080838503121561579357600080fd5b825167ffffffffffffffff8111156157aa57600080fd5b8301601f810185136157bb57600080fd5b80516157c96155008261546e565b81815260059190911b820183019083810190878311156157e857600080fd5b928401925b82841015610b5d578351825292840192908401906157ed565b7f4e487b7100000000000000000000000000000000000000000000000000000000600052601160045260246000fd5b60007fffffffffffffffffffffffffffffffffffffffffffffffffffffffffffffffff820361586657615866615806565b5060010190565b60006020828403121561587f57600080fd5b5051919050565b604080825283519082018190526000906020906060840190828701845b828110156158d557815173ffffffffffffffffffffffffffffffffffffffff16845292840192908401906001016158a3565b505050838103828501526120b481866155cd565b6000602082840312156158fb57600080fd5b8151610671816153ce565b8082018082111561013757610137615806565b600082615928576159286156d3565b500490565b600181815b8085111561598657817fffffffffffffffffffffffffffffffffffffffffffffffffffffffffffffffff0482111561596c5761596c615806565b8085161561597957918102915b93841c9390800290615932565b509250929050565b60008261599d57506001610137565b816159aa57506000610137565b81600181146159c057600281146159ca576159e6565b6001915050610137565b60ff8411156159db576159db615806565b50506001821b610137565b5060208310610133831016604e8410600b8410161715615a09575081810a610137565b615a13838361592d565b807fffffffffffffffffffffffffffffffffffffffffffffffffffffffffffffffff04821115615a4557615a45615806565b029392505050565b6000610671838361598e565b600082615a6857615a686156d3565b500690565b808202811582820484141761013757610137615806565b8181038181111561013757610137615806565b600060208284031215615aa957600080fd5b81516004811061067157600080fd5b73ffffffffffffffffffffffffffffffffffffffff83168152604060208201526000610a2f60408301846155cd565b73ffffffffffffffffffffffffffffffffffffffff8416815282602082015260606040820152600061123f60608301846155cd565b805169ffffffffffffffffffff811681146116e057600080fd5b600080600080600060a08688031215615b4e57600080fd5b615b5786615b1c565b9450602086015193506040860151925060608601519150615b7a60808701615b1c565b90509295509295909350565b600060208284031215615b9857600080fd5b815160ff8116811461067157600080fd5b600061067160ff84168361598e565b7f4e487b7100000000000000000000000000000000000000000000000000000000600052605160045260246000fdfea2646970667358221220b4551a1b5c5bcace8706c5ec0183080b0b70781a56dcf553189038c55155223264736f6c63430008120033",
  "linkReferences": {},
  "deployedLinkReferences": {}
}