{
  "_format": "hh-sol-artifact-1",
  "contractName": "RainterpreterExpressionDeployer",
  "sourceName": "contracts/interpreter/shared/RainterpreterExpressionDeployer.sol",
  "abi": [
    {
      "inputs": [
        {
          "components": [
            {
              "internalType": "address",
              "name": "interpreter",
              "type": "address"
            },
            {
              "internalType": "address",
              "name": "store",
              "type": "address"
            },
            {
              "internalType": "bytes",
              "name": "meta",
              "type": "bytes"
            }
          ],
          "internalType": "struct RainterpreterExpressionDeployerConstructionConfig",
          "name": "config_",
          "type": "tuple"
        }
      ],
      "stateMutability": "nonpayable",
      "type": "constructor"
    },
    {
      "inputs": [
        {
          "internalType": "uint256",
          "name": "dynamicLength",
          "type": "uint256"
        },
        {
          "internalType": "uint256",
          "name": "standardOpsLength",
          "type": "uint256"
        }
      ],
      "name": "BadDynamicLength",
      "type": "error"
    },
    {
      "inputs": [
        {
          "internalType": "uint256",
          "name": "inputs",
          "type": "uint256"
        }
      ],
      "name": "DoWhileMaxInputs",
      "type": "error"
    },
    {
      "inputs": [
        {
          "internalType": "uint256",
          "name": "inputs",
          "type": "uint256"
        },
        {
          "internalType": "uint256",
          "name": "outputs",
          "type": "uint256"
        }
      ],
      "name": "InsufficientLoopOutputs",
      "type": "error"
    },
    {
      "inputs": [
        {
          "internalType": "uint256",
          "name": "minStackOutputs",
          "type": "uint256"
        },
        {
          "internalType": "uint256",
          "name": "actualStackOutputs",
          "type": "uint256"
        }
      ],
      "name": "MinFinalStack",
      "type": "error"
    },
    {
      "inputs": [],
      "name": "MinStackBottom",
      "type": "error"
    },
    {
      "inputs": [
        {
          "internalType": "uint256",
          "name": "expectedEntrypoints",
          "type": "uint256"
        },
        {
          "internalType": "uint256",
          "name": "actualEntrypoints",
          "type": "uint256"
        }
      ],
      "name": "MissingEntrypoint",
      "type": "error"
    },
    {
      "inputs": [
        {
          "internalType": "int256",
          "name": "price",
          "type": "int256"
        }
      ],
      "name": "NotPosIntPrice",
      "type": "error"
    },
    {
      "inputs": [
        {
          "internalType": "uint256",
          "name": "constantsLength",
          "type": "uint256"
        },
        {
          "internalType": "uint256",
          "name": "constantsRead",
          "type": "uint256"
        }
      ],
      "name": "OutOfBoundsConstantsRead",
      "type": "error"
    },
    {
      "inputs": [
        {
          "internalType": "uint256",
          "name": "stackTopIndex",
          "type": "uint256"
        },
        {
          "internalType": "uint256",
          "name": "stackRead",
          "type": "uint256"
        }
      ],
      "name": "OutOfBoundsStackRead",
      "type": "error"
    },
    {
      "inputs": [
        {
          "internalType": "uint256",
          "name": "x",
          "type": "uint256"
        },
        {
          "internalType": "uint256",
          "name": "y",
          "type": "uint256"
        }
      ],
      "name": "PRBMath_MulDiv18_Overflow",
      "type": "error"
    },
    {
      "inputs": [
        {
          "internalType": "uint256",
          "name": "x",
          "type": "uint256"
        },
        {
          "internalType": "uint256",
          "name": "y",
          "type": "uint256"
        },
        {
          "internalType": "uint256",
          "name": "denominator",
          "type": "uint256"
        }
      ],
      "name": "PRBMath_MulDiv_Overflow",
      "type": "error"
    },
    {
      "inputs": [
        {
          "internalType": "UD60x18",
          "name": "x",
          "type": "uint256"
        }
      ],
      "name": "PRBMath_UD60x18_Ceil_Overflow",
      "type": "error"
    },
    {
      "inputs": [
        {
          "internalType": "UD60x18",
          "name": "x",
          "type": "uint256"
        }
      ],
      "name": "PRBMath_UD60x18_Exp2_InputTooBig",
      "type": "error"
    },
    {
      "inputs": [
        {
          "internalType": "UD60x18",
          "name": "x",
          "type": "uint256"
        }
      ],
      "name": "PRBMath_UD60x18_Exp_InputTooBig",
      "type": "error"
    },
    {
      "inputs": [
        {
          "internalType": "UD60x18",
          "name": "x",
          "type": "uint256"
        },
        {
          "internalType": "UD60x18",
          "name": "y",
          "type": "uint256"
        }
      ],
      "name": "PRBMath_UD60x18_Gm_Overflow",
      "type": "error"
    },
    {
      "inputs": [
        {
          "internalType": "UD60x18",
          "name": "x",
          "type": "uint256"
        }
      ],
      "name": "PRBMath_UD60x18_Log_InputTooSmall",
      "type": "error"
    },
    {
      "inputs": [
        {
          "internalType": "UD60x18",
          "name": "x",
          "type": "uint256"
        }
      ],
      "name": "PRBMath_UD60x18_Sqrt_Overflow",
      "type": "error"
    },
    {
      "inputs": [
        {
          "internalType": "uint256",
          "name": "stackHighwaterIndex",
          "type": "uint256"
        },
        {
          "internalType": "uint256",
          "name": "stackTopIndex",
          "type": "uint256"
        }
      ],
      "name": "StackPopUnderflow",
      "type": "error"
    },
    {
      "inputs": [
        {
          "internalType": "uint256",
          "name": "updatedAt",
          "type": "uint256"
        },
        {
          "internalType": "uint256",
          "name": "staleAfter",
          "type": "uint256"
        }
      ],
      "name": "StalePrice",
      "type": "error"
    },
    {
      "inputs": [
        {
          "internalType": "uint256",
          "name": "startBit",
          "type": "uint256"
        },
        {
          "internalType": "uint256",
          "name": "length",
          "type": "uint256"
        }
      ],
      "name": "TruncatedEncoding",
      "type": "error"
    },
    {
      "inputs": [
        {
          "internalType": "bytes32",
          "name": "actualBytecodeHash",
          "type": "bytes32"
        }
      ],
      "name": "UnexpectedInterpreterBytecodeHash",
      "type": "error"
    },
    {
      "inputs": [
        {
          "internalType": "bytes32",
          "name": "actualOpMeta",
          "type": "bytes32"
        }
      ],
      "name": "UnexpectedOpMetaHash",
      "type": "error"
    },
    {
      "inputs": [
        {
          "internalType": "bytes",
          "name": "actualPointers",
          "type": "bytes"
        }
      ],
      "name": "UnexpectedPointers",
      "type": "error"
    },
    {
      "inputs": [
        {
          "internalType": "bytes32",
          "name": "actualBytecodeHash",
          "type": "bytes32"
        }
      ],
      "name": "UnexpectedStoreBytecodeHash",
      "type": "error"
    },
    {
      "inputs": [],
      "name": "WriteError",
      "type": "error"
    },
    {
      "inputs": [],
      "name": "ZeroInputs",
      "type": "error"
    },
    {
      "anonymous": false,
      "inputs": [
        {
          "indexed": false,
          "internalType": "address",
          "name": "sender",
          "type": "address"
        },
        {
          "indexed": false,
          "internalType": "address",
          "name": "deployer",
          "type": "address"
        },
        {
          "indexed": false,
          "internalType": "address",
          "name": "interpreter",
          "type": "address"
        },
        {
          "indexed": false,
          "internalType": "address",
          "name": "store",
          "type": "address"
        },
        {
          "indexed": false,
          "internalType": "bytes",
          "name": "opMeta",
          "type": "bytes"
        }
      ],
      "name": "DISpair",
      "type": "event"
    },
    {
      "anonymous": false,
      "inputs": [
        {
          "indexed": false,
          "internalType": "address",
          "name": "sender",
          "type": "address"
        },
        {
          "indexed": false,
          "internalType": "address",
          "name": "expression",
          "type": "address"
        }
      ],
      "name": "ExpressionAddress",
      "type": "event"
    },
    {
      "anonymous": false,
      "inputs": [
        {
          "indexed": false,
          "internalType": "address",
          "name": "sender",
          "type": "address"
        },
        {
          "indexed": false,
          "internalType": "bytes[]",
          "name": "sources",
          "type": "bytes[]"
        },
        {
          "indexed": false,
          "internalType": "uint256[]",
          "name": "constants",
          "type": "uint256[]"
        },
        {
          "indexed": false,
          "internalType": "uint256[]",
          "name": "minOutputs",
          "type": "uint256[]"
        }
      ],
      "name": "NewExpression",
      "type": "event"
    },
    {
      "inputs": [
        {
          "internalType": "bytes[]",
          "name": "sources_",
          "type": "bytes[]"
        },
        {
          "internalType": "uint256[]",
          "name": "constants_",
          "type": "uint256[]"
        },
        {
          "internalType": "uint256[]",
          "name": "minOutputs_",
          "type": "uint256[]"
        }
      ],
      "name": "deployExpression",
      "outputs": [
        {
          "internalType": "contract IInterpreterV1",
          "name": "",
          "type": "address"
        },
        {
          "internalType": "contract IInterpreterStoreV1",
          "name": "",
          "type": "address"
        },
        {
          "internalType": "address",
          "name": "",
          "type": "address"
        }
      ],
      "stateMutability": "nonpayable",
      "type": "function"
    },
    {
      "inputs": [],
      "name": "interpreter",
      "outputs": [
        {
          "internalType": "contract IInterpreterV1",
          "name": "",
          "type": "address"
        }
      ],
      "stateMutability": "view",
      "type": "function"
    },
    {
      "inputs": [],
      "name": "store",
      "outputs": [
        {
          "internalType": "contract IInterpreterStoreV1",
          "name": "",
          "type": "address"
        }
      ],
      "stateMutability": "view",
      "type": "function"
    },
    {
      "inputs": [
        {
          "internalType": "bytes4",
          "name": "interfaceId_",
          "type": "bytes4"
        }
      ],
      "name": "supportsInterface",
      "outputs": [
        {
          "internalType": "bool",
          "name": "",
          "type": "bool"
        }
      ],
      "stateMutability": "view",
      "type": "function"
    }
  ],
  "bytecode": "0x60c06040523480156200001157600080fd5b506040516200596738038062005967833981016040819052620000349162000453565b6000816000015190506000816001600160a01b031663f933c72f6040518163ffffffff1660e01b8152600401600060405180830381865afa1580156200007e573d6000803e3d6000fd5b505050506040513d6000823e601f3d908101601f19168201604052620000a8919081019062000504565b90506040518060e0016040528060a28152602001620058c560a2913980519060200120818051906020012014620000ff5780604051634c1af20160e11b8152600401620000f6919062000572565b60405180910390fd5b813f7f4f30b99af2f89c83d17ebf25b57e63148560d35bbe92414ecfae8ff0e1c9585581146200014657604051630eec293f60e11b815260048101829052602401620000f6565b6020840151803f7f4f8d49bb4a5da0b67865017e2eff6618b39cd0ecf65c631b9b2a793df2afc7508114620001925760405163cc0415fd60e01b815260048101829052602401620000f6565b604086015180516020909101207fc633bd425d2c692ef398442774a5c7c81427e04268c7169fcd1670f93ada07318114620001e4576040516343d0fe5760e11b815260048101829052602401620000f6565b6001600160a01b03808716608052831660a052865160208801516040808a015190517f1788931a083e1bfada6cb062b5426ea97c7866b814b4d1173909e4018f2122f1936200023793339330936200058e565b60405180910390a1604080518082018252601581527f4945787072657373696f6e4465706c6f79657256310000000000000000000000602082015290516365ba36c160e01b8152731820a4b7618bde71dce8cdc73aab6c95905fad24916329965a1d91309184916365ba36c191620002b29160040162000572565b602060405180830381865afa158015620002d0573d6000803e3d6000fd5b505050506040513d601f19601f82011682018060405250810190620002f69190620005d7565b6040516001600160e01b031960e085901b1681526001600160a01b0390921660048301526024820152306044820152606401600060405180830381600087803b1580156200034357600080fd5b505af115801562000358573d6000803e3d6000fd5b5050505050505050505050620005f1565b634e487b7160e01b600052604160045260246000fd5b80516001600160a01b03811681146200039757600080fd5b919050565b60005b83811015620003b95781810151838201526020016200039f565b50506000910152565b600082601f830112620003d457600080fd5b81516001600160401b0380821115620003f157620003f162000369565b604051601f8301601f19908116603f011681019082821181831017156200041c576200041c62000369565b816040528381528660208588010111156200043657600080fd5b620004498460208301602089016200039c565b9695505050505050565b6000602082840312156200046657600080fd5b81516001600160401b03808211156200047e57600080fd5b90830190606082860312156200049357600080fd5b604051606081018181108382111715620004b157620004b162000369565b604052620004bf836200037f565b8152620004cf602084016200037f565b6020820152604083015182811115620004e757600080fd5b620004f587828601620003c2565b60408301525095945050505050565b6000602082840312156200051757600080fd5b81516001600160401b038111156200052e57600080fd5b6200053c84828501620003c2565b949350505050565b600081518084526200055e8160208601602086016200039c565b601f01601f19169290920160200192915050565b60208152600062000587602083018462000544565b9392505050565b6001600160a01b038681168252858116602083015284811660408301528316606082015260a060808201819052600090620005cc9083018462000544565b979650505050505050565b600060208284031215620005ea57600080fd5b5051919050565b60805160a0516152a16200062460003960008181610114015261045e015260008181607e015261043c01526152a16000f3fe608060405234801561001057600080fd5b506004361061004c5760003560e01c806301ffc9a7146100515780633a35cf17146100795780635511cb67146100c5578063975057e71461010f575b600080fd5b61006461005f366004614888565b610136565b60405190151581526020015b60405180910390f35b6100a07f000000000000000000000000000000000000000000000000000000000000000081565b60405173ffffffffffffffffffffffffffffffffffffffff9091168152602001610070565b6100d86100d33660046149d7565b6101cf565b6040805173ffffffffffffffffffffffffffffffffffffffff94851681529284166020840152921691810191909152606001610070565b6100a07f000000000000000000000000000000000000000000000000000000000000000081565b60007fffffffff0000000000000000000000000000000000000000000000000000000082167f5511cb670000000000000000000000000000000000000000000000000000000014806101c957507fffffffff0000000000000000000000000000000000000000000000000000000082167f01ffc9a700000000000000000000000000000000000000000000000000000000145b92915050565b600080600085518451111561022257835186516040517f7d2d70db000000000000000000000000000000000000000000000000000000008152600481019290925260248201526044015b60405180910390fd5b6000610236878761023161048f565b6104d1565b604081015160608201519192509060005b87518110156102c05760408401839052606084018290526102ad848261028e60027fffffffffffffffffffffffffffffffffffffffffffffffffffffffffffffffff614ba0565b8b85815181106102a0576102a0614bb4565b60200260200101516105e6565b50806102b881614be3565b915050610247565b5060006102de8460800151856040015161070f90919063ffffffff16565b90507ff66a0c19428b142e06d7aa23d5f18b9b9ff08408fefcdfb8bb27cb34929f7786338b8b8b6040516103159493929190614c56565b60405180910390a16000806103b561032e8d8d86610718565b60408051602c83017fffffffffffffffffffffffffffffffffffffffffffffffffffffffffffffffe01681019091527effff0000000000000000000000000000000000000000000000000000000000600190920160e81b919091167f61000080600c6000396000f3000000000000000000000000000000000000000017815290600d820190565b915091506103de818d8d866040518060e0016040528060a281526020016151ca60a29139610799565b60006103e9836107fe565b6040805133815273ffffffffffffffffffffffffffffffffffffffff831660208201529192507fce6e4a4a7b561c65155990775d2faf8a581292f97859ce67e366fd53686b31f1910160405180910390a17f00000000000000000000000000000000000000000000000000000000000000009d7f00000000000000000000000000000000000000000000000000000000000000009d50909b509950505050505050505050565b6040805160008082526020820190925260609190816104bf565b61487e8152602001906001900390816104a95790505b5090506104cb8161086c565b91505090565b61050a6040518060c001604052806060815260200160008152602001600081526020016000815260200160008152602001606081525090565b6040805160c0810182528581528451602082015290810161054c60027fffffffffffffffffffffffffffffffffffffffffffffffffffffffffffffffff614ba0565b81526020016105a461057f60027fffffffffffffffffffffffffffffffffffffffffffffffffffffffffffffffff614ba0565b7fffffffffffffffffffffffffffffffffffffffffffffffffffffffffffffffe00190565b81526020016105d460027fffffffffffffffffffffffffffffffffffffffffffffffffffffffffffffffff614ba0565b815260200183905290505b9392505050565b600060027fffffffffffffffffffffffffffffffffffffffffffffffffffffffffffffffff0485604001511015610649576040517f271592cf00000000000000000000000000000000000000000000000000000000815260040160405180910390fd5b845160208581029091010151805181015b808210156106b457600080600484019350835161ffff8116915061ffff8160101c169250506106ab8982898c60a00151868151811061069b5761069b614bb4565b602002602001015163ffffffff16565b9650505061065a565b604087015160209086030480851115610703576040517ff993c6e70000000000000000000000000000000000000000000000000000000081526004810186905260248101829052604401610219565b50939695505050505050565b60209190030490565b600080610726602082614d5f565b9050610736845160209081020190565b6107409082614d5f565b905060005b85518110156107905761077286828151811061076357610763614bb4565b60200260200101515160200190565b61077c9083614d5f565b91508061078881614be3565b915050610745565b50949350505050565b818552602085016107aa8185610b4e565b9050606060005b86518110156107f4578681815181106107cc576107cc614bb4565b602002602001015191506107e08285610b6e565b6107ea8383610bcd565b92506001016107b1565b5050505050505050565b6000806000600d9050835160e81c61ffff168101846000f0915073ffffffffffffffffffffffffffffffffffffffff8216610865576040517f08d4abb600000000000000000000000000000000000000000000000000000000815260040160405180910390fd5b5092915050565b6060600060405180610a400160405280610884605190565b67ffffffffffffffff1667ffffffffffffffff168152602001610bed8152602001610c5a8152602001610cbd8152602001610cd58152602001610ce48152602001610ce48152602001610cf08152602001610d098152602001610d758152602001610e0a8152602001610e278152602001610e978152602001610f128152602001610fa98152602001611081815260200161109181526020016110a081526020016110b081526020016110bf81526020016110ce81526020016110dd81526020016110ec81526020016110b081526020016110fb815260200161110a8152602001610ce48152602001610ce4815260200161111a815260200161112a815260200161113a815260200161114a815260200161115a815260200161116a815260200161117a815260200161118a815260200161119a81526020016111a981526020016111b881526020016111c781526020016111d681526020016111e581526020016111f48152602001611205815260200161122281526020016111f481526020016112318152602001611240815260200161124f815260200161125e815260200161126d815260200161127c815260200161128b815260200161129a81526020016112a981526020016112b881526020016112c781526020016112d681526020016112e581526020016112f48152602001611303815260200161131281526020016113218152602001611330815260200161133f815260200161134e815260200161135e815260200161136e815260200161137e815260200161138d815260200161139c81526020016113ab81526020016113ba81526020016113c981526020016113d88152602001610cf081526020016113e781526020016113f7815260200161140781526020016114178152602001611426815260200161147a81525090506000610b3082611489565b9050610b3c81856114d8565b805b949350505050565b815260200190565b60006105df82610b68845186610b4690919063ffffffff16565b9061150e565b815161ffff907fffffffffffffffffffffffffffffffffffffffffffffffffffffffffffff000090840160028481019086015b82811015610bc45780518581166002028301518616908516178152600401610ba1565b50505050505050565b60006105df82610be7845186610b4690919063ffffffff16565b90611526565b600060ff600884901c81169084166101008183011115610c43576040517f2ccabbc20000000000000000000000000000000000000000000000000000000081526004810183905260248101829052604401610219565b610c508685611540611576565b9695505050505050565b600060ff600884901c81169084166101008183011115610cb0576040517f2ccabbc20000000000000000000000000000000000000000000000000000000081526004810183905260248101829052604401610219565b610c50868561158c6115d0565b6000610b3e610ccc85846115e1565b85906008611615565b6000610b3e84836116716115d0565b6000610b3e848361167d565b600061487e610d00858483611576565b95945050505050565b6000600f83811690600885811c91821691600c87901c91828401917efffffffffffffffffffffffffffffffffffffffffffffffffffffffffffff0169088901b610f0016178117610d5b89888661168c565b9650610d68898289610d75565b9998505050505050505050565b60408301516060840151600091600f85811692600487901c90911691600887901c91610da28988876116a0565b60408a01527fffffffffffffffffffffffffffffffffffffffffffffffffffffffffffffffe0870160608a0152610ddb898489876105e6565b50606089018190526040890151610df4908a9086611615565b6040999099019190915250959695505050505050565b6000826003811115610e1e57610e1e614d72565b50909392505050565b600060ff8316600f8110610e6a576040517f316e6a3700000000000000000000000000000000000000000000000000000000815260048101829052602401610219565b60018101600481901b8517610e8c610e83888388610d75565b889060016116ba565b979650505050505050565b6020830151600090601f84811691600586901c90911690600a86901c908110610efc5760208701516040517f890a8e6a000000000000000000000000000000000000000000000000000000008152600481019190915260248101829052604401610219565b610e8c610f0a8887866116a0565b889084611615565b6000600c83901c600f80851690600486901c1681811015610f69576040517f508a8d2f0000000000000000000000000000000000000000000000000000000081526004810183905260248101829052604401610219565b6060870151610fff87169060005b85811015610f9b5760608a01829052610f918a848a610d75565b9750600101610f77565b509598975050505050505050565b600060018381169084901c8161102a576040860151602090850304808210611007576040517f1cb73c160000000000000000000000000000000000000000000000000000000081526004810182905260248101839052604401610219565b6040870151606088015161101f9160208502016116c7565b606088015250611077565b856020015181106110775760208601516040517f890a8e6a000000000000000000000000000000000000000000000000000000008152600481019190915260248101829052604401610219565b610c50868561167d565b6000610b3e84836116dd8661172c565b6000610b3e848361173c6117d6565b6000610b3e84836117e7866118a1565b6000610b3e84836118bf6115d0565b6000610b3e8483611954611576565b6000610b3e84836119c56117d6565b6000610b3e8483611a246115d0565b6000610b3e8483611a7a611576565b6000610b3e8483611b076115d0565b6000610b3e8483611bb686611bc3565b6000610b3e8483611bd08661172c565b6000610b3e8483611bdc8661172c565b6000610b3e8483611be88661172c565b6000610b3e84836116c78661172c565b6000610b3e8483611bf48661172c565b6000610b3e8483611c038661172c565b6000610b3e8483611c0f8661172c565b6000610b3e8483611c1b8661172c565b6000610b3e8483611c27611576565b6000610b3e8483611c4e6115d0565b6000610b3e8483611c676115d0565b6000610b3e8483611c826115d0565b6000610b3e8483611c9b611576565b6000610b3e8483611ca8611576565b600061487e610d008584838761172c565b6000610b3e82611cb5611219866001614d5f565b879291906118a1565b6000610b3e8483611cc56115d0565b6000610b3e8483611cc96115d0565b6000610b3e8483611ccd611576565b6000610b3e8483611cd16115d0565b6000610b3e8483611cd56115d0565b6000610b3e8483611ce1611576565b6000610b3e8483611cec6115d0565b6000610b3e8483611cf8611576565b6000610b3e8483611d03611576565b6000610b3e8483611d0e611576565b6000610b3e8483611d26611576565b6000610b3e8483611d386115d0565b6000610b3e8483611d44611576565b6000610b3e8483611d4f611576565b6000610b3e8483611d5a611576565b6000610b3e8483611d65611576565b6000610b3e8483611d706115d0565b6000610b3e8483611d7c6115d0565b6000610b3e8483611d886115d0565b6000610b3e8483611d94611576565b6000610b3e8483611d9f8661172c565b6000610b3e8483611dda8661172c565b6000610b3e8483611e0b8661172c565b6000610b3e8483611e21611ee3565b6000610b3e8483611ef4611576565b6000610b3e8483611f41611576565b6000610b3e8483611f8e611576565b6000610b3e8483612010611576565b6000610b3e848361205d611576565b6000610b3e84836120aa6117d6565b600061487e610d00858483612109565b6000610b3e84836121178661216e565b6000610b3e84836121818661221b565b6000610b3e848361222e6115d0565b600060ff8316808203611465576040517f904c1f6d00000000000000000000000000000000000000000000000000000000815260040160405180910390fd5b610d006114738685846116a0565b869061167d565b6000610b3e848361228d6115d0565b805181906051146114d35780516040517fc8b56901000000000000000000000000000000000000000000000000000000008152600481019190915260516024820152604401610219565b919050565b6040518251825160208083028601018311156114f357600080fd5b60208102830160405201835261150982826122a5565b505050565b600061151a82846122a5565b815160200283016105df565b6000611537602083018484516122b9565b815183016105df565b60ff80831660020a7fffffffffffffffffffffffffffffffffffffffffffffffffffffffffffffffff0160089390931c161c1690565b6000610b3e61158585856115e1565b859061167d565b60ff83811660020a7fffffffffffffffffffffffffffffffffffffffffffffffffffffffffffffffff0192831660089490941c1692831b9190921b19919091161790565b6000610b3e611585858560026116a0565b7fffffffffffffffffffffffffffffffffffffffffffffffffffffffffffffffe001600061160f8383612335565b50919050565b60006020820283019250600182111561165f576116597fffffffffffffffffffffffffffffffffffffffffffffffffffffffffffffffe084016060860151906116c7565b60608501525b6116698484612399565b509092915050565b60006105df83836123ae565b602001600061160f8383612399565b600060208202830192506116698484612399565b600081156116695760208202830392506116698484612335565b6000602082028303610b3e565b60008183116116d657816105df565b5090919050565b6000816040516020016116f09190614da1565b604080517fffffffffffffffffffffffffffffffffffffffffffffffffffffffffffffffe0818403018152919052805160209091012092915050565b6000610d006114738686856116a0565b6040517efdd58e00000000000000000000000000000000000000000000000000000000815273ffffffffffffffffffffffffffffffffffffffff8381166004830152602482018390526000919085169062fdd58e906044015b602060405180830381865afa1580156117b2573d6000803e3d6000fd5b505050506040513d601f19601f82011682018060405250810190610b3e9190614dd7565b6000610b3e611585858560036116a0565b6040517f4e1273f400000000000000000000000000000000000000000000000000000000815260609073ffffffffffffffffffffffffffffffffffffffff851690634e1273f49061183e9086908690600401614df0565b600060405180830381865afa15801561185b573d6000803e3d6000fd5b505050506040513d6000823e601f3d9081017fffffffffffffffffffffffffffffffffffffffffffffffffffffffffffffffe0168201604052610b3e9190810190614e53565b6000610d006118b78686600160028702016116a0565b869084611615565b6040517f70a0823100000000000000000000000000000000000000000000000000000000815273ffffffffffffffffffffffffffffffffffffffff8281166004830152600091908416906370a08231906024015b602060405180830381865afa158015611930573d6000803e3d6000fd5b505050506040513d601f19601f820116820180604052508101906105df9190614dd7565b60008173ffffffffffffffffffffffffffffffffffffffff166318160ddd6040518163ffffffff1660e01b8152600401602060405180830381865afa1580156119a1573d6000803e3d6000fd5b505050506040513d601f19601f820116820180604052508101906101c99190614dd7565b6040517f4ee2cd7e00000000000000000000000000000000000000000000000000000000815273ffffffffffffffffffffffffffffffffffffffff83811660048301526024820183905260009190851690634ee2cd7e90604401611795565b6040517f981b24d00000000000000000000000000000000000000000000000000000000081526004810182905260009073ffffffffffffffffffffffffffffffffffffffff84169063981b24d090602401611913565b60008173ffffffffffffffffffffffffffffffffffffffff16638da5cb5b6040518163ffffffff1660e01b8152600401602060405180830381865afa158015611ac7573d6000803e3d6000fd5b505050506040513d601f19601f82011682018060405250810190611aeb9190614ed9565b73ffffffffffffffffffffffffffffffffffffffff1692915050565b6040517f6352211e0000000000000000000000000000000000000000000000000000000081526004810182905260009073ffffffffffffffffffffffffffffffffffffffff841690636352211e90602401602060405180830381865afa158015611b75573d6000803e3d6000fd5b505050506040513d601f19601f82011682018060405250810190611b999190614ed9565b73ffffffffffffffffffffffffffffffffffffffff169392505050565b80611bc057600080fd5b50565b6000610d008585846116a0565b60006105df8284614d5f565b60006105df8284614ba0565b60006105df828461502f565b60008183106116d657816105df565b60006105df828461503b565b60006105df828461504f565b60006105df8284615066565b60006105df600184901c600185166002811115611c4657611c46614d72565b849190612536565b6000610b3e8282611c60868883612536565b91906125a5565b6000610b3e83600186166002811115611c4657611c46614d72565b6000610b3e8282611c94868883612536565b91906125bb565b60006105df8284836125d1565b60006105df828483612620565b6060600084116116695781610b3e565b1490565b1090565b1590565b1190565b60006105df8383612680565b60006101c982612693565b60006105df838361270b565b60006101c982612726565b60006101c98261278e565b6000670de0b6b3a764000082068015150282036101c9565b6000670de0b6b3a764000082066101c9565b60006105df83836127fc565b60006101c98261287c565b60006101c98261289f565b60006101c9826128d0565b60006101c98261375c565b60006105df83836138bf565b60006105df83836138ce565b60006105df838361392b565b60006101c98261398b565b6000828201838110611db15780610b3e565b7fffffffffffffffffffffffffffffffffffffffffffffffffffffffffffffffff949350505050565b600082600003611dec575060006101c9565b82820282848281611dff57611dff614b42565b0403611db15780610b3e565b6000818311611e1b5760006105df565b50900390565b6040517fd97b2e4800000000000000000000000000000000000000000000000000000000815273ffffffffffffffffffffffffffffffffffffffff84811660048301528381166024830152604482018390526000919086169063d97b2e4890606401602060405180830381865afa158015611ea0573d6000803e3d6000fd5b505050506040513d601f19601f82011682018060405250810190611ec49190614dd7565b73ffffffffffffffffffffffffffffffffffffffff1695945050505050565b6000610b3e611585858560046116a0565b60008173ffffffffffffffffffffffffffffffffffffffff1663ec14b06e6040518163ffffffff1660e01b8152600401602060405180830381865afa1580156119a1573d6000803e3d6000fd5b60008173ffffffffffffffffffffffffffffffffffffffff1663cd3293de6040518163ffffffff1660e01b8152600401602060405180830381865afa158015611ac7573d6000803e3d6000fd5b60008173ffffffffffffffffffffffffffffffffffffffff1663f9020e336040518163ffffffff1660e01b8152600401602060405180830381865afa158015611fdb573d6000803e3d6000fd5b505050506040513d601f19601f82011682018060405250810190611fff9190615079565b60038111156101c9576101c9614d72565b60008173ffffffffffffffffffffffffffffffffffffffff1663fc0c546a6040518163ffffffff1660e01b8152600401602060405180830381865afa158015611ac7573d6000803e3d6000fd5b60008173ffffffffffffffffffffffffffffffffffffffff166347e4bbb96040518163ffffffff1660e01b8152600401602060405180830381865afa1580156119a1573d6000803e3d6000fd5b6040517fdb8554fc00000000000000000000000000000000000000000000000000000000815273ffffffffffffffffffffffffffffffffffffffff8381166004830152602482018390526000919085169063db8554fc90604401611795565b6000610b3e848460026116a0565b6040517f88d6860400000000000000000000000000000000000000000000000000000000815260009073ffffffffffffffffffffffffffffffffffffffff8516906388d6860490611795908690869060040161509a565b6000610d006114738686600286016116a0565b6040517fcaa0eb3b00000000000000000000000000000000000000000000000000000000815260009073ffffffffffffffffffffffffffffffffffffffff86169063caa0eb3b906121da908790879087906004016150c9565b602060405180830381865afa1580156121f7573d6000803e3d6000fd5b505050506040513d601f19601f82011682018060405250810190610d009190614dd7565b6000610d006114738686600386016116a0565b60008060015b6008811161228557600061224886836139fa565b9050600061225686846139fa565b905060006122648383611e0b565b9050612274856001860383613aaa565b945050600190920191506122349050565b509392505050565b6000610b3e8385600f16600487901c600f1685613b34565b600060208301905061150981838551613bda565b5b602081106122f75782518252602092830192909101907fffffffffffffffffffffffffffffffffffffffffffffffffffffffffffffffe0016122ba565b8015611509577fffffffffffffffffffffffffffffffffffffffffffffffffffffffffffffffff600882021c80835116811985511617835250505050565b816060015181116123955760608201516040830151602091030460408301516020908303046040517f625e32e400000000000000000000000000000000000000000000000000000000815260048101929092526024820152604401610219565b5050565b81608001518111156123955760809190910152565b60008060008473ffffffffffffffffffffffffffffffffffffffff1663feaf968c6040518163ffffffff1660e01b815260040160a060405180830381865afa1580156123fe573d6000803e3d6000fd5b505050506040513d601f19601f820116820180604052508101906124229190615118565b5093505092505060008213612466576040517f3351e26f00000000000000000000000000000000000000000000000000000000815260048101839052602401610219565b836124718242615066565b11156124b3576040517f2730eb480000000000000000000000000000000000000000000000000000000081526004810182905260248101859052604401610219565b610d008573ffffffffffffffffffffffffffffffffffffffff1663313ce5676040518163ffffffff1660e01b8152600401602060405180830381865afa158015612501573d6000803e3d6000fd5b505050506040513d601f19601f820116820180604052508101906125259190615168565b60ff16600161253385613c02565b91905b6000808360120361254a57849150506105df565b83601211156125765750601283900361256e61256782600a61502f565b8690611dda565b9150506105df565b507fffffffffffffffffffffffffffffffffffffffffffffffffffffffffffffffee830161256e858285613c72565b6000610b3e84670de0b6b3a76400008585613cca565b6000610b3e8484670de0b6b3a764000085613cca565b60008260000b6000036125e55750826105df565b60008360000b131561260d576126066125ff84600a61518b565b8590611dda565b90506105df565b60ff60008490031661256e858285613c72565b6000806012840361263457849150506105df565b836012111561264e5783601203905061256e858285613c72565b507fffffffffffffffffffffffffffffffffffffffffffffffffffffffffffffffee830161256e61256782600a61502f565b6000828280821681831860011c01610d00565b6000817ffffffffffffffffffffffffffffffffffffffffffffffffff7e52fe5afe400008111156126f3576040517f6149f6b900000000000000000000000000000000000000000000000000000000815260048101849052602401610219565b5050670de0b6b3a76400008082068015159103020190565b60006105df61272384670de0b6b3a764000085613d1a565b90565b600081680736ea4425c11ac631811061276e576040517f1af63aca00000000000000000000000000000000000000000000000000000000815260048101849052602401610219565b6714057b7ef767814f8102610b3e61278e670de0b6b3a7640000835b0490565b600081680a688906bd8b00000081106127d6576040517fb3b6ba1f00000000000000000000000000000000000000000000000000000000815260048101849052602401610219565b60006127ee670de0b6b3a7640000604084901b614ba0565b9050610b3e61272382613e25565b6000828281158061280b575080155b1561281b576000925050506101c9565b8181028183828161282e5761282e614b42565b0414612870576040517fae7f3b370000000000000000000000000000000000000000000000000000000081526004810187905260248101869052604401610219565b610c506127238261459a565b60006101c9826ec097ce7bc90715b34b9f10000000008161278a5761278a614b42565b60006101c96714057b7ef767814f670de0b6b3a76400006128c26127238661375c565b028161278a5761278a614b42565b600081670de0b6b3a7640000811015612918576040517f36d32ef000000000000000000000000000000000000000000000000000000000815260048101849052602401610219565b826001811461306957600a811461309157606481146130b9576103e881146130e157612710811461310957620186a0811461313157620f4240811461315957629896808114613181576305f5e10081146131a957633b9aca0081146131d1576402540be40081146131f95764174876e80081146132215764e8d4a510008114613249576509184e72a000811461327157655af3107a400081146132995766038d7ea4c6800081146132c157662386f26fc1000081146132e95767016345785d8a0000811461331157670de0b6b3a7640000811461333957678ac7230489e8000081146133425768056bc75e2d63100000811461335257683635c9adc5dea0000081146133625769021e19e0c9bab240000081146133725769152d02c7e14af680000081146133825769d3c21bcecceda10000008114613392576a084595161401484a00000081146133a2576a52b7d2dcc80cd2e400000081146133b2576b033b2e3c9fd0803ce800000081146133c2576b204fce5e3e2502611000000081146133d2576c01431e0fae6d7217caa000000081146133e2576c0c9f2c9cd04674edea4000000081146133f2576c7e37be2022c0914b26800000008114613402576d04ee2d6d415b85acef81000000008114613412576d314dc6448d9338c15b0a000000008114613422576e01ed09bead87c0378d8e64000000008114613432576e13426172c74d822b878fe8000000008114613442576ec097ce7bc90715b34b9f10000000008114613452576f0785ee10d5da46d900f436a0000000008114613462576f4b3b4ca85a86c47a098a2240000000008114613473577002f050fe938943acc45f65568000000000811461348457701d6329f1c35ca4bfabb9f5610000000000811461349557710125dfa371a19e6f7cb54395ca000000000081146134a657710b7abc627050305adf14a3d9e4000000000081146134b7577172cb5bd86321e38cb6ce6682e8000000000081146134c85772047bf19673df52e37f2410011d10000000000081146134d957722cd76fe086b93ce2f768a00b22a0000000000081146134ea577301c06a5ec5433c60ddaa16406f5a40000000000081146134fb5773118427b3b4a05bc8a8a4de845986800000000000811461350c5773af298d050e4395d69670b12b7f41000000000000811461351d577406d79f82328ea3da61e066ebb2f88a000000000000811461352e5774446c3b15f9926687d2c40534fdb564000000000000811461353f577502ac3a4edbbfb8014e3ba83411e915e8000000000000811461355057751aba4714957d300d0e549208b31adb1000000000000081146135615776010b46c6cdd6e3e0828f4db456ff0c8ea0000000000000811461357257760a70c3c40a64e6c51999090b65f67d9240000000000000811461358357766867a5a867f103b2fffa5a71fba0e7b6800000000000008114613594577704140c78940f6a24fdffc78873d4490d210000000000000081146135a5577728c87cb5c89a2571ebfdcb54864ada834a0000000000000081146135b657780197d4df19d605767337e9f14d3eec8920e40000000000000081146135c757780fee50b7025c36a0802f236d04753d5b48e80000000000000081146135d857789f4f2726179a224501d762422c946590d9100000000000000081146135e95779063917877cec0556b21269d695bdcbf7a87aa00000000000000081146135fa57793e3aeb4ae1383562f4b82261d969f7ac94ca4000000000000000811461360b577a026e4d30eccc3215dd8f3157d27e23acbdcfe68000000000000000811461361c577a184f03e93ff9f4daa797ed6e38ed64bf6a1f010000000000000000811461362d577af316271c7fc3908a8bef464e3945ef7a25360a0000000000000000811461363e577b097edd871cfda3a5697758bf0e3cbb5ac5741c640000000000000000811461364f577b5ef4a74721e864761ea977768e5f518bb6891be800000000000000008114613660577c03b58e88c75313ec9d329eaaa18fb92f75215b171000000000000000008114613671577c25179157c93ec73e23fa32aa4f9d3bda934d8ee6a000000000000000008114613682577d0172ebad6ddc73c86d67c5faa71c245689c10795024000000000000000008114613693577d0e7d34c64a9c85d4460dbbca87196b61618a4bd21680000000000000000081146136a4577d90e40fbeea1d3a4abc8955e946fe31cdcf66f634e100000000000000000081146136b5577e05a8e89d75252446eb5d5d5b1cc5edf20a1a059e10ca00000000000000000081146136c6577e3899162693736ac531a5a58f1fbb4b746504382ca7e400000000000000000081146136d7577f0235fadd81c2822bb3f07877973d50f28bf22a31be8ee800000000000000000081146136e8577f161bcca7119915b50764b4abe86529797775a5f171951000000000000000000081146136f9577fdd15fe86affad91249ef0eb713f39ebeaa987b6e6fd2a0000000000000000000811461370a577fffffffffffffffffffffffffffffffffffffffffffffffffffffffffffffffff9250613717565b7fffffffffffffffffffffffffffffffffffffffffffffffff0633275e3af800009250613717565b7fffffffffffffffffffffffffffffffffffffffffffffffff1413de11e25c00009250613717565b7fffffffffffffffffffffffffffffffffffffffffffffffff21f494c589c000009250613717565b7fffffffffffffffffffffffffffffffffffffffffffffffff2fd54b79312400009250613717565b7fffffffffffffffffffffffffffffffffffffffffffffffff3db6022cd88800009250613717565b7fffffffffffffffffffffffffffffffffffffffffffffffff4b96b8e07fec00009250613717565b7fffffffffffffffffffffffffffffffffffffffffffffffff59776f94275000009250613717565b7fffffffffffffffffffffffffffffffffffffffffffffffff67582647ceb400009250613717565b7fffffffffffffffffffffffffffffffffffffffffffffffff7538dcfb761800009250613717565b7fffffffffffffffffffffffffffffffffffffffffffffffff831993af1d7c00009250613717565b7fffffffffffffffffffffffffffffffffffffffffffffffff90fa4a62c4e000009250613717565b7fffffffffffffffffffffffffffffffffffffffffffffffff9edb01166c4400009250613717565b7fffffffffffffffffffffffffffffffffffffffffffffffffacbbb7ca13a800009250613717565b7fffffffffffffffffffffffffffffffffffffffffffffffffba9c6e7dbb0c00009250613717565b7fffffffffffffffffffffffffffffffffffffffffffffffffc87d2531627000009250613717565b7fffffffffffffffffffffffffffffffffffffffffffffffffd65ddbe509d400009250613717565b7fffffffffffffffffffffffffffffffffffffffffffffffffe43e9298b13800009250613717565b7ffffffffffffffffffffffffffffffffffffffffffffffffff21f494c589c00009250613717565b60009250613717565b670de0b6b3a76400009250613717565b671bc16d674ec800009250613717565b6729a2241af62c00009250613717565b673782dace9d9000009250613717565b674563918244f400009250613717565b6753444835ec5800009250613717565b676124fee993bc00009250613717565b676f05b59d3b2000009250613717565b677ce66c50e28400009250613717565b678ac7230489e800009250613717565b6798a7d9b8314c00009250613717565b67a688906bd8b000009250613717565b67b469471f801400009250613717565b67c249fdd3277800009250613717565b67d02ab486cedc00009250613717565b67de0b6b3a764000009250613717565b67ebec21ee1da400009250613717565b67f9ccd8a1c50800009250613717565b680107ad8f556c6c00009250613717565b6801158e460913d000009250613717565b6801236efcbcbb3400009250613717565b6801314fb370629800009250613717565b68013f306a2409fc00009250613717565b68014d1120d7b16000009250613717565b68015af1d78b58c400009250613717565b680168d28e3f002800009250613717565b680176b344f2a78c00009250613717565b68018493fba64ef000009250613717565b68019274b259f65400009250613717565b6801a055690d9db800009250613717565b6801ae361fc1451c00009250613717565b6801bc16d674ec8000009250613717565b6801c9f78d2893e400009250613717565b6801d7d843dc3b4800009250613717565b6801e5b8fa8fe2ac00009250613717565b6801f399b1438a1000009250613717565b6802017a67f7317400009250613717565b68020f5b1eaad8d800009250613717565b68021d3bd55e803c00009250613717565b68022b1c8c1227a000009250613717565b680238fd42c5cf0400009250613717565b680246ddf979766800009250613717565b680254beb02d1dcc00009250613717565b6802629f66e0c53000009250613717565b680270801d946c9400009250613717565b68027e60d44813f800009250613717565b68028c418afbbb5c00009250613717565b68029a2241af62c000009250613717565b6802a802f8630a2400009250613717565b6802b5e3af16b18800009250613717565b6802c3c465ca58ec00009250613717565b6802d1a51c7e005000009250613717565b6802df85d331a7b400009250613717565b6802ed6689e54f1800009250613717565b6802fb474098f67c00009250613717565b68030927f74c9de000009250613717565b68031708ae00454400009250613717565b680324e964b3eca800009250613717565b680332ca1b67940c000092505b507fffffffffffffffffffffffffffffffffffffffffffffffffffffffffffffffff820361160f576105df672e19dc008126bf2b670de0b6b3a76400006128c2612723875b600081670de0b6b3a76400008110156137a4576040517f36d32ef000000000000000000000000000000000000000000000000000000000815260048101849052602401610219565b6000613830670de0b6b3a7640000830460016fffffffffffffffffffffffffffffffff821160071b91821c67ffffffffffffffff811160061b90811c63ffffffff811160051b90811c61ffff811160041b90811c60ff8111600390811b91821c600f811160021b90811c918211871b91821c969096119490961792909217171791909117919091171790565b9050670de0b6b3a7640000810282821c7ffffffffffffffffffffffffffffffffffffffffffffffffff21f494c589c000081016138705750949350505050565b671bc16d674ec800006706f05b59d3b200005b80156138b357670de0b6b3a76400008380020492508183106138ab579283019260019290921c915b60011c613883565b50919695505050505050565b60006105df612723848461471f565b600082828183036138f75780156138e65760006138f0565b670de0b6b3a76400005b9250613923565b670de0b6b3a7640000810361390e57849250613923565b610d0061278e61391d8761375c565b866138bf565b505092915050565b600082816001841661394557670de0b6b3a7640000613947565b815b9050600184901c93505b831561398557613961828361471f565b9150600184161561397957613976818361471f565b90505b600184901c9350613951565b80610d00565b6000817812725dd1d243aba0e75fe645cc4873f9e65afe688c928e1f218111156139e4576040517fedc236ad00000000000000000000000000000000000000000000000000000000815260048101849052602401610219565b6105df612723670de0b6b3a7640000830261459a565b6000816008811115613a68576040517f08c379a000000000000000000000000000000000000000000000000000000000815260206004820152600860248201527f4d41585f544945520000000000000000000000000000000000000000000000006044820152606401610219565b82600003613a795760009150610865565b50507fffffffffffffffffffffffffffffffffffffffffffffffffffffffffffffffff016020021c63ffffffff1690565b6000826008811115613b18576040517f08c379a000000000000000000000000000000000000000000000000000000000815260206004820152600860248201527f4d41585f544945520000000000000000000000000000000000000000000000006044820152606401610219565b505060209190910290811b63ffffffff90911b19919091161790565b6000826008811115613ba2576040517f08c379a000000000000000000000000000000000000000000000000000000000815260206004820152600860248201527f4d41585f544945520000000000000000000000000000000000000000000000006044820152606401610219565b6000855b85811015613bce5763ffffffff6020820290811b199890981685891b17979150600101613ba6565b50959695505050505050565b8060200283015b80841015613bfc578351835260209384019390920191613be1565b50505050565b600080821215613c6e576040517f08c379a000000000000000000000000000000000000000000000000000000000815260206004820181905260248201527f53616665436173743a2076616c7565206d75737420626520706f7369746976656044820152606401610219565b5090565b600080613c8084600a61502f565b90506000613c8e8287614ba0565b90506001846002811115613ca457613ca4614d72565b148015613cba5750613cb6828261504f565b8614155b15610d0057610c50600182614d5f565b600080613cd8868686614824565b90506001836002811115613cee57613cee614d72565b148015613cba575060008480613d0657613d06614b42565b8688091115610d0057610c50600182614d5f565b600080807fffffffffffffffffffffffffffffffffffffffffffffffffffffffffffffffff85870985870292508281108382030391505080600003613d7257838281613d6857613d68614b42565b04925050506105df565b838110613dbc576040517f63a05778000000000000000000000000000000000000000000000000000000008152600481018790526024810186905260448101859052606401610219565b60008486880960026001871981018816978890046003810283188082028403028082028403028082028403028082028403028082028403029081029092039091026000889003889004909101858311909403939093029303949094049190911702949350505050565b7780000000000000000000000000000000000000000000000067ff00000000000000821615613f4657678000000000000000821615613e6d5768016a09e667f3bcc9090260401c5b674000000000000000821615613e8c576801306fe0a31b7152df0260401c5b672000000000000000821615613eab576801172b83c7d517adce0260401c5b671000000000000000821615613eca5768010b5586cf9890f62a0260401c5b670800000000000000821615613ee9576801059b0d31585743ae0260401c5b670400000000000000821615613f0857680102c9a3e778060ee70260401c5b670200000000000000821615613f275768010163da9fb33356d80260401c5b670100000000000000821615613f4657680100b1afa5abcbed610260401c5b66ff000000000000821615614045576680000000000000821615613f735768010058c86da1c09ea20260401c5b6640000000000000821615613f91576801002c605e2e8cec500260401c5b6620000000000000821615613faf57680100162f3904051fa10260401c5b6610000000000000821615613fcd576801000b175effdc76ba0260401c5b6608000000000000821615613feb57680100058ba01fb9f96d0260401c5b66040000000000008216156140095768010002c5cc37da94920260401c5b6602000000000000821615614027576801000162e525ee05470260401c5b66010000000000008216156140455768010000b17255775c040260401c5b65ff000000000082161561413b5765800000000000821615614070576801000058b91b5bc9ae0260401c5b6540000000000082161561408d57680100002c5c89d5ec6d0260401c5b652000000000008216156140aa5768010000162e43f4f8310260401c5b651000000000008216156140c757680100000b1721bcfc9a0260401c5b650800000000008216156140e45768010000058b90cf1e6e0260401c5b65040000000000821615614101576801000002c5c863b73f0260401c5b6502000000000082161561411e57680100000162e430e5a20260401c5b6501000000000082161561413b576801000000b1721835510260401c5b64ff000000008216156142285764800000000082161561416457680100000058b90c0b490260401c5b6440000000008216156141805768010000002c5c8601cc0260401c5b64200000000082161561419c576801000000162e42fff00260401c5b6410000000008216156141b85768010000000b17217fbb0260401c5b6408000000008216156141d4576801000000058b90bfce0260401c5b6404000000008216156141f057680100000002c5c85fe30260401c5b64020000000082161561420c5768010000000162e42ff10260401c5b64010000000082161561422857680100000000b17217f80260401c5b64ff0000000082161561430d5763800000008216156142505768010000000058b90bfc0260401c5b634000000082161561426b576801000000002c5c85fe0260401c5b632000000082161561428657680100000000162e42ff0260401c5b63100000008216156142a1576801000000000b17217f0260401c5b63080000008216156142bc57680100000000058b90c00260401c5b63040000008216156142d75768010000000002c5c8600260401c5b63020000008216156142f2576801000000000162e4300260401c5b630100000082161561430d5768010000000000b172180260401c5b62ff00008216156143e85762800000821615614332576801000000000058b90c0260401c5b6240000082161561434c57680100000000002c5c860260401c5b622000008216156143665768010000000000162e430260401c5b6210000082161561438057680100000000000b17210260401c5b6208000082161561439a5768010000000000058b910260401c5b620400008216156143b4576801000000000002c5c80260401c5b620200008216156143ce57680100000000000162e40260401c5b620100008216156143e8576801000000000000b1720260401c5b61ff008216156144ba5761800082161561440b57680100000000000058b90260401c5b6140008216156144245768010000000000002c5d0260401c5b61200082161561443d576801000000000000162e0260401c5b6110008216156144565768010000000000000b170260401c5b61080082161561446f576801000000000000058c0260401c5b61040082161561448857680100000000000002c60260401c5b6102008216156144a157680100000000000001630260401c5b6101008216156144ba57680100000000000000b10260401c5b60ff8216156145835760808216156144db57680100000000000000590260401c5b60408216156144f3576801000000000000002c0260401c5b602082161561450b57680100000000000000160260401c5b6010821615614523576801000000000000000b0260401c5b600882161561453b57680100000000000000060260401c5b600482161561455357680100000000000000030260401c5b600282161561456b57680100000000000000010260401c5b600182161561458357680100000000000000010260401c5b670de0b6b3a76400000260409190911c60bf031c90565b6000816000036145ac57506000919050565b5060018170010000000000000000000000000000000081106145d35760409190911b9060801c5b6801000000000000000081106145ee5760209190911b9060401c5b64010000000081106146055760109190911b9060201c5b62010000811061461a5760089190911b9060101c5b610100811061462e5760049190911b9060081c5b601081106146415760029190911b9060041c5b6004811061465157600182901b91505b600182848161466257614662614b42565b048301901c9150600182848161467a5761467a614b42565b048301901c9150600182848161469257614692614b42565b048301901c915060018284816146aa576146aa614b42565b048301901c915060018284816146c2576146c2614b42565b048301901c915060018284816146da576146da614b42565b048301901c915060018284816146f2576146f2614b42565b048301901c9150600082848161470a5761470a614b42565b049050808310614718578092505b5050919050565b600080807fffffffffffffffffffffffffffffffffffffffffffffffffffffffffffffffff848609848602925082811083820303915050670de0b6b3a764000081106147a1576040517f5173648d0000000000000000000000000000000000000000000000000000000081526004810186905260248101859052604401610219565b6000670de0b6b3a76400008587099050816000036147cd575050670de0b6b3a7640000900490506101c9565b6204000081840304921090037d40000000000000000000000000000000000000000000000000000000000002177faccb18165bd6fe31ae1cf318dc5b51eee0e1ba569b88cd74c1773b91fac1066902905092915050565b600080807fffffffffffffffffffffffffffffffffffffffffffffffffffffffffffffffff8587098587029250828110838203039150508060000361487257838281613d6857613d68614b42565b808411613dbc57600080fd5b61488661519a565b565b60006020828403121561489a57600080fd5b81357fffffffff00000000000000000000000000000000000000000000000000000000811681146105df57600080fd5b7f4e487b7100000000000000000000000000000000000000000000000000000000600052604160045260246000fd5b604051601f82017fffffffffffffffffffffffffffffffffffffffffffffffffffffffffffffffe016810167ffffffffffffffff81118282101715614940576149406148ca565b604052919050565b600067ffffffffffffffff821115614962576149626148ca565b5060051b60200190565b600082601f83011261497d57600080fd5b8135602061499261498d83614948565b6148f9565b82815260059290921b840181019181810190868411156149b157600080fd5b8286015b848110156149cc57803583529183019183016149b5565b509695505050505050565b6000806000606084860312156149ec57600080fd5b833567ffffffffffffffff80821115614a0457600080fd5b818601915086601f830112614a1857600080fd5b81356020614a2861498d83614948565b82815260059290921b8401810191818101908a841115614a4757600080fd5b8286015b84811015614af257803586811115614a635760008081fd5b8701603f81018d13614a755760008081fd5b84810135604088821115614a8b57614a8b6148ca565b614abb877fffffffffffffffffffffffffffffffffffffffffffffffffffffffffffffffe0601f850116016148f9565b8281528f82848601011115614ad05760008081fd5b8282850189830137600092810188019290925250845250918301918301614a4b565b5097505087013592505080821115614b0957600080fd5b614b158783880161496c565b93506040860135915080821115614b2b57600080fd5b50614b388682870161496c565b9150509250925092565b7f4e487b7100000000000000000000000000000000000000000000000000000000600052601260045260246000fd5b7f4e487b7100000000000000000000000000000000000000000000000000000000600052601160045260246000fd5b600082614baf57614baf614b42565b500490565b7f4e487b7100000000000000000000000000000000000000000000000000000000600052603260045260246000fd5b60007fffffffffffffffffffffffffffffffffffffffffffffffffffffffffffffffff8203614c1457614c14614b71565b5060010190565b600081518084526020808501945080840160005b83811015614c4b57815187529582019590820190600101614c2f565b509495945050505050565b60006080820173ffffffffffffffffffffffffffffffffffffffff87168352602060808185015281875180845260a08601915060a08160051b87010193508289016000805b83811015614d33577fffffffffffffffffffffffffffffffffffffffffffffffffffffffffffffff6089880301855282518051808952835b81811015614cee578281018901518a82018a01528801614cd3565b508881018801849052601f017fffffffffffffffffffffffffffffffffffffffffffffffffffffffffffffffe016909701860196509385019391850191600101614c9b565b5050505050508281036040840152614d4b8186614c1b565b90508281036060840152610e8c8185614c1b565b808201808211156101c9576101c9614b71565b7f4e487b7100000000000000000000000000000000000000000000000000000000600052602160045260246000fd5b815160009082906020808601845b83811015614dcb57815185529382019390820190600101614daf565b50929695505050505050565b600060208284031215614de957600080fd5b5051919050565b604080825283519082018190526000906020906060840190828701845b82811015614e3f57815173ffffffffffffffffffffffffffffffffffffffff1684529284019290840190600101614e0d565b50505083810382850152610c508186614c1b565b60006020808385031215614e6657600080fd5b825167ffffffffffffffff811115614e7d57600080fd5b8301601f81018513614e8e57600080fd5b8051614e9c61498d82614948565b81815260059190911b82018301908381019087831115614ebb57600080fd5b928401925b82841015610e8c57835182529284019290840190614ec0565b600060208284031215614eeb57600080fd5b815173ffffffffffffffffffffffffffffffffffffffff811681146105df57600080fd5b600181815b80851115614f6857817fffffffffffffffffffffffffffffffffffffffffffffffffffffffffffffffff04821115614f4e57614f4e614b71565b80851615614f5b57918102915b93841c9390800290614f14565b509250929050565b600082614f7f575060016101c9565b81614f8c575060006101c9565b8160018114614fa25760028114614fac57614fc8565b60019150506101c9565b60ff841115614fbd57614fbd614b71565b50506001821b6101c9565b5060208310610133831016604e8410600b8410161715614feb575081810a6101c9565b614ff58383614f0f565b807fffffffffffffffffffffffffffffffffffffffffffffffffffffffffffffffff0482111561502757615027614b71565b029392505050565b60006105df8383614f70565b60008261504a5761504a614b42565b500690565b80820281158282048414176101c9576101c9614b71565b818103818111156101c9576101c9614b71565b60006020828403121561508b57600080fd5b8151600481106105df57600080fd5b73ffffffffffffffffffffffffffffffffffffffff83168152604060208201526000610b3e6040830184614c1b565b73ffffffffffffffffffffffffffffffffffffffff84168152826020820152606060408201526000610d006060830184614c1b565b805169ffffffffffffffffffff811681146114d357600080fd5b600080600080600060a0868803121561513057600080fd5b615139866150fe565b945060208601519350604086015192506060860151915061515c608087016150fe565b90509295509295909350565b60006020828403121561517a57600080fd5b815160ff811681146105df57600080fd5b60006105df60ff841683614f70565b7f4e487b7100000000000000000000000000000000000000000000000000000000600052605160045260246000fdfe0ac70ad60ae50b680b760bc80c380cb60d800dd60e020e9b102f106410821091109f10ae10bc10ca10d810e610ae10f411021111111f112d113c114b115a116911781187119611a511b411c311d211e111f011ff1248125a1268129a12a812b612c412d212e012ee12fc130a13181326133413421350135e136c137a1388139613a413b313c213d113df13ed13fb1409141714251433156115e915f8160716151687a26469706673582212207534653d87356055c8ed49b1ff27d7bb3c74700a7553ff1d33ce1e4baeb5ae9a64736f6c634300081200330ac70ad60ae50b680b760bc80c380cb60d800dd60e020e9b102f106410821091109f10ae10bc10ca10d810e610ae10f411021111111f112d113c114b115a116911781187119611a511b411c311d211e111f011ff1248125a1268129a12a812b612c412d212e012ee12fc130a13181326133413421350135e136c137a1388139613a413b313c213d113df13ed13fb1409141714251433156115e915f8160716151687",
  "linkReferences": {},
  "deployedLinkReferences": {}
}